:020000040800F2
:100000000004002001040008210500082105000863
:100010002105000821050008210500082105000828
:1000200021050008210500082105000851050008E8
:100030002105000821050008210500082106000807
:1000400021050008210500082105000821050008F8
:1000500021050008210500082105000821050008E8
:10006000210500082105000821050008B16D0008E0
:10007000E16D0008116E0008416E0008716E000805
:10008000A16E0008D16E00082105000821050008B6
:1000900021050008210500082105000821050008A8
:1000A0002105000821050008210500082105000898
:1000B0002105000821050008210500082105000888
:1000C0002105000821050008210500082105000878
:1000D0002105000821050008210500082105000868
:1000E0002105000821050008210500082105000858
:1000F000210500082105000821050008016F0008FE
:1001000021050008517A0008210500082105000892
:100110002105000821050008210500082105000827
:10012000316F0008616F0008916F0008C16F00080F
:10013000F16F00080174000821050008210500087E
:10014000210500082105000821050008D1860008C6
:10015000217000085170000881700008818C00082F
:1001600021050008210500082105000821050008D7
:1001700021050008210500082105000821050008C7
:0801800021050008210500081B
:100190002DE9F0418AB005F0A3FD444CDFF8588109
:1001A000434D00F0ADFA434806F0CAF942494148D0
:1001B00006F0F6F9E36B9A6B22F400229A634FF48F
:1001C0007A7000F035FD20463C4906F009FBE36BF0
:1001D0009A6B42F400229A6311F072FC00213848B5
:1001E00006F0CEF83748002106F04AF8C8F800803B
:1001F0002D60202383F31188334C3448344A314B2B
:100200000A21216000F0F4FA002383F311881F46CD
:100210004FF4987140222F4B00972F482F4C254EBA
:1002200000F0B6FC4FF4007142222D4B00972D4890
:1002300000F0AEFC2C4B00974FF4966141222B4806
:1002400000F0A6FC404602A9012201F009F9284667
:1002500006A902223D4601F003F9A046C4F20205B8
:100260000DE0037F0E2B1CD04FF4FA714FF0FF30DE
:100270002B6901F00DFA01461D4801F091F9206843
:100280000028EED1D6F854321B681B78042BE8D135
:1002900018484FF40B61402211F01AFCC8F8000016
:1002A000E2E700F05DFD2760DEE700BF7038002068
:1002B000D07C0020D47C0020303C0108F03A0108BA
:1002C000103A002024360020648300204083002060
:1002D000C11E0108611E0108B0850020CC7C0020F1
:1002E000718F0008C03A0020511D010818780020C5
:1002F000403C0108B03C01082C7F0020AFF3008097
:1003000010B5002302E0CC5CC45401339342FAD10F
:1003100010BD000000000000000000000000000010
:100320008218034601E003F8011B9342FBD170479A
:100330000D4B70B51D680022845C2B195B7803F0AF
:100340000303012B8B5C05EB030608BF2034767892
:1003500006F00306012E08BF2033E41A02D1013251
:10036000002BE9D1204670BD0008002000000000ED
:10037000C9B2034610F8012B12B18A42F9D102E04A
:10038000002918BF00231846704700000000000035
:10039000034611F8012B03F8012B002AF9D170470D
:1003A000034613F8012B002AFBD1181A01387047B5
:1003B00070B5034607E0AC4205D012F8015F002D8E
:1003C000F9D1301A70BD1E4613F8014B002CF8D03D
:1003D0004A1EF2E7000000000000000000000000DC
:1003E000704700BFAFF30080AFF30080AFF3008031
:1003F000FEE700BFAFF30080AFF30080AFF30080F3
:1004000072B6374880F30988022383F31488BFF358
:100410006F8F344A344B9A420BD2D143C91821F022
:100420000301131F89184FF0553243F8042F8B42F4
:10043000FBD12E4A82420CD22D49131DC91A21F03C
:100440000301131F89184FF0553243F8042F8B42D4
:10045000FBD108F015FD2749274B99420BD2C84321
:10046000C01820F00300254C043000231A595A50BC
:1004700004338342FAD1224A224B9A420AD2D14310
:10048000C91821F00301131F8918002243F8042F13
:100490008B42FBD1FFF7A4FF1B4D1C4B9D420BD29F
:1004A000EE43F618B608043D0136002455F8043F23
:1004B00001349847B442F9D1FFF76AFE144D154B49
:1004C0009D420BD2EE43F618B608043D01360024D7
:1004D00055F8043F01349847B442F9D1FFF788FF3B
:1004E000000800200000002000040020000400207C
:1004F0000308002000080020E4080020183F01083D
:10050000E8080020E0860020880100088801000833
:100510008801000888010008AFF30080AFF3008075
:10052000FEE700BFAFF30080AFF30080AFF30080C1
:1005300072B6FEE7AFF30080AFF30080AFF3008048
:1005400000F0B6FA00DF00BFAFF30080AFF3008029
:10055000EFF30983203383F30988002383F31188A1
:10056000704700BFAFF30080AFF30080AFF30080AF
:1005700008B54FF46D43CEF200034FF44072C0F261
:10058000FA520021996007201021DA6000F090F8FB
:100590000A204FF4007100F08BF80B208021BDE899
:1005A000084000F085B800BFAFF30080AFF30080D3
:1005B000202383F311884FF46D43CEF200035B6870
:1005C00013F4006319D0EFF30983A3F1200282F33F
:1005D000098810494FF080708A6943F8040CD07F75
:1005E00009689268896858B1914294BF002201223B
:1005F00062B1094A43F8082C704783F311887047A9
:10060000914234BF00220122002AF2D1034A43F86A
:10061000082C7047000A0020410500084405000826
:1006200008B5202383F3118800F0A2F8002383F398
:100630001188BDE80840FFF7BBBF00BFAFF30080E3
:100640002DE9F04FC1F80CD0D0F80CD0BDE8F08FF8
:10065000002383F311882846A04700F049FB704728
:10066000F0B44FF461438408CEF20003C03400F0CC
:10067000030553F82470ED00FF26420906FA05F63B
:1006800027EA060601FA05F500F01F0002F16007EF
:10069000012101FA00F02E4343F8246043F82700BB
:1006A00043F82200F0BC7047AFF30080AFF3008046
:1006B00082084FF46D43CEF20003063200F00300CF
:1006C00030B4C00053F82250FF2404FA00F425EAA5
:1006D000040401FA00F10C4343F8224030BC704797
:1006E000024B034A9B699A61FEE700BF000A0020A3
:1006F00010230108AFF30080AFF30080AFF3008058
:1007000000B583B0FFF734FF00F0FAF800F060F8AE
:1007100001F026FB01F06CFB40F6E8004021C2F23C
:10072000000000F0D5F940F60021C2F200010122DC
:1007300088610277002383F3118862B642F2203089
:100740008969C0F601008861009340F6301040F2DC
:10075000E163C021C0F60003C2F2000000F018FA05
:1007600003B000BDAFF30080AFF30080AFF30080B3
:1007700038B5134B9B69DA7F0AB1013ADA771A6A06
:10078000104C01321A62E36822680133A242E3602E
:1007900014D09568013D956085B91368D1685C6097
:1007A0002360D560002383F31188106988472023D4
:1007B00083F3118822689368002BEED038BD00BF08
:1007C000000A0020F0090020AFF30080AFF30080A2
:1007D00040F6F013C2F200034FF0FF329A6000229D
:1007E0005B601B60DA607047AFF30080AFF300809E
:1007F00070B40D4E03613468C260A568A94204D983
:100800002468491BA5688D42FAD363688160B442AD
:1008100043600460186018BFA36860601CBFC1EB30
:100820000301A16070BC7047F0090020AFF30080A5
:100830000368074A93421FBF996882688A189A60C2
:100840004268136003685A600023C360704700BFAA
:10085000F0090020AFF30080AFF30080AFF3008019
:100860000B4A81420346D26809D8824234BF002332
:1008700001238A422CBF184643F0010070478A4288
:100880002CBF002001209A4238BF0020704700BFD3
:10089000F0090020AFF30080AFF30080AFF30080D9
:1008A000202383F31188037F0D2B11D8DFE803F099
:1008B00020101007100B101010101010100B436AAE
:1008C0009A6801329A6090E80C001A6002685360DE
:1008D0004FF0FF3242628168074B002202771B68AB
:1008E0009A688A42FBD25A6803604260106058607E
:1008F000002383F311887047000A0020AFF30080C3
:1009000040F60023C2F2000300225B601B609A6085
:100910005B611B61704700BFAFF30080AFF30080E5
:1009200000228168054B02771B689A688A42FBD2D5
:100930005A6803604260106058607047000A0020E7
:1009400040F60023C2F2000310B499691A680877D0
:1009500014201468C87701201077104663601C606B
:100960009A6110BCFFF76CBEAFF30080AFF300805C
:1009700030B54B1C87B0054611D00B4C0B4AA36910
:1009800001A8FFF735FF2846FFF7DAFF049B13B1F4
:1009900001A8FFF74DFFA369586A07B030BDFFF704
:1009A000CFFF014CF7E700BF000A0020A1080008B4
:1009B000F0B4144F8568BE690446B06861620023D4
:1009C00085420CD823773B461B689A689542FBD931
:1009D0005A682360626014605C60F0BC70473377D3
:1009E0003B461B689A689042FBD95A683360726034
:1009F00020465E603146012316602377BC61F0BC5F
:100A0000FFF71EBE000A0020AFF30080AFF30080A6
:100A10000E4B18689969026830B453608C681A608C
:100A2000986114230125CB77002305770B770346C4
:100A300000E01B689A68A242FBD25A680B604A60C9
:100A40001160596030BCFFF7FBBD00BF000A0020F9
:100A50000D4B18689969026830B453608C681A604D
:100A600001259861002305770B77034600E01B689A
:100A70009A68A242FBD85A680B604A6011605960BC
:100A800030BCFFF7DDBD00BF000A0020AFF30080DF
:100A9000044B1A689B6992689B689A4200D8704719
:100AA000FFF7D6BF000A0020AFF30080AFF300804D
:100AB000034B9B69DB7F0BB1FFF7CABFFFF7A8BFF2
:100AC000000A0020AFF30080AFF30080AFF3008096
:100AD000F0B440F60024C2F200040022656901640B
:100AE000046100F12C06816000F1280745614FF098
:100AF000020C60610121142480F81CC04277C47785
:100B0000C2638263026281778261286187620663C1
:100B1000C662F0BC704700BFAFF30080AFF3008047
:100B20002DE9F00340F60025C2F20005A1F1240CE6
:100B300000EB0C076969C76040F80C30069B7B60CE
:100B400040F25163C0F600033B6202230377142393
:100B50000026904600F1280900F12C02C3770123FA
:100B60000561C0F808804161044668614677C0F8B5
:100B70004080C66386630662837786610861C0F839
:100B800028900263C262BDE8F0037047AFF30080B3
:100B900010B51C4682B0202383F311882346049CA1
:100BA0000094FFF7BDFF00210446FFF701FF00237B
:100BB00083F31188204602B010BD00BFAFF3008060
:100BC00010B5202383F31188084B9B691C6C99682E
:100BD0008C4201D0814200D298601864FFF758FF20
:100BE000002383F31188204610BD00BF000A0020B7
:100BF00010B52023044683F311880021FFF7D8FEA7
:100C0000002383F31188204610BD00BFAFF300809E
:100C1000202383F31188437F43F0040343770023A9
:100C200083F31188704700BFAFF30080AFF30080FB
:100C300008B50146202383F311880620FFF798FEAC
:100C4000002383F3118808BDAFF30080AFF3008069
:100C500008B5202383F31188054BD968411A02D0C7
:100C60000620FFF785FE002383F3118808BD00BF2F
:100C7000F0090020AFF30080AFF30080AFF30080F5
:100C800008B5202383F31188064B1A689B69926884
:100C90009B689A4201D3FFF7BBFE002383F31188C0
:100CA00008BD00BF000A0020AFF30080AFF3008052
:100CB00038B50E4B9C692546606255F8280FA8424E
:100CC00006D00368A362FFF72BFEA06AA842F8D102
:100CD000637F9B0704D1636922691A6122695361AA
:100CE0000E20BDE83840FFF72BBE00BF000A0020F1
:100CF000202383F31188FFF7DBBF00BFAFF3008031
:100D000038B50446202383F31188037F0E2B07D0C8
:100D1000084B826A9B6907201A60A362FFF710FEE6
:100D2000656A002383F31188204600F019F82846ED
:100D300038BD00BF000A0020AFF30080AFF3008091
:100D4000202383F31188837F01338377002383F388
:100D500011887047AFF30080AFF30080AFF30080DD
:100D60000146202383F31188827F013AD2B2827731
:100D7000002383F3118812B9037F0E2B00D0704734
:100D8000437F03F00303012B09D0022BF7D1436902
:100D90000269406C1A610A69536101F031B9436913
:100DA00002691A610269536101F08AB8AFF30080E9
:100DB000F0B583B00D4617461E4601F039F80446DB
:100DC00090B1202383F31188089C334629463A4684
:100DD0000094FFF7A5FE0123437700210446FFF7A7
:100DE000E7FD002383F31188204603B0F0BD00BF68
:100DF0002DE9F04182B005460E4690461F4601F0AF
:100E0000E7F8044690B1202383F3118869680097BE
:100E100043463246FFF784FE0223437745640021B0
:100E20000446FFF7C5FD002383F31188204602B076
:100E3000BDE8F081AFF30080AFF30080AFF3008036
:100E4000202383F3118840F60022C2F2000200231F
:100E50001069827F0132827783F31188704700BF67
:100E600010B5202383F31188074B04699C4209D0F5
:100E7000A37F0133A377002383F31188FFF770FF6B
:100E8000204610BD0024F6E7000A0020AFF30080E2
:100E90004060006081607047AFF30080AFF3008076
:100EA00070B5856881600135002D04460BDC6FF05C
:100EB00001066068436863601C60FFF731FD01351F
:100EC000012D4662F5D170BDAFF30080AFF3008015
:100ED00008B5202383F31188FFF7E2FFFFF7D8FD61
:100EE000002383F3118808BDAFF30080AFF30080C7
:100EF0008268013A002A10B50346826001DB0020B7
:100F000010BD074CA2695062416810605160032017
:100F10005A600A60FFF714FDA369586A10BD00BF4C
:100F2000000A0020AFF30080AFF30080AFF3008031
:100F300008B5202383F31188FFF7DAFF002383F33A
:100F4000118808BDAFF30080AFF30080AFF30080DD
:100F500003468068421E002A10B40C469A6002DBE9
:100F6000002010BC704759B1074A926953625C680F
:100F7000032082E818005A60226010BCFFF7F8BC1A
:100F800098604FF0FF30ECE7000A0020AFF30080DC
:100F900008B5202383F31188FFF7DAFF002383F3DA
:100FA000118808BDAFF30080AFF30080AFF300807D
:100FB00008B50246202383F3118883680133002B90
:100FC000836003DD002383F3118808BD0068036894
:100FD000002113605A60FFF7EBFCF3E7AFF30080EA
:100FE00082680132002A0346826000DD7047026891
:100FF000116801604B60104600235362FFF790BCFC
:1010000070B50C1E054611DD002601E0013C0DD037
:10101000AB680133002BAB60F8DC286803682B60F9
:101020005D60FFF77DFC013C4662F1D170BD00BF01
:1010300010B5024682B0202383F311888368013300
:10104000002B836019DD8B68013B002B8B6007DB75
:10105000FFF71EFD0020002383F3118802B010BDAE
:101060000B4A4B689469032084E80A004C601C60BA
:101070006162FFF765FC606AEDE700680368136072
:101080005A600191FFF74CFC002343620199DAE7B3
:10109000000A0020AFF30080AFF30080AFF30080C0
:1010A0000023406000608360704700BFAFF30080A2
:1010B000F8B52F4A836894690546002B51D0A16882
:1010C0009A68914206D91A7F9960042A31D0052A7C
:1010D0001CD092B12B461B689D4203D09968A26830
:1010E0009142F8D25A6823600420626014605C6008
:1010F0006562BDE8F840FFF723BC93E80600116085
:10110000196818464A60FFF70BFCE3E758681A684D
:101110005E6A02601F68324678601268964202D0AA
:1011200090688842F9D251681A6059600B60536028
:10113000D0E758681A685E6A02601F6832467860B5
:101140001268964212D090688842F9D251681A60AB
:1011500059600B605360B368A1689A688A42B2D341
:10116000B8E7E36B8460C360E063F8BD3246EDE747
:10117000000A0020AFF30080AFF30080AFF30080DF
:1011800008B5202383F31188FFF792FF002383F330
:10119000118808BDAFF30080AFF30080AFF300808B
:1011A0000246202383F31188836800201BB10023AB
:1011B00083F311887047044B9B69D96B9360D160AE
:1011C0000120DA63F3E700BF000A0020AFF30080DC
:1011D000154A38B59069202383F31188C46B2568BC
:1011E000E368A542C3631CD0016C4BB11A689A42F4
:1011F00003D09268914238BF1146DB68002BF5D1CD
:101200002B68EA6B8160236028465C600021A56042
:10121000E260EC63FFF7CCFB002383F311882046E8
:1012200038BD0023A360F7E7000A0020AFF3008079
:1012300038B5124B9869C46B2568E368A542C3634F
:1012400018D0016C4BB11A689A4203D0926891424F
:1012500038BF1146DB68002BF5D12B68EA6B816043
:10126000236028465C60A560E260EC63FFF758FBF2
:10127000204638BD0023A360204638BD000A002068
:10128000124A70B52023946983F31188E36BC3B1CC
:1012900000261A68D9689A42E16308BF9E6009D0A7
:1012A0001168D56B196010464B609A60DD60D3639E
:1012B000FFF736FBE36B002BEBD1236CA360FFF74A
:1012C000E7FB002383F3118870BD00BF000A0020F4
:1012D00040600060704700BFAFF30080AFF3008054
:1012E00008B50246202383F311880068904205D098
:1012F0000368002113605A60FFF75AFB002383F351
:10130000118808BDAFF30080AFF30080AFF3008019
:1013100008B503460068984206D002681A60536018
:10132000FFF7FEFA0023436208BD00BFAFF3008061
:1013300038B504460068A0420AD06FF00105036882
:1013400023605C60FFF7ECFA45622068A042F6D1AA
:1013500038BD00BFAFF30080AFF30080AFF3008073
:1013600008B5202383F31188FFF7E2FFFFF790FB16
:10137000002383F3118808BDAFF30080AFF3008032
:10138000F8B5104B05469C69FFF752FF2E460746FD
:1013900065622B4603E09968A268914210D31B68EE
:1013A0009D42F8D17368266063601C6074600520FC
:1013B000FFF7C6FA646A3846FFF77AFE2046F8BDA2
:1013C0001E46EFE7000A0020AFF30080AFF3008075
:1013D00008B5202383F31188FFF7D2FF002383F39E
:1013E000118808BDAFF30080AFF30080AFF3008039
:1013F0002DE9F04106468846FFF71AFF0E4B9A6921
:101400000746334656621B689E4203D09D68946827
:10141000A542F8D25C68052082E8180041462260A7
:101420005A60FFF7A5FA431C044602D03846FFF77E
:101430003FFE2046BDE8F081000A0020AFF30080A7
:1014400008B5202383F31188FFF7D2FF002383F32D
:10145000118808BDAFF30080AFF30080AFF30080C8
:1014600030B4202383F3118840F60023C2F2000336
:1014700004689D690C600024016023464D608A6009
:10148000CC6083F3118830BC704700BFAFF300809D
:10149000202383F31188024600E01A461368834232
:1014A00003D09942F9D10B681360002383F31188AC
:1014B000704700BFAFF30080AFF30080AFF3008050
:1014C00010B4202383F3118840F60022C2F20002F8
:1014D000002391698A6B22EA00048C6383F31188EC
:1014E000104010BC704700BFAFF30080AFF3008026
:1014F000202383F3118840F60022C2F20002002369
:101500009269916B0843906383F31188704700BF21
:1015100008B5826B037F1143082B81630BD0092B25
:1015200000D008BD436A19408B42FAD1FFF7F8F9A1
:101530000023436208BD436A1942F7D108BD00BFCA
:1015400008B5202383F31188FFF7E2FFFFF7A0FA25
:10155000002383F3118808BDAFF30080AFF3008050
:1015600070B50468A04205460E4608D0201D0BC881
:101570003343E360FFF7CCFF2468A542F6D170BD8A
:1015800008B5202383F31188FFF7EAFFFFF780FAFD
:10159000002383F3118808BDAFF30080AFF3008010
:1015A000F8B50D46074689B10024012601E0013453
:1015B00065B106FA04F32B42F9D057F824202046EF
:1015C00025EA030501349047002DF2D1F8BD00BF94
:1015D00038B50D4B05469C69202383F31188A36B16
:1015E00010EA030206D160620820FFF7A9F9A36B95
:1015F00005EA03025042104023EA0003A3630023DC
:1016000083F3118838BD00BF000A0020AFF30080CB
:1016100038B50B4B05469C69202383F31188A36BD7
:10162000184006D108206562FFF78AF9A36B05EA26
:10163000030023EA0003A363002383F3118838BD6A
:10164000000A0020AFF30080AFF30080AFF300800A
:1016500038B50C4B04469D69202383F31188AB6B8E
:1016600000EA0302824204D068620920FFF768F9A9
:10167000AB6B23EA0403AB63002383F3118820469A
:1016800038BD00BF000A0020AFF30080AFF3008038
:10169000114B70B59E690546202383F31188B36B07
:1016A00010EA03040ED121B9234683F311882046A2
:1016B00070BD70620820FFF75BF90028F4DBB36BA4
:1016C00005EA03046242144023EA0403B3630023DF
:1016D00083F31188204670BD000A0020AFF300801C
:1016E000104B70B59E690446202383F31188B26BBA
:1016F00014EA02050ED121B92B4683F3118828463E
:1017000070BD08207462FFF733F90028F4DBB26B78
:1017100004EA020522EA0502B263002383F311887A
:10172000284670BD000A0020AFF30080AFF30080B0
:1017300038B5134B04469D69202383F31188AA6BA7
:1017400004EA0203A3420DD029B90B4683F31188A2
:101750000C46204638BD09206C62FFF709F90028C5
:1017600008DBAA6B22EA0402AA63002383F3118830
:10177000204638BD002383F311881C46F8E700BFDC
:10178000000A0020AFF30080AFF30080AFF30080C9
:1017900070B50E4B9C69202383F3118800F12C0552
:1017A0006562067F036B25600C2E616363600463D2
:1017B0001C6007D00A20FFF7C3F8606A002383F398
:1017C000118870BDFFF7ACF8F4E700BF000A0020F5
:1017D00010B5202383F311880B4CA3691A4652F8E5
:1017E0002C0F904208D00168D9624A600B22027720
:1017F000002383F3118810BD0C20FFF7A1F8A36923
:101800001A4652F82C0FEEE7000A0020AFF30080D2
:1018100008B5202383F31188FFF7CAF8002383F368
:10182000118808BDAFF30080AFF30080AFF30080F4
:1018300038B504460B4601EB820500F11C00114649
:10184000E360A36084E82800FFF722FB04F11000A6
:101850000021BDE83840FFF71BBB00BFAFF300809D
:1018600010B52023044683F3118803684168C360E0
:10187000C91AA360891000F11C00FFF711FB04F1E5
:1018800010000021FFF70CFBFFF702F9002383F3A0
:10189000118810BDAFF30080AFF30080AFF300807C
:1018A00070B504460E4600F11C001146FFF750FBD0
:1018B000054678B9A368626843F8046B9342A36055
:1018C00028BF236804F1100028BFA360FFF788FB3E
:1018D000FFF7DEF8284670BDAFF30080AFF300805D
:1018E00008B5202383F31188FFF7DAFF002383F381
:1018F000118808BDAFF30080AFF30080AFF3008024
:10190000426A002A10B50FDD83684468013A4262DA
:1019100043F8041BA342836024BF03688360103034
:10192000FFF75EFB002010BD4FF0FF3010BD00BF81
:1019300070B504460E4600F11C001146FFF708FB87
:10194000054660B9E3682268043B9342E36008D32C
:1019500004F110001E60FFF743FBFFF799F82846DB
:1019600070BD6368043BE360F2E700BFAFF3008043
:1019700008B5202383F31188FFF7DAFF002383F3F0
:10198000118808BDAFF30080AFF30080AFF3008093
:10199000426A002A10B510DDC3680468043B013AAE
:1019A000A3424262C36002D24368043BC36010306A
:1019B0001960FFF715FB002010BD4FF0FF3010BD80
:1019C00070B504460E4600F110001146FFF7C0FA4C
:1019D000054680B9E368626853F8041B934231609E
:1019E000E36028BF236804F11C0028BFE360FFF711
:1019F000F7FAFFF74DF8284670BD00BFAFF300803F
:101A000008B5202383F31188FFF7DAFF002383F35F
:101A1000118808BDAFF30080AFF30080AFF3008002
:101A20008269002A10B510DDC3684468013A8261FA
:101A300053F8042BA3420A60C36024BF0368C36049
:101A40001C30FFF7CDFA002010BD4FF0FF3010BD65
:101A500010B4024659B1084B9B69586244680D2086
:101A600083E814005360236010BCFEF781BF4FF081
:101A7000FF3010BC704700BF000A0020AFF30080A9
:101A800010B4C361019B40608A1800240060846028
:101A900041618161C1600261036210BC704700BF97
:101AA00038B50446C36800686361A3610023A0429F
:101AB000A3600AD06FF00105036823605C60FEF745
:101AC0002FFF45622068A042F6D138BDAFF30080F9
:101AD000426908B5034680698242986818D001308F
:101AE000986002F8011B19695A618A4228BFDA68B6
:101AF000186828BF5A61984208D002681A6053607B
:101B0000FEF70EFF00234362184608BD002008BD03
:101B10000028E4D06FF0030008BD00BFAFF30080E1
:101B200070B5202304460E4683F31188C36903B1C0
:101B30009847A568204631463DB9FFF789FF002840
:101B4000F7DA2B4683F3118870BDA3692269013D42
:101B5000A56013F8010B9342A36124BFE368A3615E
:101B6000002383F3118870BDAFF30080AFF30080D2
:101B70002DE9F0471E460446C769202383F31188E8
:101B80004FF0000801F1010901EB020A0FB12046F4
:101B9000B847A568204631464DB9FFF759FF0028E0
:101BA000F7D02B4683F311884046BDE8F087A36940
:101BB000013DA56013F8012B09F8012C2269A361EE
:101BC000934224BFE368A361002383F31188D145C6
:101BD00008F10108E8D0202383F3118809F10109F5
:101BE000D4E700BFAFF30080AFF30080AFF3008015
:101BF00010B4C361019B40608C1800608260416139
:101C00008161C1600461036210BC7047AFF3008062
:101C100038B50269C368044600686361D21AA042FD
:101C2000A361A2600AD06FF00105036823605C60C5
:101C3000FEF776FE45622068A042F6D138BD00BFAF
:101C4000F8B504460F461646202383F31188A5688D
:101C5000204631463DB9FFF7FBFE0028F7DA2B4658
:101C600083F31188F8BD6369013DA56003F8017B2A
:101C700022696361934224BFE3686361E3690BB146
:101C800020469847002383F311881846F8BD00BF0B
:101C900041698269914210B50346816816D00131CD
:101CA000996012F8014B19699A618A4228BFDA6873
:101CB000186828BF9A61984206D002681A6053607B
:101CC000FEF72EFE00234362204610BD0029E6D019
:101CD0006FF0020010BD00BFAFF30080AFF30080D3
:101CE0002DE9F0479A46044688461646D0F81C90DF
:101CF000202383F311880027A56820466B1EEDB1D1
:101D0000A36018F8013B656905F8013B236965612B
:101D10009D4224BFE3686361B9F1000F00D0C8475A
:101D2000002383F311880137013E10D0202383F371
:101D30001188A56820466B1E002DE1D12046514632
:101D4000FFF786FE0028D7D02B4683F3118838464C
:101D5000BDE8F087AFF30080AFF30080AFF3008001
:101D600040F6202240F61C234CF200010648C2F245
:101D70000002C2F20003C2F2010120F0070021F0CC
:101D80000701106019607047E7860020AFF30080FC
:101D9000202383F31188094B09491A680968073021
:101DA00020F00700891A88429ABF10181860002294
:101DB000002383F311881046704700BF200A0020DB
:101DC0001C0A0020AFF30080AFF30080AFF3008067
:101DD00040F61C2240F62023C2F20002C2F20003A9
:101DE00010681B68C01A7047AFF30080AFF3008023
:101DF00040F62823C2F2000341F691510022C0F6BA
:101E0000000103F1100019609A60DA60FFF748B929
:101E1000002303608160C360083A10300B604A60A1
:101E2000FFF73EB9AFF30080AFF30080AFF300805F
:101E3000F8B5204E002818BF0646073106F11000FD
:101E400021F0070506F10804FFF79AF900E01C46A7
:101E50002368FBB15A689542F9D805F1080191420F
:101E600015D84FF6F870CFF6FF70401B03EB010E4C
:101E700082181868CEF8042058505D60C4F800E05D
:101E80001C4644F8086BFFF7A3F92046F8BD1A6812
:101E90002260F5E7FFF79CF933684BB105F10800C4
:101EA000984728B100F10804066045602046F8BD57
:101EB0000024EAE7280A0020AFF30080AFF3008097
:101EC00070B50646A0F1080450F8080C00F10805AA
:101ED0001030FFF755F92B46AB421A6801D0A342E8
:101EE00002D21AB1944201D31346F5E756F8041C06
:101EF00046F8082C1C6001F1080256F8085CA0188E
:101F0000A84209D05A6802F1080159188C4211D030
:101F1000BDE87040FFF75CB94068A2580918083165
:101F200046F8041C46F8082C5A6802F108015918B2
:101F30008C42EDD156F8040C56F8081C12180832E1
:101F400083E80600E4E700BFAFF30080AFF3008052
:101F500038B50E4C002818BF044604F110000D4699
:101F6000FFF70EF9A3686BB10022144658681B688E
:101F700012180134002BF9D105B12A60FFF728F9B6
:101F8000204638BD1A461C46F6E700BF280A002046
:101F90000023036041608260704700BFAFF30080A0
:101FA00010B462B1202383F31188046800230C600D
:101FB000016083F311884368013A1944F2D110BCDF
:101FC000704700BFAFF30080AFF30080AFF3008035
:101FD00008B50246202383F31188006828B10368FE
:101FE0001360002383F3118808BD9368002BF8D099
:101FF00050689847F5E700BFAFF30080AFF300806B
:10200000202383F31188026800230A60016083F3B0
:1020100011887047AFF30080AFF30080AFF300800A
:1020200041F24003C2F2000301221A60704700BF70
:1020300038B5084D4C24286803682D219B689847C3
:10204000013CF8D1034B04491868036802221B685D
:10205000984738BD741000200C390108AFF3008098
:1020600070B584B0002826D00DF101054CF6CD46A0
:102070002B46CCF6CC46A6FB0012D20802EB82011E
:10208000A0EB41013031C9B21C4603F8011C1046D7
:102090000133002AEFD16B469C420AD9094E02E077
:1020A00014F8021C013C306803689B689847AC42F6
:1020B000F6D104B070BD034B1868036830219B68EB
:1020C0009847F6E774100020AFF30080AFF300806C
:1020D00038B5017849B1054D0446286803689B6806
:1020E000984714F8011F0029F7D138BD741000205B
:1020F00038B50178084D41B10446286803689B68EB
:10210000984714F8011F0029F7D12868034903688C
:1021100002221B68984738BD741000200C39010852
:10212000202383F3118841F24402C2F2000200230B
:10213000116801F8010B116083F31188704700BF2B
:1021400041B9054A01231360044A1360044A106030
:1021500018467047002070473C10002048100020AF
:1021600038100020AFF30080AFF30080AFF30080A1
:10217000F0B40F4E0F4F35683B4604E011F8014BA9
:102180001278A24209D19D421A4603F10103F5D803
:102190000B7813B93760184607E0074A012313602C
:1021A000064A1360064A10601846F0BC704700BF2C
:1021B00044100020781000203C100020481000201F
:1021C00038100020AFF30080AFF30080AFF3008041
:1021D00010B5044608461146FEF742FB40B9054AD1
:1021E00001231360044A1360044A1846146010BDAA
:1021F000002010BD3C1000204810002038100020A6
:1022000038B5064C04F1140554F8043F18460BB1D8
:10221000FEF7FEFCAC42F7D138BD00BF5C100020D9
:1022200070B5074C002604F1140554F8043B184619
:102230001BB1FEF765FD44F8046CAC42F5D170BDEE
:1022400060100020AFF30080AFF30080AFF3008098
:10225000154B30B49C694FF47A7303FB00F0226A8B
:1022600044F6D353A0F57A71C1F26203501CA3FB6C
:10227000015300EB93118A42236A0AD28B422CBF8E
:1022800000200120934238BF00200028F3D130BC49
:102290007047934234BF002001208B4238BF40F08A
:1022A00001000028E7D1F2E7000A0020AFF3008028
:1022B00008B50120FEF7BCFC40F6F013C2F20003A3
:1022C000D86808BDAFF30080AFF30080AFF30080A3
:1022D00041F24003C2F2000310B500241C60202329
:1022E00083F311884FF47A7303FB00F044F6D35361
:1022F000A0F57A70C1F26203A3FB0023990941F2B1
:102300004C0042F221022346C2F200000131C0F625
:102310000002FEF76DFA234683F3118810BD00BF5B
:102320002DE9F04F994C9A4D206083B09948FFF702
:10233000DFFE9948FFF7DCFE9848FFF7D9FE2A2117
:10234000206803689B68984715F8011F0029F7D19A
:102350009348944DFFF7CCFE2A21206803689B68C0
:10236000984715F8011F0029F7D18F488F4DFFF7C7
:10237000BFFE2A21206803689B68984715F8011F53
:102380000029F7D18A488B4DFFF7B2FE2A21206839
:1023900003689B68984715F8011F0029F7D1864804
:1023A000864DFFF7A5FE2A21206803689B689847A1
:1023B00015F8011F0029F7D18148824DFFF798FEDB
:1023C0002A21206803689B68984715F8011F002997
:1023D000F7D17D487D4DFFF78BFE2A2120680368E9
:1023E0009B68984715F8011F0029F7D17848794D67
:1023F000FFF77EFE2A21206803689B68984715F83E
:10240000011F0029F7D1744A744800910192FFF727
:102410006FFE6048724EDFF80092724FFFF768FE61
:1024200041F248030099C2F200038A4619600AF19A
:10243000010A4FF0000857F8043B002B00F085809C
:10244000694DFFF7F5FD2D21206803689B689847CB
:1024500015F8011F0029F7D15046FFF701FE4B4B3D
:10246000624D186803682E219B6808F1010898479F
:102470004046FFF7F5FD2021206803689B689847D8
:1024800015F8011F0029F7D157F8043C1D68297879
:1024900039B1206803689B68984715F8011F002927
:1024A000F7D15348534DFFF723FEC820FEF7C0FB7A
:1024B000514A57F804BCC6F80090002313605360DB
:1024C0009360D3601361DBF804202B6002B1904766
:1024D000DBF80C309847DBF8083003B19847FFF77A
:1024E0009FFE2B68002B00F0A180444D2D21206819
:1024F00003689B68984715F8011F0029F7D1404BE6
:10250000404D1868FFF7ACFD2021206803689B68E8
:10251000984715F8011F0029F7D133684B4588BF4C
:10252000394D0AD9206815F8011C03689B68984743
:1025300033682A4601359A42F4D33448FFF7D8FD70
:1025400057F8043B002B7FF47BAF019A52F8047FCD
:102550000192002F7FF46BAFFFF76AFD2C4D0D4801
:10256000FFF7C6FD4621206803689B68984715F869
:10257000011F0029F7D141F24802C2F2000213689C
:10258000002B57D12348FFF7B3FD47E0741000201C
:1025900080230108C8390108602301087C23010851
:1025A000E0230108F0230108042401081C24010889
:1025B000302401083C240108502401085C2401084F
:1025C000702401087C24010890240108A824010833
:1025D000BC240108D824010820250108EC240108A6
:1025E00044100020902501089423010800250108CB
:1025F000A42301083C10002060100020A82301083B
:10260000381000200425010879100020C02301089B
:1026100008250108D02301087810002041F2480362
:10262000C2F20003186803B0BDE8F08F0348FFF75B
:102630005FFD00E70248FFF75BFDEFE7C4230108F9
:10264000D8230108AFF30080AFF30080AFF3008020
:10265000F8B54D4EB3699C68651C2846FEF7B0FA84
:10266000021B5142514107460120FFF769FD00B1AD
:10267000F8BDB369996802206B1A59425941FFF7B6
:102680005FFD0028F4D13846FEF79AFAB5EB000C4E
:10269000DCF1000151EB0C010320FFF751FD002894
:1026A000E6D1B36999680420B1EB040EDEF10001B4
:1026B00051EB0E01FFF744FD0028D9D1202383F30D
:1026C0001188B3699A6802329A60034683F31188CD
:1026D000B3699968A71C0520CA1B51425141FFF7F5
:1026E0002FFD0028C4D12846FEF76AFA031B594281
:1026F00059410620FFF724FD0028B9D1B369996834
:102700000720B7EB010CDCF1000151EB0C01FFF7E6
:1027100017FD0028ACD1B369196C0820B5EB010E88
:10272000DEF1000151EB0E01FFF70AFD00289FD1F9
:10273000E71C3846FEF744FA281A41424141092075
:10274000FFF7FEFC002893D1B36999680A207A1A32
:1027500051425141FFF7F4FC002889D1B369196C4B
:102760000B207B1A59425941FFF7EAFC00287FF4FD
:102770007FAF202383F31188B26903469460146409
:1027800083F3118874E700BF000A0020AFF30080D4
:10279000F0B540F60027C2F2000742F24036BB69AE
:1027A00083B0C0F601069A68706842F6711543F668
:1027B0009461C0F60005C0F60101043A2B46009171
:1027C0004FF49871FEF7E4F941F26004BB69316897
:1027D0009A68C2F20004053A606042F2C050C0F646
:1027E00001002B46009008464FF49871FEF7D0F98F
:1027F000BB6931699A68206042F2B050C0F60100AE
:10280000013A2B46009008464FF49871FEF7C0F944
:10281000BB69F1689A68206142F2B450C0F60100C9
:102820002B460090023A08464FF49871FEF7B0F933
:102830002023E06083F31188BB69B0689A6842F294
:10284000B851C0F601012B460091033A4FF498713C
:10285000FEF766F9A060002383F31188A068FEF7F5
:10286000C7F9FFF7DDFC42F2BC510120C0F60101BF
:1028700003B0BDE8F040FFF77BBC00BFAFF30080C2
:102880002DE9F04140F60028C2F2000842F240363D
:10289000D8F8183082B0C0F601069A68306842F65F
:1028A000711542F2C054C0F60005C0F60104053AA5
:1028B0002B4600944FF49871FEF76AF941F26004D8
:1028C000C2F20004D8F8183077689A68206043F69E
:1028D0009460C0F60100043A2B4600904FF49871C2
:1028E0003846FEF755F9D8F81830B7689A6860602E
:1028F00042F2B850C0F60100033A2B4600904FF464
:1029000098713846FEF744F9D8F81830F7689A6895
:10291000A06042F2B450C0F60100023A2B4600908B
:102920004FF498713846FEF733F9D8F81830366905
:102930009A68E06042F2B050C0F601004FF498711E
:10294000013A2B4600903046FEF722F92061FFF74E
:1029500067FC42F2BC510120C0F6010102B0BDE8A3
:10296000F041FFF705BC00BFAFF30080AFF300807C
:1029700008B50078FFF7D4FB002008BDAFF3008056
:1029800038B51C4DFFF794FCEC686420FEF750F955
:10299000012004F1640104F16502FFF719FC00B1A4
:1029A00038BDEC686420FEF743F9022004F16401AD
:1029B00004F16502FFF70CFC0028F1D1EC684FF43C
:1029C0007A70FEF735F9032004F57A7104F2E932E2
:1029D000FFF7FEFB0028E3D1EC6804F1640528460C
:1029E000FEF736F90420294604F16502BDE83840B7
:1029F000FFF7EEBBF0090020AFF30080AFF30080DB
:102A000040F60400C2F200000021FEF741BA00BF08
:102A100040F60400C2F200000021FEF739BA00BF00
:102A200040F60400C2F200000021FEF731BA00BFF8
:102A300000B587B0002103A8FEF72AFA002103A8F9
:102A4000FEF746FA059901200029CCBF002101219B
:102A5000FFF776FB08B107B000BD2F4B2F489B69ED
:102A600000689A682E4B03A9013A00914FF49871BF
:102A7000FEF78EF82B4B186003A8FEF759FA05995C
:102A800002200029CCBF00210121FFF759FB0028BB
:102A9000E1D1202383F31188059B002B34DDFDF762
:102AA000F7FF002383F31188059903209942D4BFCF
:102AB00000210121FFF744FB0028CCD10599042017
:102AC0004A1E51425141FFF73BFB0028C3D120234E
:102AD00083F31188059B002B1ADDFDF7D9FF002336
:102AE00083F31188059903209942D4BF0021012165
:102AF000FFF726FB0028AED1059905204B1E594251
:102B00005941FFF71DFBA6E703A8FEF769FAC6E7E0
:102B100003A8FEF765FAE0E7000A00204023010859
:102B2000312B000860100020AFF30080AFF300806D
:102B300008B5202383F311888368002B06DDFDF799
:102B4000A7FF002383F31188184608BDFEF748FA53
:102B5000F5E700BFAFF30080AFF30080AFF3008074
:102B600010B540F60404C2F200042046FEF7E0F976
:102B70002046FEF71DFA002010BD00BFAFF3008015
:102B800010B5044640F60400C2F20000FEF7D0F98A
:102B90002078FFF7C5FA002010BD00BFAFF300801A
:102BA00008B53220FEF744F8202383F3118840F65D
:102BB0000400C2F20000FEF713FAFDF769FF0023DC
:102BC00083F31188184608BDAFF30080AFF300808F
:102BD0002DE9F043DFF84081454CD8F818302668DD
:102BE0009A68444F444B454D85B04FF49871053277
:102BF00000973046FDF7CCFFD8F818309A68636824
:102C000028603F4803934FF4987101323A4B00908B
:102C10000398FDF7BDFFA268D8F8183003929A68B0
:102C200068603848344B00904FF498710332039831
:102C3000FDF7AEFFE268D8F8183003929A68A860F2
:102C400031482D4B00904FF4987104320398FDF7F2
:102C50009FFFD8F8183024699A68E8602B48264B03
:102C600000904FF4987102322046FDF791FF284CF6
:102C700028612046FEF79CF92046FEF799F9204688
:102C8000FEF796F92046FEF793F92046FEF790F9F5
:102C9000FFF7C6FA01201F49FFF76AFA814610B113
:102CA00005B0BDE8F083D8F81820134B9268009760
:102CB00030464FF498710532FDF76AFF20232860F3
:102CC00083F3118802212046FEF79AF94B4683F3DD
:102CD0001188FFF7A5FAA1680220B1F1010EDEF11B
:102CE000000151EB0E0105B0BDE8F043FFF728BA33
:102CF00040230108B0250108812B00086010002046
:102D0000B4250108B8250108943E0108C025010832
:102D100004080020BC250108000A0020AFF3008051
:102D200010B5224B224C9B6982B000209A6800901B
:102D30002048214B006801324FF49871FDF728FFBD
:102D40001E4B214618602046FEF772F921680120CB
:102D50000B1B59425941FFF7F3F908B102B010BDFE
:102D6000A1680220D1F1010138BF0021FFF7E8F985
:102D70000028F3D121462046FEF75AF921680320A6
:102D8000B1EB040CDCF1000151EB0C01FFF7D8F9B9
:102D90000028E3D1A1680420D1F1010138BF00214E
:102DA00002B0BDE81040FFF7CBB900BF000A002019
:102DB0000408002040230108612B00086010002057
:102DC00070B54C4C002182B02046FEF7E1F8B0F11E
:102DD000FF33594259410120FFF7B2F908B102B05F
:102DE00070BD21680220B1EB040CDCF1000151EB55
:102DF0000C01FFF7A5F90028F1D1A1680320D1F15A
:102E0000010138BF0021FFF79BF90028E7D13A4BB9
:102E10009B699A6800903948394B0068013A4FF431
:102E20009871FDF7B5FE374B4FF4FA7118602046E4
:102E3000FEF7AEF80546FFF7F3F90420D5F10101DE
:102E400038BF0021FFF77CF90028C8D12168052090
:102E5000B1EB040EDEF1000151EB0E01FFF770F94A
:102E60000028BCD1A1680620D1F1010138BF0021A2
:102E7000FFF766F90028B2D1FFF71AFA224BDE6895
:102E800041252846FFF74CF94FF4FA711948FEF72F
:102E90007FF8B0F1FF30414241410720FFF750F980
:102EA00000289CD1216808200A1B51425141FFF79C
:102EB00047F9002893D1A1680920D1F1010138BF59
:102EC0000021FFF73DF90135EDB2002887D1462DED
:102ED000D7D10A200D49FFF74BF900287FF47FAFC7
:102EE0000B2006F6C41106F6C91202B0BDE8704008
:102EF000FFF76EB904080020000A002040230108F3
:102F0000A12B000860100020F0090020BC2501085A
:102F1000F0B540F60023C2F2000342F240359B694F
:102F200083B09E68C0F6010542F2B054C0F60104B9
:102F300043F23103721C009428684FF49871C0F674
:102F40000003FDF725FE41F26004C2F200046F6841
:102F5000206042F2B850C0F6010043F20103B21CF7
:102F600000904FF49871C0F600033846FDF710FE4C
:102F7000AD68606042F2B450C0F6010042F6C17321
:102F80004FF49871F21CC0F6000300902846FDF73C
:102F9000FFFD40F63005C2F20005A0602846FEF7AE
:102FA0009FF92846FEF79CF9FFF73AF942F2407183
:102FB0000120C0F6010103B0BDE8F040FFF7D8B82A
:102FC00010B5044640F62000C2F20000FEF7D8F823
:102FD0002078FFF7A5F8FEF7FBF8002010BD00BF32
:102FE00010B5044640F61000C2F20000FEF7C8F823
:102FF0002078FFF795F8FEF7EBF8002010BD00BF32
:1030000010B5044640F61000C2F20000FEF7B8F812
:1030100040F63000C2F20000FEF7DAF92078FFF740
:103020007FF8FEF7D5F8002010BD00BFAFF3008099
:1030300010B5044640F62000C2F20000FEF7A0F8EA
:1030400040F61000C2F20000FEF79AF840F6300099
:103050004FF0FF31C2F20000FEF7F2F92078FFF7DF
:103060005FF8FEF7B5F8FEF7B3F8002010BD00BF1B
:1030700040F6300008B5C2F20000FEF729F940F62C
:103080001000C2F20000FEF70BF840F62000C2F27A
:103090000000BDE80840FEF703B800BFAFF30080B2
:1030A00008B540F63000C2F20000FEF711F940F614
:1030B0001000C2F20000BDE80840FDF7F1BF00BFFC
:1030C00008B540F63000C2F20000FEF701F940F604
:1030D0001000C2F20000BDE80840FDF7E1BF00BFEC
:1030E00040F61000C2F20000FDF7DABFAFF3008037
:1030F00008B540F61000C2F20000FDF7D1FF40F61F
:103100002000C2F20000BDE80840FDF7C9BF00BFC3
:1031100008B540F61000C2F20000FDF7C1FF40F60E
:103120002000C2F20000BDE80840FDF7B9BF00BFB3
:1031300040F61000C2F20000FDF7B2BFAFF300800E
:1031400040F61000C2F20000FDF7AABFAFF3008006
:10315000F0B540F60023C2F2000342F240369B690C
:1031600083B09F68C0F6010643F2010542F2C054E5
:10317000C0F60005C0F601047A1C2B4600943068A6
:103180004FF49871FDF704FD41F26004C2F20004AF
:10319000BA1C206043F69460C0F601002B460090F4
:1031A0004FF498717068FDF7F3FC606042F2B8501C
:1031B000C0F60100FA1C2B4600904FF49871B068DD
:1031C000FDF7E6FCA06042F2B450C0F601003A1DE3
:1031D0002B4600904FF49871F068FDF7D9FC3669E2
:1031E000E06042F2B050C0F601004FF498717A1DD1
:1031F0002B4600903046FDF7CBFC206140F63000B6
:10320000C2F20000FEF7ACF8FFF70AF842F2BC5138
:103210000120C0F6010103B0BDE8F040FEF7A8BFF1
:10322000F0B540F60023C2F2000342F240369B693B
:1032300083B09F68C0F6010643F2010542F2C05117
:10324000C0F60005C0F601017A1C2B4600913068DB
:103250004FF49871FDF79CFC41F26004C2F2000447
:103260007168206043F69460C0F60100BA1C2B46DA
:10327000009008464FF49871FDF78AFCB1686060D1
:1032800042F2B850C0F60100FA1C2B4600900846E6
:103290004FF49871FDF77CFCF168A06042F2B450E5
:1032A000C0F601003A1D2B46009008464FF4987175
:1032B000FDF76EFC3269E06042F2B051C0F60101E8
:1032C0002B46009110464FF498717A1DFDF760FC73
:1032D0002023206183F3118840F63004C2F20004F9
:1032E0002046FEF715F82046FEF712F82046FEF7B6
:1032F0000FF82046FEF70CF82046FEF709F8FDF718
:10330000C7FB002383F31188FEF78AFF42F2BC510A
:103310000120C0F6010103B0BDE8F040FEF728BF70
:10332000F0B52C4F2C48BB692C4E9C682C4D85B0B9
:10333000FDF726FF2B4A30682B4B00924FF4987113
:10334000621CFDF725FC7368286028480393A21CC3
:103350004FF49871244B00900398FDF719FCB36863
:10336000686023480393E21C4FF498711E4B009051
:103370000398FDF70DFCF368A8601E480393221D17
:103380004FF49871184B00900398FDF701FC3669D3
:10339000E8601948144B00904FF49871621D304654
:1033A000FDF7F6FB2861FDF713FFFEF739FFBB6958
:1033B000996801200B1B59425941FEF7C1FE08B123
:1033C00005B0F0BD0D49022005B0BDE8F040FEF7A4
:1033D000CFBE00BF000A00201008002040230108D3
:1033E00060100020C0250108E12F0008943E01086C
:1033F000B8250108B4250108B0250108BC2501083D
:10340000F8B52E4D2E4CAB6920469E68FDF7C8FEE0
:1034100001460120FEF794FE00B1F8BD2046FDF7FD
:10342000BFFED0F1010138BF00210220FEF788FE67
:1034300007460028F1D1202383F31188FDF7F8FE19
:103440003B4683F3118821680320B1EB040CDCF1C7
:10345000000151EB0C01FEF773FE0028DDD1A168DD
:103460000420D1F1010138BF0021FEF769FE0028D8
:10347000D3D1AB6999680520B1EB060EDEF10001EE
:1034800051EB0E01FEF75CFE0028C6D12046FDF789
:1034900077FEFDF7F5FE216806200A1B51425141D7
:1034A000FEF74EFE0028B8D1A1680720D1F1010136
:1034B00038BF0021BDE8F840FEF742BE000A0020F8
:1034C00010080020AFF30080AFF30080AFF300805E
:1034D0002DE9F0468A4D8B4EAB6932689C688A4B69
:1034E0008A4F85B004F101090392894A039800923A
:1034F0004FF498714A46FDF74BFB76683860854873
:10350000854B009004F1020A4FF498715246304600
:10351000FDF73EFB78608148FDF732FEAB699968A4
:1035200001200A1B51425141FEF70AFE10B105B0BD
:10353000BDE8F0866420FDF77BFBAB69996802204B
:10354000B1EB090359425941FEF7FAFD0028EED1CB
:103550007348FDF715FEAB6999680320B1EB090CC0
:10356000DCF1000151EB0C01FEF7EAFD0028DED191
:103570006420FDF75DFBAB6999680420B1EB0A0E8E
:10358000DEF1000151EB0E01FEF7DAFD0028CED18D
:10359000FDF71EFEAB6999680520B1EB09025142A7
:1035A0005141FEF7CDFD0028C1D16420FDF740FB5D
:1035B000AB6999680620B1EB090359425941FEF7FE
:1035C000BFFD0028B3D1FDF75BFEAB69996807200A
:1035D000B1EB040CDCF1000151EB0C01FEF7B0FD86
:1035E0000028A4D1FEF71CFE4E4A474B00924FF430
:1035F00098714A460398FDF7CBFA38604A48464B23
:1036000000904FF4987152463046FDF7C1FA786049
:103610004248FDF7B5FDAB6999680820B1EB040E8F
:10362000DEF1000151EB0E01FEF78AFD00287FF468
:103630007EAF6420FDF7FCFAAB6999680920B1EB15
:10364000090251425141FEF77BFD00287FF46FAF24
:103650003348FDF795FDAB6999680A20B1EB090382
:1036600059425941FEF76CFD00287FF460AF642099
:10367000FDF7DEFAAB6999680B20B1EB0A0CDCF1BF
:10368000000151EB0C01FEF75BFD064600287FF4BC
:103690004EAF202383F31188FDF7CAFD334683F331
:1036A0001188AB6999680C20B1EB090EDEF10001BD
:1036B00051EB0E01FEF744FD00287FF438AF642083
:1036C000FDF7B6FAAB6999680D20B1EB09025142DA
:1036D0005141FEF735FD00287FF429AFFDF7D0FDFD
:1036E000AB6999680E200B1B59425941FEF728FD22
:1036F00000287FF41CAF05B0BDE8F046FEF790BD92
:10370000000A002040230108513700086010002003
:10371000B4250108B0250108313700082008002031
:1037200010080020943E0108B8250108AFF300807E
:1037300008B59620FDF77CFA40F61000C2F20000B2
:10374000FDF71EFDFDF744FD002008BDAFF300802E
:1037500008B53220FDF76CFA40F62000C2F20000F6
:10376000FDF70EFDFDF734FD002008BDAFF300802E
:103770002DE9F041304EDFF8E480304C84B0FEF7A4
:1037800097FDB3692E499A68CF682E4BD8F8000090
:1037900000254FF49871053A0095FDF7F9F9B369E2
:1037A000D8F8042003929A6820604FF49871043A84
:1037B000254B00950398FDF7EBF9B369D8F808207D
:1037C00003929A6860604FF49871033A1F4B00951A
:1037D0000398FDF7DDF9B369D8F80C2003929A68D5
:1037E000A0604FF49871023A194B00950398FDF7C9
:1037F000CFF9B369D8F810609A68E0604FF4987117
:10380000013A144B00953046FDF7C2F92061FEF7EE
:1038100007FD01201049FEF7ABFC10B104B0BDE874
:10382000F081022007F16E0107F1730204B0BDE8D8
:10383000F041FEF7CDBC00BF000A00206010002060
:10384000F0090020E13900089139000861390008C9
:103850004139000811390008BC250108402301083E
:103860002DE9F041224EDFF8A480224C84B0FEF70F
:103870001FFDB36920499A68CF68204BD8F8000033
:1038800000254FF49871013A0095FDF781F9B3696D
:10389000D8F8042003929A6820604FF49871023A95
:1038A000174B00950398FDF773F9B369D8F80860D2
:1038B0009A6860604FF49871033A124B0095304655
:1038C000FDF766F9A060FEF7ABFC01200E49FEF79C
:1038D0004FFC10B104B0BDE8F081022007F1640193
:1038E00007F1690204B0BDE8F041FEF771BC00BF0A
:1038F000000A002060100020F0090020613A000852
:10390000413A0008113A0008402701084023010805
:1039100008B53220FDF78CF940F62000C2F2000015
:10392000FDF72EFC0A20FEF793FCFDF751FC412029
:10393000FEF7F6FB002008BDAFF30080AFF3008078
:1039400008B52820FDF774F91420FEF781FC422009
:10395000FEF7E6FB002008BDAFF30080AFF3008068
:1039600008B51420FDF764F940F62000C2F200000B
:10397000FDF706FC0A20FEF76BFCFDF729FC43204F
:10398000FEF7CEFB002008BDAFF30080AFF3008050
:1039900008B50A20FDF74CF940F62000C2F20000FD
:1039A000FDF7EEFB1420FEF753FC40F61000C2F2C8
:1039B0000000FDF7E5FB0A20FEF74AFCFDF708FCD6
:1039C0000A20FEF745FCFDF703FC4420FEF7A8FBA8
:1039D000002008BDAFF30080AFF30080AFF300809C
:1039E00040F6100008B5C2F20000FDF7C9FB1E202A
:1039F000FEF72EFCFDF7ECFB4520FEF791FB0020C7
:103A000008BD00BFAFF30080AFF30080AFF30080CC
:103A100040F6100008B5C2F20000FDF7B1FB282007
:103A2000FEF716FCFDF7D4FB0A20FEF711FC43203D
:103A3000FEF776FB002008BDAFF30080AFF30080F7
:103A400008B51420FDF7F4F82820FEF701FC422009
:103A5000FEF766FB002008BDAFF30080AFF30080E7
:103A600008B52820FDF7E4F840F61000C2F2000087
:103A7000FDF786FB0A20FEF7EBFBFDF7A9FB4120D3
:103A8000FEF74EFB002008BDAFF30080AFF30080CF
:103A900010B540F60022C2F2000242F240339169B2
:103AA000C0F6010382B08A681868009143F621339A
:103AB00001324FF49871C0F60003FDF769F841F246
:103AC0006003C2F200031860FDF782FE446B2146DA
:103AD000FDF79EFEE0B2FEF723FBFDF779FE446B97
:103AE0002146FDF795FEE0B2FEF71AFBFDF770FEEA
:103AF000446B2146FDF78CFEE0B2FEF711FB42F26B
:103B000040710120C0F6010102B0BDE81040FEF78F
:103B10002FBB00BFAFF30080AFF30080AFF3008096
:103B200010B541210446FDF733FE42212046FDF742
:103B30002FFE20464321FDF72BFE002010BD00BFC5
:103B4000F0B5B44E716A01204B1F594283B0594100
:103B5000FEF7F6FA00BB4224AE4D214628464FF050
:103B6000FF32FDF7BDFED0F1010138BF0021022078
:103B70000134FEF7E5FA78B9462CEDD1412128460B
:103B80004FF0FF32FDF7F4FED0F1010138BF002104
:103B90000320FEF7D5FA08B103B0F0BD5821012289
:103BA0002846FDF79DFEB0F1FF3CDCF1000151EB32
:103BB0000C010420FEF7C4FA04460028ECD12023AF
:103BC00083F3118858212846FDF79AFE23460146C3
:103BD00083F311880520B1F1FF3EDEF1000151EBC6
:103BE0000E01FEF7ADFA0028D6D158210122284651
:103BF000FDF7BEFEB0F1FF32514251410620FEF703
:103C00009FFA04460028C7D1202383F31188582146
:103C10002846FDF7BDFE2346014683F311880720A1
:103C2000B1F1FF3359425941FEF78AFA074600289D
:103C3000B2D1202383F31188696A0820D1F10101F0
:103C400038BF0021FEF77CFA044618B13B4683F3E7
:103C50001188A1E7034683F31188202383F3118899
:103C6000A9690920B1F1050CDCF1000151EB0C014F
:103C7000FEF766FA034618B1234683F311888BE7F3
:103C800083F31188202383F31188E968AB680A2045
:103C9000B1EB030EDEF1000151EB0E01FEF750FA1D
:103CA000002383F3118800287FF476AF052505E013
:103CB0009DF80400FEF734FA013D10D0554C01A9DF
:103CC0004FF0FF322046FDF79BFED0F1010138BFD7
:103CD00000210B20FEF734FA0028E9D05CE70C2025
:103CE0004D49FEF745FA00287FF456AF472120469C
:103CF0004FF0FF32FDF7F4FDD0F1010138BF002194
:103D00000D20FEF71DFA00287FF446AF01A92046DA
:103D10004FF0FF32FDF774FED0F1010138BF0021F2
:103D20000E20FEF70DFA00287FF436AF2168A36855
:103D30000F20CA1A51425141FEF702FA00287FF4BF
:103D40002BAF2168E3681020CB1A59425941FEF786
:103D5000F7F900287FF420AF01A901222046FDF7E2
:103D60004FFEB0F1FF3CDCF1000151EB0C011120E2
:103D7000FEF7E6F900287FF40FAF202383F31188C4
:103D800001A92046FDF74CFE2B46014683F311881E
:103D90001220B1F1FF3EDEF1000151EB0E01FEF702
:103DA000CFF900287FF4F8AE202383F31188616AED
:103DB00013204A1F51425141FEF7C2F9002383F3F9
:103DC000118800287FF4E8AE202383F31188B169BD
:103DD000104C1420D1F1010138BF0021FEF7B0F9D9
:103DE000054618B1002383F31188D5E6034683F313
:103DF0001188202383F31188E168A3681520CB1A6A
:103E000059425941FEF79CF9034638B12B4683F3DA
:103E10001188C1E638080020BC25010883F3118809
:103E2000202383F3118841212046FDF769FDD0F15D
:103E3000010138BF00211620FEF782F900287FF427
:103E4000ABAE42212046FDF75BFDD0F1010138BF4A
:103E500000211720FEF774F900287FF49DAE43215E
:103E60002046FDF74DFDD0F1010138BF002118209B
:103E7000FEF766F900287FF48FAE44212046FDF757
:103E80003FFDD0F1010138BF00211920FEF758F99C
:103E9000054600287FF480AE45212046FDF730FD21
:103EA0002B46014683F311881A20D1F1010138BF56
:103EB0000021FEF745F900287FF46EAEE168A368A3
:103EC0001B20B1EB030CDCF1000151EB0C01FEF700
:103ED00037F900287FF460AE0525202383F311888D
:103EE000A04C01A92046FDF79BFD0023014683F36A
:103EF00011881C20B1EB030EDEF1000151EB0E0125
:103F0000FEF71EF900287FF447AE9DF80400FEF787
:103F100007F9013DE1D11D209349FEF729F9002859
:103F20007FF43AAE202383F31188616A1E204A1F72
:103F300051425141FEF704F92B4683F311880028C2
:103F40007FF42AAE202383F31188A1691F20D1F1C9
:103F5000010138BF0021FEF7F3F82B4683F31188E7
:103F600000287FF419AEE168A3682020CB1A5942DB
:103F70005941FEF7E5F800287FF40EAE202383F3C5
:103F8000118845212046FDF703FDD0F1010138BF1E
:103F900000212120FEF7D4F800287FF4FDAD442154
:103FA0002046FDF7F5FCD0F1010138BF00212220A9
:103FB000FEF7C6F800287FF4EFAD43212046FDF759
:103FC000E7FCD0F1010138BF00212320FEF7B8F84B
:103FD00000287FF4E1AD42212046FDF7D9FCD0F165
:103FE000010138BF00212420FEF7AAF800287FF441
:103FF000D3AD5C4C41212046FDF7CAFC00230146AD
:1040000083F311882520B1EB030CDCF1000151EBA7
:104010000C01FEF795F800287FF4BEADE168A368B7
:104020002620B1EB030EDEF1000151EB0E01FEF78D
:1040300087F800287FF4B0AD0524202383F311888E
:10404000484D01A92846FDF7EBFC0023014683F308
:1040500011882720CA1A51425141FEF771F80028F1
:104060007FF49AAD9DF80400FEF75AF8013CE4D1C4
:1040700028203D49FEF77CF800287FF48DAD2023F1
:1040800083F31188696A29204B1F59425941FEF771
:1040900057F8234683F3118800287FF47DAD202351
:1040A00083F31188A9692A20D1F1010138BF0021C9
:1040B000FEF746F8234683F3118800287FF46CADA1
:1040C000E968AB682B20B1EB030CDCF1000151EB8C
:1040D0000C01FEF735F800287FF45EAD2846FDF7A9
:1040E000BFFB202383F31188696A2C20B1F1050EF0
:1040F000DEF1000151EB0E01FEF722F8234683F3B7
:10410000118800287FF448AD202383F31188A96922
:104110002D20D1F1010138BF0021FEF711F823460F
:1041200083F3118800287FF437AD202383F31188AF
:104130002968AB682E20CA1A51425141FEF700F897
:10414000234683F3118800287FF426AD202383F3D0
:1041500011882968EB682F20CB1A59425941FDF785
:10416000EFFF3FE638080020BC250108AFF30080D0
:1041700040F6380040F64821C2F20000C2F20001C9
:104180000522FDF755BB00BFAFF30080AFF3008001
:104190004FF0FF30FDF794B9AFF30080AFF300802C
:1041A0004FF0FF30FDF78CB9AFF30080AFF3008024
:1041B0004FF0FF30FDF784B9AFF30080AFF300801C
:1041C0002DE9F04205208CB0FDF792F94FF0FF3059
:1041D000FDF7FEF90138414241410120FDF7B0FFF2
:1041E00010B10CB0BDE8F0824FF0FF30FDF7F0F9F0
:1041F000021F514251410220FDF7A2FF0028F0D1D9
:104200004FF0FF30FDF75CF9D0F1010138BF00211C
:104210000320FDF795FF0028E3D1754D754F764ECD
:10422000FEF746F8754BA9691B688A6803930091ED
:10423000013A4FF49871724B0398FC68FCF7A8FCA4
:1042400030604FF0FF30FDF7C3F904F132018146D1
:1042500004F137020420FDF7BBFF0028C1D105207F
:10426000B9F1010359425941FDF76AFF0028B8D15D
:104270004FF0FF30FDF724F9D0F1010138BF0021E4
:104280000620FDF75DFF0028ABD1FDF7C9FF052033
:10429000FDF72EF94FF0FF30FDF7BAF9B0F1050C3C
:1042A000DCF1000151EB0C010720FDF749FF00286C
:1042B00097D14FF0FF30FDF703F9D0F1010138BF7E
:1042C00000210820FDF73CFF00288AD1FDF7F0FF10
:1042D000A9694B4B8A6803980091013A4FF4987191
:1042E000FC68FCF755FC30604FF0FF30FDF790F9AB
:1042F00004F13201814604F137020920FDF768FF1D
:1043000000287FF46EAF0A20B9F1010EDEF1000142
:1043100051EB0E01FDF714FF00287FF462AF4FF060
:10432000FF30FDF7CDF8D0F1010138BF00210B209F
:10433000FDF706FF00287FF454AFDFF8D490314C2E
:10434000FDF76EFF484604A90122C9F800902460D9
:10435000FDF786F808A904222046FDF781F8FDF74D
:10436000A7FFAB6928499A6803980091013A4FF476
:104370009871264BFD68FCF70BFC30600520FDF7BB
:1043800067F90C2005F1320105F13702FDF720FF36
:1043900000287FF426AF4FF0FF30FDF791F8D0F101
:1043A000010138BF00210D20FDF7CAFE00287FF46F
:1043B00018AFFDF735FF484604A9FDF769F8204618
:1043C00008A9FDF765F8D9F800100E20B1EB090235
:1043D00051425141FDF7B4FE00287FF402AF21683D
:1043E0000F200B1B59425941FDF7AAFEF9E600BF09
:1043F000000A0020F009002060100020402301087E
:104400005144000864080020B02501082144000838
:1044100060080020AFF30080AFF30080AFF30080AE
:1044200040F6600008B50021C2F20000FDF7A8F8D0
:104430003220FCF7FDFB40F66400C2F200000021D0
:10444000FDF79EF8002008BDAFF30080AFF30080B9
:1044500010B504463220FCF7EBFB20460121FDF7A6
:104460006FF8002010BD00BFAFF30080AFF30080F5
:1044700010B51E4C88B00122204669462460FCF726
:10448000EFFF204604A90222FCF7EAFF2168012081
:10449000091B18BF0121FDF753FE08B108B010BD7C
:1044A00020466946FCF7F4FF21680220091B18BF6B
:1044B0000121FDF745FE0028F0D1204604A9FCF7B4
:1044C000E7FF21680320B1EB040EDEF1000151EBA0
:1044D0000E01FDF735FE0028E0D107210448FDF765
:1044E0005FF804200349FDF743FED7E7600800208A
:1044F000A029010840270108AFF30080AFF3008036
:104500004320FDF70DBE00BFAFF30080AFF3008086
:104510004220FDF705BE00BFAFF30080AFF300807F
:104520004120FDF7FDBD00BFAFF30080AFF3008079
:1045300008B500214FF0FF30FDF7AAF8D0F10101D6
:1045400038BF00210120FDF7FBFD00B108BD014689
:104550004FF0FF30FDF7C4F8D0F1010138BF002162
:104560000220FDF7EDFD0028F0D101464FF0FF30AD
:10457000FDF7DEF8D0F1010138BF00210320FDF77F
:10458000DFFD0028E2D10A214FF0FF30FDF780F86F
:10459000D0F1010138BF00210420FDF7D1FD002832
:1045A000D4D10A214FF0FF30FDF79AF8D0F1010184
:1045B00038BF00210520FDF7C3FD0028C6D10A2120
:1045C0004FF0FF30FDF7B4F8D0F1010138BF002102
:1045D0000620BDE80840FDF7B3BD00BFAFF3008083
:1045E00070B582B0FDF7F4FB01A90020FDF7B0FC27
:1045F00010210020FDF71CFC011C18BF01210446FE
:104600000120FDF79DFD054608B102B070BD2046B2
:10461000FDF756FC6FF0FF012846FDF709FCD0F1CD
:10462000010138BF00210220FDF78AFD0028ECD1EE
:1046300001A97C48FDF78CFC10217A48FDF7F8FBB6
:10464000102105467748FDF7F3FB10210446754815
:10465000FDF7EEFB06462846FDF732FC2046FDF747
:104660002FFC3046FDF72CFC69466E48FDF770FCC8
:10467000B0F1010EDEF1000151EB0E010320FDF758
:104680005FFD0028C1D110216648FDF7D1FB102144
:1046900004466448FDF7CCFB102105466148FDF750
:1046A000C7FBFDF70DFC2846FDF70AFC2046FDF789
:1046B00007FC69465B48FDF74BFC0138414241412C
:1046C0000420FDF73DFD00289FD111215548FDF73D
:1046D000AFFB102104465348FDF7AAFB05462046D0
:1046E000FDF7EEFB69464F48FDF732FC821E514252
:1046F00051410520FDF724FD002886D110214948AD
:10470000FDF796FB694604464648FDF721FC012863
:1047100008BF014606D069464248FDF719FC831ED2
:10472000594259410620FDF70BFD00287FF46DAF7B
:104730002846FDF7C5FB2046FDF7C2FB6946394810
:10474000FDF706FCB0F1010CDCF1000151EB0C01AE
:104750000720FDF7F5FC00287FF457AF1021314802
:10476000FDF766FB102105462E48FDF761FB044668
:104770002846FDF7A5FB69462A48FDF7E9FBB0F19D
:10478000020EDEF1000151EB0E010820FDF7D8FC0E
:1047900000287FF43AAF20212248FDF749FBFDF7BE
:1047A0008FFB2046FDF78CFB69461E48FDF7D0FBCA
:1047B0000138414241410920FDF7C2FC00287FF445
:1047C00024AF69461748FDF7C3FB00991548FDF76C
:1047D0002FFB694604461348FDF7BAFBD0F10101EF
:1047E00038BF00210A20FDF7ABFC00287FF40DAF95
:1047F0002046FDF765FB69460A48FDF7A9FB421E06
:10480000514251410B20FDF79BFC00287FF4FDAE87
:104810009DE80A000C20CB1A59425941FDF790FC43
:10482000F3E600BF88100020AFF30080AFF30080F4
:1048300041F2880040F64821C2F20000C2F20001B5
:104840004FF4BE62FDF7E4BAAFF30080AFF300802F
:1048500000207047AFF30080AFF30080AFF300801B
:1048600040F66800C2F200004FF498710022FDF794
:104870008FBB00BFAFF30080AFF30080AFF30080C9
:104880002D4B2E4870B51D6805222946FDF788FB83
:1048900005242A48FDF79CFB011C18BF01210120BB
:1048A000FDF74EFC002835D1013CF2D12348FDF73D
:1048B0008FFBD0F1010138BF00210220FDF740FC41
:1048C00040BB1D4C1D4804F110062946FDF798FB1E
:1048D000B44207D054F8045F18482946FDF790FB0E
:1048E000B442F7D105241548FDF772FB011C18BF2F
:1048F00001210320FDF724FC60B9013CF3D10F48EE
:10490000FDF766FBD0F1010138BF00210420FDF75F
:1049100017FC00B170BD1021094A0848FDF738FBAB
:104920000648FDF755FBD0F1010138BF00210520F5
:10493000BDE87040FDF704BC402301086808002072
:1049400051480008AFF30080AFF30080AFF3008060
:1049500038B50546FCF774FA002403461846AB4206
:1049600008BF44F00104FCF77BFA03460028F5D1A8
:10497000204638BDAFF30080AFF30080AFF3008076
:1049800010B54A4B4A499B694A489A684A4B82B0DB
:10499000013A00914FF49871FCF70AFA044601209D
:1049A000A17FB1EB000CDCF1000151EB0C01FDF734
:1049B000C7FB08B102B010BD2046FCF7C1F9A17FCA
:1049C0000220B1EB000EDEF1000151EB0E01FDF70C
:1049D000B7FB0028EED12046FCF7C2F9A17F0320E7
:1049E0004A1E51425141FDF7ABFB0028E2D120465F
:1049F000FFF7AEFF01460420FDF7A2FB0028D9D146
:104A00002046FFF7A5FF01460520FDF799FB00288A
:104A1000D0D12046FCF7A4F9A17F0620D1F10101F5
:104A200038BF0021FDF78CFB0028C3D1217F072070
:104A3000D1F1010138BF0021FDF782FB0028B9D177
:104A40002046FFF785FF01460820FDF779FB002887
:104A5000B0D12046FFF77CFF01460920FDF770FB2F
:104A60000028A7D13220FCF7E3F8217F0A20B1F11A
:104A70000E0359425941FDF763FB00289AD12046A5
:104A8000FFF766FF01460B20FDF75AFB002891D186
:104A90002046FFF75DFFD0F1010138BF00210C2057
:104AA00002B0BDE81040FDF74BBB00BF000A00207C
:104AB000B0250108B8100020C14A0008AFF30080FB
:104AC00008B50078FDF72CFB002008BDAFF300808F
:104AD00041F2B80040F64821C2F20000C2F20001E3
:104AE0004FF4BE62FDF794B9AFF30080AFF30080DE
:104AF00041F2B80040F64821C2F20000C2F20001C3
:104B00004FF4BE62FDF784B9AFF30080AFF30080CD
:104B1000324B9B6970B5324C9D6804F1100654F815
:104B2000041F3048FDF76CFAB442F8D1691E2E4AD2
:104B30002E4B2C482E4CFCF75BF9A91E20602A4A0C
:104B40002C4B2848FCF754F9E91E6060264A2A4B92
:104B50002448FCF74DF9291FA060234A274B214820
:104B6000FCF746F9691FE0601F4A1E48244BFCF71A
:104B70003FF92168206149B1616839B1A16829B163
:104B8000E16819B1D0F1010138BF00210120FDF722
:104B9000D7FA00B170BDFDF743FB02201949FDF7BC
:104BA000E7FA0028F6D104240E48FDF711FA011C9B
:104BB00018BF01210320FDF7C3FA0028EAD1013C08
:104BC000F2D10848FDF704FAD0F1010138BF002105
:104BD0000420BDE87040FDF7B3BA00BF000A002012
:104BE0003C230108A8100020C14A0008B025010894
:104BF00060100020B4250108B8250108943E010882
:104C0000C0250108802A0108AFF30080AFF30080BF
:104C100041F2A800C2F200004FF498710022FDF7A3
:104C2000B7B900BFAFF30080AFF30080AFF30080EF
:104C300070B5334B33489B69334C9D6884B003A9EE
:104C4000FDF786F9314A324B00924FF498716A1E93
:104C50002C48FCF7ADF820602E482D4B0090AA1E82
:104C60004FF498712748FCF7A3F802A96060254823
:104C7000FDF76EF902992348FDF7DAF8264A244B2E
:104C800000924FF498710646EA1E1E48FCF790F811
:104C9000A0603046FDF714F9216829B1616819B1A7
:104CA000A168002923D000210120FDF749FA08B1AD
:104CB00004B070BDFDF7B4FA02201849FDF758FAA8
:104CC0000028F5D102A90F48FDF742F9421E5142D2
:104CD00051410320FDF734FA0028E9D10299039BE2
:104CE0000420CB1A59425941FDF72AFAE0E7E3685C
:104CF000002BD9D12169D1F1010138BF0021D3E7BF
:104D0000000A0020B810002060100020B025010823
:104D1000C14A0008B4250108B8250108882A0108FD
:104D2000704700BFAFF30080AFF30080AFF30080A7
:104D300040F6740008B50021C822C2F20000FCF75A
:104D40007FFF002008BD00BFAFF30080AFF30080FD
:104D500000B542F24033C0F6010383B01968002366
:104D6000009340F6740044F62153C2F2000004227E
:104D7000C0F60003FCF73CFF03B000BDAFF30080BA
:104D800040F6980008B5C821C2F20000FCF7C8FE42
:104D9000002008BDAFF30080AFF30080AFF30080C8
:104DA00000B542F24033C0F6010383B01968002316
:104DB000009340F6980044F62153C2F2000004220A
:104DC000C0F60003FCF75CFE03B000BDAFF300804B
:104DD0002DE9F041202382B083F31188904B59696B
:104DE0009A69914263D000210120FDF7A9F90028BA
:104DF0003AD1034683F311884124894D2146013479
:104E000028464FF0FF32E4B2FCF71AFF452CF4D1EC
:104E1000202383F31188A9680220D1F1010138BF52
:104E20000021FDF78DF9F8B9034683F311880424B6
:104E3000202383F311887A4D2846FCF729FF0023AD
:104E400083F31188C0B2FDF76BF9013CF0D1202348
:104E500083F311886A69AB699A4218BF21462BD047
:104E60000320FDF76DF928B1002383F3118802B008
:104E7000BDE8F081034683F3118804206949FDF7FA
:104E800077F904460028F2D1202383F31188644D7A
:104E90002846FCF7FDFE033014BF00210121052048
:104EA000FDF74EF968B1234683F31188DFE799686F
:104EB000003118BF012197E7A968003118BF01210F
:104EC000CEE7034683F31188574E746808222146C3
:104ED0002846FCF705FF031F594259410620FDF7FC
:104EE0002FF907460028C2D1202383F31188A9682F
:104EF0000720D1F1010138BF0021FDF721F98046DB
:104F000018B13B4683F31188B1E7034683F3118858
:104F1000464B30689A69464B9268CDF80080013262
:104F20004FF49871FBF734FE424A2023106083F35C
:104F300011882969EA68AB688A1AD11A0820B1F188
:104F4000040CDCF1000151EB0C01FDF7F9F8064609
:104F500018B1434683F3118889E7034683F3118828
:104F6000FDF75EF9202383F311882846FCF750FEF5
:104F7000334683F31188202383F311882969EA6873
:104F8000AB68891A0920B1EB030EDEF1000151EB89
:104F90000E01FDF7D5F8034618B1334683F31188A7
:104FA00065E783F31188022221462846FCF798FE24
:104FB0000238414241410A20FDF7C2F80346002869
:104FC0007FF455AF214602222846FCF789FE821E57
:104FD000514251410B20FDF7B3F800287FF447AF51
:104FE000202383F31188A9680C20D1F1010138BF77
:104FF0000021FDF7A5F8002383F3118800287FF432
:1050000036AF19460A220648FCF71AFEB0F1FF3304
:10501000594259410D2002B0BDE8F041FDF790B86A
:1050200074080020802A010840230108000A00209B
:10503000314D000860100020AFF30080AFF3008016
:10504000F0B5202383B083F31188A24CA16801201E
:10505000D1F1010138BF0021FDF772F8054638BBD8
:10506000034683F31188202383F3118841212046CE
:10507000FCF72EFD42212046FCF72AFD4321204665
:10508000FCF726FD20464421FCF722FD2B4683F346
:105090001188202383F311886269A3699A4218BF9B
:1050A000294600F012810220FDF74AF8044620B19B
:1050B000002383F3118803B0F0BD034683F3118806
:1050C000202383F3118883482146FCF701FD043037
:1050D00014BF002101210320FDF732F8002840F021
:1050E000F080034683F3118804247A4D4FF0FF319A
:1050F0002846FCF715FDC0B2FDF712F8013CF4D1CB
:10510000202383F31188A9680420D1F1010138BF5D
:105110000021FDF715F8234683F311880028CAD132
:1051200005206D49FDF724F80028C4D1202383F31E
:10513000118841212846FCF7CBFC42212846FCF788
:10514000C7FC43212846FCF7C3FC28464421FCF752
:10515000BFFC234683F31188604F7E6808223146E6
:105160002846FCF705FDB0F1040CDCF1000151EB21
:105170000C010620FCF7E4FF00289CD1202383F3D8
:105180001188A9680720D1F1010138BF0021FCF77F
:10519000D7FF234683F3118800288CD1202383F383
:1051A000118841212846FCF793FC42212846FCF750
:1051B0008FFC43212846FCF78BFC28464421FCF752
:1051C00087FC234683F31188022231462846FCF7E8
:1051D000CFFCB0F1020EDEF1000151EB0E01082010
:1051E000FCF7AEFF00287FF466AF31460222284666
:1051F0002346FCF7BDFC0238414241410920FCF73F
:105200009FFF00287FF457AF202383F31188A968FC
:105210000A20D1F1010138BF0021FCF791FF23469C
:1052200083F3118800287FF446AF202383F311888D
:1052300021462846FCF74CFC2846FCF731FC234667
:1052400083F31188202383F31188A9680B20D1F1FF
:10525000010138BF0021FCF773FF234683F3118857
:1052600000287FF428AF1E4A386892691D4B926867
:10527000009401324FF49871FBF78AFC1A4A2023FC
:10528000106083F31188A9680C20D1F1010138BFA7
:105290000021FCF755FF002383F3118800287FF4D9
:1052A0000AAFFCF7BDFF0A210A48FCF739FCB0F150
:1052B000FF32514251410D2003B0BDE8F040FCF7F0
:1052C0003FBF234683F31188F5E6A168003118BF7C
:1052D0000121E8E698080020802A010840230108FF
:1052E000000A0020814D000860100020AFF300800C
:1052F000704700BFAFF30080AFF30080AFF30080D2
:10530000704700BFAFF30080AFF30080AFF30080C1
:1053100042F6204010B5C0F6010042F63044C0F617
:105320000104FCF7D5FE4FF4CA70FCF799FE204645
:10533000FCF7DEFE42F63840C0F60100FCF7C8FE7E
:105340004820FCF78DFE2046FCF7D2FE42F648408E
:10535000C0F60100FCF7BCFE1420FCF781FE2046DD
:10536000FCF7C6FE42F65840C0F60100FCF7B0FE5E
:105370000C20FCF775FE2046FCF7BAFE42F66840AA
:10538000C0F60100FCF7A4FE0420FCF769FE2046ED
:10539000FCF7AEFE42F67840C0F60100FCF798FE3E
:1053A0001020FCF75DFE2046FCF7A2FE42F6884086
:1053B000C0F60100FCF78CFE1020FCF751FE2046E1
:1053C000FCF796FE42F69840C0F60100FCF780FE1E
:1053D0000820FCF745FE2046FCF78AFE42F6A8406E
:1053E000C0F60100FCF774FE2420FCF739FE2046CD
:1053F000FCF77EFE42F6B840C0F60100FCF768FEFE
:105400002820FCF72DFE2046BDE81040FCF770BEBA
:1054100038B5FCF74DFF4FF47A70FCF759FF124D89
:1054200000241248FBF7ACFEFBF7D2FE0F48FBF757
:10543000A7FEFBF7CDFE0D48FBF7A2FEFBF7C8FE6B
:105440000A48FBF79DFEFBF7C3FE2B680134002BD7
:10545000E7D00748FCF73CFEA000FCF701FE05483A
:10546000BDE83840FCF744BE40100020FC1000208E
:10547000C82C0108D82C0108AFF30080AFF30080DE
:1054800041F2FC00C2F20000FBF70ABEAFF300805D
:1054900010B5074C02E00748FBF74AFDA3695B7FA4
:1054A00003F00403DBB2002BF5D0002010BD00BFD9
:1054B000000A00201C110020AFF30080AFF3008031
:1054C00038B5FCF7F5FE4FF47A70FCF701FF144D88
:1054D00000241448FBF72CFD1248FBF769FD114826
:1054E000FBF726FD0F48FBF763FD0E48FBF720FD99
:1054F0000C48FBF75DFD0B48FBF71AFD0948FBF76D
:1055000057FD2B680134002BE3D00748FCF7E0FD82
:10551000A000FCF7A5FD0548BDE83840FCF7E8BD54
:10552000401000201C110020C82C0108E82C0108A4
:1055300041F21C10C2F200000121FBF7A9BC00BF20
:1055400041F21C10C2F200000021FBF7A1BC00BF19
:1055500038B5FCF7ADFE4FF47A70FCF7B9FE154D87
:105560000024202383F31188012100231248134AC9
:10557000FBF73EF9002342F21071104A1048FBF786
:1055800037F90D48FBF754F90D48FBF751F90023A3
:1055900083F311882B680134002BE2D00948FCF713
:1055A00097FD6000FCF75CFD0748BDE83840FCF75C
:1055B0009FBD00BF401000203C1100200153000897
:1055C00028110020C82C0108F82C0108AFF3008036
:1055D00030B583B000242449244800941022234687
:1055E000FCF74EFAFCF764FE4FF47A70FCF770FE9D
:1055F0001F4D202383F3118800211C48FCF768FA13
:1056000001211A48FCF764FA02211848FCF760FAF5
:1056100003211648FCF75CFA002383F311884FF04E
:10562000FF311248FCF77CFA4FF0FF310F48FCF7CE
:1056300077FA4FF0FF310D48FCF772FA0B484FF044
:10564000FF31FCF76DFA2B680134002BD1D00948EB
:10565000FCF73EFDA000FCF703FD074803B0BDE8E2
:105660003040FCF745BD00BF0C110020D8100020D1
:1056700040100020C82C0108042D0108AFF3008061
:105680002DE9F041144B154A9B69D2F800809E68C1
:10569000134F82B0FCF70CFE4FF47A70FCF718FE43
:1056A0000024013625460F4B009540464FF4987173
:1056B0003246FBF76DFA3B680134002BF3D00A4801
:1056C000FCF706FD2046FCF7CBFC084802B0BDE81D
:1056D000F041FCF70DBD00BF000A00204023010887
:1056E00040100020F1520008C82C0108102D0108BC
:1056F0002DE9F04340F6002985B004ACC2F2000960
:10570000002344F8043DFCF7D3FDD9F8183042F2E9
:105710004038C0F601089A68D8F80000009445F2B5
:10572000E176C0F60006013A33464FF49871FBF774
:105730002FFAD9F81830D8F804709A68009441F21A
:105740006005C2F20005013A286033464FF49871B3
:105750003846FBF71DFAD9F81830D8F808709A685F
:105760006860013A33464FF4987100943846FBF76D
:105770000FFAD9F81830D8F80C709A68A860013A76
:1057800033464FF4987100943846FBF701FAD9F884
:105790001830D8F810709A68E8604FF49871013AA0
:1057A000334600943846FBF7F3F928614FF47A70DA
:1057B000FBF73EFAFCF724FDFCF732FD42F6C84049
:1057C000C0F60100FCF784FC0398FCF749FC42F6A4
:1057D0001C50C0F60100FCF78BFC05B0BDE8F0835F
:1057E00038B50B4D0446FBF74BFAFBF749FAFBF7CC
:1057F00047FAFBF745FA2268AB69043222605B7F07
:1058000003F00403DBB2002BEDD0002038BD00BF55
:10581000000A0020AFF30080AFF30080AFF30080F8
:105820002DE9F042DFF80491384FD9F81830386884
:105830009A68374B374E384D84B000244FF4987136
:1058400005320094FBF7A4F97A68D9F8183003926E
:105850009A6830604FF4987104322D4B009403988D
:10586000FBF796F9BA68D9F8183003929A68706015
:105870004FF498710332264B00940398FBF788F994
:10588000FA68D9F8183003929A68B0604FF49871AA
:1058900002321F4B00940398FBF77AF9D9F81830BD
:1058A0003F699A681A4BF0604FF498710132009486
:1058B0003846FBF76DF93061FCF7FAFC4FF47A706B
:1058C000FCF706FD15480021FBF702FB2B680134AD
:1058D000002BF7D0FCF794FC00211048FBF7F8FAF6
:1058E000FCF79EFC0E48FCF7F3FB2046FCF7B8FBE8
:1058F0000C48FCF7EDFB04EB44004000FCF7B0FB68
:10590000094804B0BDE8F042FCF7F2BB40230108AF
:105910009154000860100020401000201C1100204D
:10592000C82C0108282D01081C2D0108000A0020A0
:105930002DE9F041154B164A9B69D2F800809E680C
:10594000144F82B0FCF7B4FC4FF47A70FCF7C0FC43
:105950000024013E2546104B00954FF498713246C5
:105960004046FBF715F9FBF7CBF93B680134002BF8
:10597000F1D00A48FCF7ACFB2046FCF771FB084865
:1059800002B0BDE8F041FCF7B3BB00BF000A002045
:105990004023010840100020F1520008C82C0108E3
:1059A000102D0108AFF30080AFF30080AFF300804B
:1059B00070B5254B25489B6900689A68244B254E95
:1059C00082B000254FF4987101320095FBF7E0F8A2
:1059D000214B04461860FCF76BFC4FF47A70FCF71F
:1059E00077FC202383F3118800212046FAF7E0FF9B
:1059F00020460021FAF7DCFF20460021FAF7D8FF05
:105A000020460021FAF7D4FF002383F3118833687E
:105A10000435002BE5D0202383F311884FF0FF31AC
:105A20002046FAF7C5FF002383F31188FCF7F8FB43
:105A30000A48FCF74DFB6800FCF712FB084802B06F
:105A4000BDE87040FCF754BB000A00204023010869
:105A5000B15C00084010002060100020C82C010834
:105A60001C2D0108AFF30080AFF30080AFF300807E
:105A700070B50546FCF71CFC4FF47A70FCF728FC67
:105A8000074E002428460121FBF782FE33680134CB
:105A9000002BF7D028460021FBF77AFE204670BD88
:105AA00040100020AFF30080AFF30080AFF3008020
:105AB0002DE9F04140F60026C2F2000642F24035E0
:105AC000B36982B0C0F601059A682868002745F6D8
:105AD000914301324FF49871C0F600030097FBF731
