:020000040800F2
:100000000004002081090008A10A0008A10A0008D4
:10001000A10A0008A10A0008A10A0008A10A000814
:10002000A10A0008A10A0008A10A0008D10A0008D4
:10003000A10A0008A10A0008A10A0008B10B0008E3
:10004000A10A0008613E0008A10A0008613F0008FB
:10005000A10A0008A10A0008613C0008913C0008C0
:10006000C13C0008F13C0008213D0008F1300008C7
:100070003131000871310008B1310008F131000858
:100080003132000871320008F13A0008A10A000874
:10009000A10A0008A10A0008A10A0008513D0008B1
:1000A000A10A000861410008A10A0008A10A00088D
:1000B000A10A0008A10A000861420008A10A00087C
:1000C000A10A0008A10A0008A10A0008A10A000864
:1000D000A10A0008A10A0008A10A0008A10A000854
:1000E000D13D0008A10A0008A13E0008A10A0008AD
:1000F000A10A0008A10A0008A10A0008B1320008FC
:10010000A10A0008A10A0008A10A0008A10A000823
:10011000A10A0008A10A0008A10A0008A10A000813
:10012000F13200083133000871330008B1330008A0
:10013000F1330008A10A0008E13E0008A10A000806
:10014000A10A0008A10A0008A10A0008514C0008F1
:100150003134000871340008B134000861520008DD
:10016000A10A0008A10A0008A10A0008A10A0008C3
:10017000213F0008A10A0008A10A0008A10A0008FE
:08018000A10A0008A10A000811
:100190002DE9F04F8D4B8E4EDFF874828D4F8E4DD2
:1001A000DFF870A2DFF870928C4C87B0009301F0FA
:1001B0005FFF00F07DFD009B89481B6002F0A8FAFC
:1001C0003146874802F0D4FA3668326D916B21F4DB
:1001D0000021916342F2077001F0AAF9304681498B
:1001E00002F036FC326D8048966B804946F400265A
:1001F000966302F03DF87C4842F2107102F080F8FC
:1002000005F086FB002010210322C4F2020004F056
:1002100007FA002020210322C4F2020004F000FAB1
:100220004FF4A05040210322C4F2020004F0F8F978
:100230004FF4A05080210322C4F2020004F0F0F930
:100240004FF4406008210122C4F2020004F0E8F9F2
:100250004FF4406010210122C4F2020004F0E0F9E2
:100260004FF440600022C4F202004FF4807104F0A9
:10027000D7F94FF440600022C4F202004FF400713D
:1002800004F0CEF94FF440602021C4F202000122B4
:1002900004F0C6F94FF4406040210122C4F202008C
:1002A00004F0BEF94FF440600122C4F202004FF4A2
:1002B000806104F0B5F94FF440600122C4F20200FD
:1002C0004FF4006104F0ACF94FF44060C4F2020056
:1002D0004FF480514FF4817204F0A2F94FF4406062
:1002E000C4F202004FF400514FF4817204F098F907
:1002F0004FF44060C4F202004FF480414FF4817229
:1003000004F08EF94FF440604FF48172C4F20200A1
:100310004FF4004104F084F90021354801F008FF52
:100320000021344801F004FF0021334801F000FFB0
:100330003248334902F00CF800210A462F4802F0F7
:1003400037F8012100222D4802F032F80221002264
:100350002A4802F02DF803210022284802F028F84C
:100360004FF0040E0026A8F828E04FF4967E0122F4
:1003700031467E85BE85A8F82C60A8F832E0FA26C2
:100380000EF5965E7E86A8F830E041F2B4464FF452
:100390001B6E3E861B48A8F82EE040F61C464FF028
:1003A000020EA7F828E0A8F82A20FE85019202F0A4
:1003B0009FF81549154801F023FF009B019A184644
:1003C00002A901F065FA2E463DE000BF1818002092
:1003D000607600082C180020201800200C1800203F
:1003E000A4150020707500083413002080760008E2
:1003F00090120020C4120020F812002044130020A4
:10040000580C002008150020F07600082C1300205E
:10041000801800208A0C0020890C002001333360F2
:100420002068002800F0C98090F820300E2B00F0E2
:10043000348141F27F314FF0FF3001F0C1FA0146C3
:10044000B94801F095FA2B6840F6C4129342E5D9F9
:100450004FF0000BC6F800B0202383F3118800F0A2
:10046000EFFC0123B148B249B24A01F089FE0123F1
:10047000B148B249B24A01F083FE0123B148B24902
:10048000B24A01F07DFE00F0F3FC5B4683F3118875
:100490004FF44063C4F2020341F6E8001A69C2F265
:1004A0000000C2F300220270196941F62A00C2F26C
:1004B0000000C1F340210170002A00F0928041F653
:1004C0002900C2F200000278002A00F08A804FF46E
:1004D00080621A8340221A8340F68842C2F20002E8
:1004E0001378022B00F0138141F62801C2F20001BB
:1004F0000A789A4203D0012288F80220BA7041F6A5
:100500002801C2F2000198F803200B7098F804301B
:10051000002B08BF002A00F08C8001238AF80030ED
:10052000FA783B79002B08BF002A00F08C80012369
:1005300089F8003041F6EC02C2F200021368844AE6
:10054000322B40F2848041F62B00C2F200000021E1
:10055000037811609AF80020DB43DBB2012A0370B4
:1005600000F0818080F0AD804FF44062C4F202025E
:100570000821518399F80020012A7ED080F0AC80B8
:100580004FF44062C4F2020210215183002B7CD14F
:100590004FF40063C4F202034FF400525A8341F651
:1005A0001001C2F200016B4A0B78072B7AD8206841
:1005B0000133137000287FF437AF41F2A452C2F226
:1005C0000002D2F854321B681B78042B7FF42CAF46
:1005D00061484FF40B61402205F0A2F95F4B1860AF
:1005E00027E74FF44063C4F202034FF480625A835A
:1005F00040225A8340F68842C2F200021378012258
:10060000022B88F80220BA707FF479AF41F62A03F2
:10061000C2F20003197841F6280098F8032098F8F0
:100620000430C2F20000002B08BF002A01707FF4E2
:1006300074AF02238AF80030FA783B79002B08BFA8
:10064000002A7FF474AF022389F8003072E7591C46
:1006500041F62B0011609AF80020C2F20000012A36
:1006600003787FF47FAF4FF44062C4F202020821A6
:10067000118399F80020012A80D14FF44062C4F21E
:10068000020210211183002B82D04FF40063C4F2C8
:1006900002034FF400521A8381E700F099FF002310
:1006A0002360C6E64FF44063C4F2020300211170D8
:1006B0005A6982F400625A615A6982F020025A61D2
:1006C000AEE6022A7FF456AF4FF44062C4F2020253
:1006D0000821D3B111834DE7022A7FF457AF6BB1E4
:1006E0004FF44063C4F2020310221A834FF40063F4
:1006F000C4F202034FF400521A8350E74FF44063F0
:10070000C4F2020310225A8342E7518332E741F6D2
:100710002800C2F2000003788B423FF47CAF012333
:1007200088F80230BB7071E7607B0008F812002087
:10073000307B00081C18002090120020C0760008B2
:1007400014180020C412002090760008F018002031
:10075000EC18002010180020207B00080C18002046
:1007600000210A2200F0ECB800220A2300F060B851
:100770008218034601E003F8011B9342FBD1704746
:100780000D4B70B51D680022845C2B195B7803F05B
:100790000303012B8B5C05EB030608BF203476783E
:1007A00006F00306012E08BF2033E41A02D10132FD
:1007B000002BE9D1204670BD000800200000000099
:1007C00070B50246007840B970BDB5420CD01C46E9
:1007D00013F8016B002EF8D100E00C46104612F819
:1007E000015B0DB10B46F2E72378002B08BF002018
:1007F00070BD0000000000000000000000000000CC
:1008000070B5034607E0AC4205D012F8015F002D39
:10081000F9D1301A70BD1E4613F8014B002CF8D0E8
:100820004A1EF2E700000000000000000000000087
:100830002DE9F74F01904148D0F800900846044652
:1008400014F8015B09EB05062046777807F00807E6
:10085000FFB2002FF3D12D2D03D114F8015B012736
:1008600004E02B2D04BF244614F8015B002B5ED05E
:10087000102B08D158E02078782801D058284ED184
:10088000657810230234002F0CBF6FF000404FF04A
:100890000040B0FBF3FA002603FB1A08304609EBD0
:1008A000050C9CF801C00CF0040B5FFA8BFBBBF14C
:1008B000000F01D0303D0BE01CF0030C1BD0BCF14D
:1008C000010F14BF4FF0570C4FF0370CCCEB050560
:1008D0009D4210DAB6F1FF3F0AD0504506D801D14B
:1008E000454503DC03FB0050012601E04FF0FF36D5
:1008F00014F8015BD3E7731C0AD1002F01990CBFD8
:100900006FF000404FF0004022230B6022B912E04C
:1009100007B140427AB106B1611E11600BE030258B
:10092000002BB0D10823AEE7302DACD1A3E7302D9A
:10093000A1D00A23A7E7BDE8FE8F00BF0008002072
:1009400030B51346044A05460C461068294622462F
:10095000BDE83040FFF76CBF080800200000000031
:10096000704700BFAFF30080AFF30080AFF30080AB
:10097000FEE700BFAFF30080AFF30080AFF300806D
:1009800072B6374880F30988022383F31488BFF3D3
:100990006F8F344A344B9A420BD2D143C91821F09D
:1009A0000301131F89184FF0553243F8042F8B426F
:1009B000FBD12E4A82420CD22D49131DC91A21F0B7
:1009C0000301131F89184FF0553243F8042F8B424F
:1009D000FBD104F065FD2749274B99420BD2C84350
:1009E000C01820F00300254C043000231A595A5037
:1009F00004338342FAD1224A224B9A420AD2D1438B
:100A0000C91821F00301131F8918002243F8042F8D
:100A10008B42FBD1FFF7A4FF1B4D1C4B9D420BD219
:100A2000EE43F618B608043D0136002455F8043F9D
:100A300001349847B442F9D1FFF7AAFB144D154B86
:100A40009D420BD2EE43F618B608043D0136002451
:100A500055F8043F01349847B442F9D1FFF788FFB5
:100A600000080020000000200004002000040020F6
:100A700003080020000800208C0C0020787B000870
:100A8000900C0020F418002088010008880100085C
:100A90008801000888010008AFF30080AFF30080F0
:100AA000FEE700BFAFF30080AFF30080AFF300803C
:100AB00072B6FEE7AFF30080AFF30080AFF30080C3
:100AC00000F086F900F05CFC00F09AF900DF00BF4E
:100AD000EFF30983203383F30988002383F311881C
:100AE000704700BFAFF30080AFF30080AFF300802A
:100AF00008B54FF46D43CEF200034FF44072C0F2DC
:100B0000FA520021996007201021DA6000F0A8F85D
:100B10000A204FF4007100F0A3F80B208021BDE8FB
:100B2000084000F09DB800BFAFF30080AFF3008035
:100B3000202383F311884FF46D43CEF200035B68EA
:100B400013F400631AD0EFF30983A3F1200282F3B8
:100B5000098811494FF080708A6943F8040C92F8B3
:100B6000230009689268896858B1914294BF0022B5
:100B7000012262B1094A43F8082C704783F31188B7
:100B80007047914234BF00220122002AF2D1044A68
:100B900043F8082C704700BFC4110020C10A0008A8
:100BA000CC0A0008AFF30080AFF30080AFF3008001
:100BB00008B500F07DF9202383F3118800F040F997
:100BC00000F0B6F800F054F9002383F3118800F028
:100BD0008FF9BDE80840FFF7ABBF00BFAFF300805F
:100BE0002DE9F04FC1F80CD0D0F80CD0BDE8F08F53
:100BF00008B500F005F9002383F311882846A047C3
:100C000000F0D6FC08BD00BFAFF30080AFF300805A
:100C1000F0B44FF461438408CEF20003C03400F016
:100C2000030553F82470ED00FF26420906FA05F685
:100C300027EA060601FA05F500F01F0002F1600739
:100C4000012101FA00F02E4343F8246043F8270005
:100C500043F82200F0BC7047AFF30080AFF3008090
:100C600082084FF46D43CEF20003063200F0030019
:100C700030B4C00053F82250FF2404FA00F425EAEF
:100C8000040401FA00F10C4343F8224030BC7047E1
:100C9000024B034A9B699A61FEE700BFC411002022
:100CA000E0650008AFF30080AFF30080AFF3008091
:100CB00030B583B0FFF71CFF00F00AFA00F0A0F98E
:100CC00001F07EF801F0D4F800F062F940F69040AF
:100CD0004021C2F2000000F063FB41F2C41440F274
:100CE0000043C2F20003C2F200040125C36180F890
:100CF0002050A06100F054F8002383F3118862B6FD
:100D000046F2B071A269C0F60001916140F6E04080
:100D1000009340F69143C0212A46C0F60003C2F278
:100D2000000000F0CDFB03B030BD00BFAFF300808A
:100D3000F8B500F0FDF8164B9B6993F8232012B12B
:100D4000013A83F823205A6A124D01325A62EB6845
:100D50002C680133AC42EB6018D0A768013FA76054
:100D6000A7B92368E6685D60E7602B6000F080F853
:100D7000002383F311882069B047202383F311886F
:100D800000F05EF82C68A368002BEAD0F8BD00BF25
:100D9000C4110020B4110020AFF30080AFF3008035
:100DA000054B1B6813B9054B1B6823B1044A054B5F
:100DB0001A60FFF77DBE7047A00D0020AC11002027
:100DC00000660008B0110020AFF30080AFF3008090
:100DD000074B1B6810B5074C0BB9236823B1064AB3
:100DE000064B1A60FFF764FE0123236010BD00BFAD
:100DF000A00D0020AC11002008660008B0110020F2
:100E0000084B1B6810B5084C2BB92368002B02DD7A
:100E10000023236010BD054A054B1A60FFF748FE0A
:100E2000F6E700BFA00D0020AC11002010660008FE
:100E3000B0110020AFF30080AFF30080AFF300806B
:100E4000074B1B68002B10B5064C01DD236823B14E
:100E5000054A064B1A60FFF72BFE0123236010BDE5
:100E6000A00D0020AC11002018660008B011002071
:100E7000084B1B68002B10B5074C05DD2368002BC1
:100E800002DD0023236010BD044A054B1A60FFF702
:100E90000FFEF6E7A00D0020AC1100202066000830
:100EA000B0110020AFF30080AFF30080AFF30080FB
:100EB00010B5202383F31188094C2368002B02DB33
:100EC000084A12682AB1084B084A1A60FFF7F0FD79
:100ED000236801332360002383F3118810BD00BF12
:100EE000A00D0020AC110020B011002028660008E1
:100EF00010B5202383F31188094C2368002B02DDF1
:100F0000084A12682AB1084B084A1A60FFF7D0FD58
:100F10002368013B2360002383F3118810BD00BFC9
:100F2000A00D0020AC110020B01100203066000898
:100F3000064B1B68002B04DB054B1B68002B00DDF8
:100F40007047044A044B1A60FFF7B2BDA00D0020A1
:100F5000AC11002038660008B0110020AFF300800B
:100F6000064B1B6823B9064B1B68002B00DD70473E
:100F7000044A054B1A60FFF79BBD00BFA00D00207F
:100F8000AC11002040660008B0110020AFF30080D3
:100F900040F6A453C2F200031A46402142F8081B4F
:100FA0005A607047AFF30080AFF30080AFF300806A
:100FB0000C490D4A10B4CC680C49536889691C600F
:100FC0005960816A996090F8204003F1100102F5A0
:100FD000816081421C732ABF02F108035160536093
:100FE00010BC7047B4110020A40D0020C4110020D3
:100FF00041F2B013C2F200031860FFF759BD00BF01
:1010000041F2B413C2F200034FF0FF329A600022A3
:101010005B601B60DA607047AFF30080AFF3008065
:10102000F8B5054616460C461F46FFF781FF002D12
:1010300018BF002E1AD0CCB10E492F610B68EE609C
:101040009A68944204D91B68A41A9A68A242FAD3F7
:101050005A68AC608B426A602B60156018BF9A6852
:101060005D601CBFC4EB02049C60F8BD0248FFF742
:10107000BFFFE1E7B411002050660008AFF3008025
:1010800010B50446FFF754FF84B1E36893B12368B9
:101090000A4A93421FBF9968A2688A189A606268D8
:1010A000136023685A600023E36010BD0448FFF713
:1010B0009FFFEAE70348FFF79BFFE8E7B411002032
:1010C0006066000870660008AFF30080AFF3008030
:1010D00041F2C413C2F2000300225B601B609A60FD
:1010E0005B611B61704700BFAFF30080AFF300800E
:1010F00010B50446FFF71CFF94F82030002B18BFF2
:101100000E2B0FD00022A168084B84F820201B680A
:101110009A688A42FBD25A682360626014605C60FD
:10112000204610BD0248FFF763FFEBE7C411002023
:1011300090660008AFF30080AFF30080AFF300804B
:1011400010B52023044683F31188FFF779FE94F845
:1011500020300D2B11D8DFE803F016101007100B0C
:10116000101010101010100BA36A9A6801329A60C8
:1011700094E80C001A60226853604FF0FF33A362BA
:101180002046FFF7B5FFFFF773FE002383F31188B6
:1011900010BD00BFAFF30080AFF30080AFF300805D
:1011A00070B5114C0646FFF7DBFE2368A5691A6887
:1011B00085F82060142185F823100121546083F8FC
:1011C000201028462260A361FFF7F2FEEB69ADF123
:1011D0002402934202D90548FFF70AFFA069294675
:1011E000BDE87040FFF7FCBCC4110020A4660008F5
:1011F00070B50C4686B00646FFF7B2FE631C12D0EF
:101200000B4D0C4AAB69214601A8FFF709FF304698
:10121000FFF7C6FF049B13B101A8FFF731FFAB69CD
:10122000986A06B070BD3046FFF7BAFF004DF6E78A
:10123000C411002041110008AFF30080AFF300801B
:1012400070B5144D04460E46FFF78AFEA869A268E1
:101250008368A6629A4213D9FFF74AFF0123064624
:1012600084F82030AC61FFF7A3FEF369ADF12402EE
:1012700093420AD820463146BDE87040FFF7B0BC23
:101280002046BDE87040FFF733BF0348FFF7B0FECC
:10129000F0E700BFC4110020A4660008AFF300808F
:1012A00038B5104C2368A5691A68012183F820100D
:1012B0001421546085F8231028462260A361FFF7AB
:1012C00017FF2846FFF774FEEB69ADF12402934245
:1012D00002D90548FFF78CFEA0692946BDE83840D1
:1012E000FFF77EBCC4110020A4660008AFF30080A5
:1012F00070B5144E3368B5691A68AC685660012140
:101300003260002283F82010B36185F8202000E0CD
:101310001B689A68A242FBD85A682B606A60156005
:101320005D602846FFF744FEEB69ADF1240293426D
:1013300002D90548FFF75CFEB0692946BDE8704058
:10134000FFF74EBCC4110020A4660008AFF3008074
:1013500008B5FFF705FE064B1A689B6992689B6803
:101360009A4200D808BDBDE80840FFF7C1BF00BFE2
:10137000C4110020AFF30080AFF30080AFF3008012
:10138000044B9B6993F823300BB1FFF7B1BFFFF714
:1013900087BF00BFC4110020AFF30080AFF300800F
:1013A0002DE9F00141F2C414C2F200040022656983
:1013B0004164046100F13006816000F12C0C00F101
:1013C0004C0745614FF0020860610121142480F848
:1013D000208080F8212080F823400264C2634262AA
:1013E00080F8221082612861C0F82CC04663066331
:1013F000C761BDE8F0017047AFF30080AFF3008034
:10140000884203D200F8012B8842FBD1704700BF0D
:101410002DE9F04704460D4690469946FFF788FDB2
:10142000002C18BFAF2D0AD9B8F17F0F94BF00234D
:101430000123B9F1000F08BF43F0010313B11B48AA
:10144000FFF7D6FD1A4EA5F12403E7187169E7608E
:1014500044F80390089B7B60164B3B62022384F8A0
:1014600020301423002504F1300204F12C0A04F189
:101470004C0C84F8233001232661C4F80880616194
:101480002046746184F82150C4F844802564E563E3
:10149000656284F82230A5610C61C4F82CA06263F7
:1014A0002263C4F81CC0BDE8F08700BFC066000816
:1014B000C4110020F10B0008AFF30080AFF30080EF
:1014C0002DE9F04F804683B0894692469B4600F155
:1014D0004C0700F1010400F14D06FF2504F8015C02
:1014E0000134B442FAD108EB0904A74204D25525CD
:1014F00007F8015BA742FBD1202383F31188FFF794
:1015000067FC0C985B465246494600904046FFF700
:101510007FFF00210446FFF793FEFFF771FC0023D5
:1015200083F31188204603B0BDE8F08FAFF300804D
:1015300010B5044610B90948FFF75AFD202383F37C
:101540001188FFF745FC21460620FFF751FEFFF703
:1015500057FC002383F3118810BD00BF006700080B
:1015600038B5104B9C692546A06255F82C0FA8424F
:1015700006D00368E362FFF7BBFDE06AA842F8D13A
:1015800094F821309B0704D1636922691A612269AA
:1015900053610E20FFF704FE0348BDE83840FFF713
:1015A00027BD00BFC411002010670008AFF3008002
:1015B00010B52023044683F31188FFF709FC204669
:1015C000BDE81040FFF7CCBFAFF30080AFF3008061
:1015D00038B50446202383F31188FFF7F9FB94F80C
:1015E0002230002B21D0013BDDB284F82250FFF7DE
:1015F00007FC002383F311881DB994F820300E2BCB
:1016000000D038BD94F8213003F00303012B12D031
:10161000022BF6D163692269A06C1A612269214606
:101620005361BDE8384000F00BBD0848FFF7E0FC0F
:1016300094F82230D7E7636922691A61226920464B
:101640005361BDE8384000F06BBC00BF7467000810
:101650002DE9F04182B00D461746984600F018FC7F
:10166000044618B300F14C063146FF22FFF7C8FECE
:10167000304661195522FFF7C3FE202383F31188FA
:10168000FFF7A6FB08983A464346294600902046B5
:10169000FFF7BEFE012380F8213000210446FFF74A
:1016A000CFFDFFF7ADFB002383F31188204602B086
:1016B000BDE8F081AFF30080AFF30080AFF30080AE
:1016C00010B5044620B1002364602460A36010BDFF
:1016D0000148FFF78DFCF6E7D0670008AFF3008004
:1016E000F8B53B4B05469C69FFF73AFC002D6BD0E3
:1016F000A868002836D0A2688368934208D290F880
:1017000020308260042B45D0052B30D0002B1ED01A
:101710002B461B689D4203D09968A2689142F8D27B
:101720005A682360626004205C601460A562FFF761
:1017300037FDAB68A34202D02648FFF759FC236C63
:10174000AB4213D02448BDE8F840FFF751BC90E805
:101750000C001A600268012180F820105360FFF726
:10176000C7FCD5E7236CAC60EB602564F8BD41682D
:101770000368866A0B600768334679601B689E427F
:1017800002D099689142F9D25A68036042601060B1
:101790005860BDE741680368866A0B600768334696
:1017A00079601B689E420DD099689142F9D25A68BF
:1017B0000360426010605860B068A268836893421A
:1017C0009DD3A5E73346F2E70448FFF711FC8FE706
:1017D000C4110020F067000804680008E0670008F2
:1017E00010B52023044683F31188FFF7F1FA204651
:1017F000FFF776FFFFF704FB002383F3118810BD8A
:101800001E4A70B52023956983F31188FFF7E0FA2B
:101810002C6C002C2DD0A368AB4203D01848FFF7E6
:10182000E7FB2C6C2668E368A6422B641ED0696C2B
:101830004BB11A689A4203D09268914238BF114660
:10184000DB68002BF5D13368326CA9603046236029
:1018500000215C60A660E2603464FFF7F1FCFFF7F2
:10186000CFFA002383F31188204670BD0023A360C4
:10187000F5E70448FFF7BCFB2C6CCCE7C411002053
:10188000406800082C680008AFF30080AFF30080C8
:10189000002818BF0029F8B50C460546174602D1A6
:1018A0000B48FFF7A5FB202383F31188FFF790FA7D
:1018B000084B2A689B69226000262C606360A76041
:1018C000E660FFF79DFA334683F31188F8BD00BF49
:1018D00080680008C4110020AFF30080AFF30080DF
:1018E00038B504460D46FFF723FBC4B1E26B94F80C
:1018F000203045EA0201082BE1630CD0092B00D00F
:1019000038BDA36A19408B42FAD12046FFF7F0FB9D
:101910000023836238BDA36A1942F6D138BD02485C
:10192000FFF766FBE2E700BFAC680008AFF300809A
:1019300070B505460E46FFF7FBFA65B12C68A54267
:1019400008D0201D0BC83343E360FFF7C9FF2468AC
:10195000A542F6D170BD0248FFF74AFBEEE700BF93
:10196000D0680008AFF30080AFF30080AFF30080D1
:101970002DE9F04180460D46D0B18DB100263446A8
:10198000012707FA04F32B4206D058F8062025EA6F
:1019900003053AB12046904701340436002DF0D1BA
:1019A000BDE8F0810448FFF723FB58F80620F1E773
:1019B0000248FFF71DFBE0E7FC680008E868000844
:1019C000F8B5164B05469E690F46202383F3118810
:1019D000FFF7FEF9F36B15EA03040BD1B7B108204A
:1019E000B5623946FFF704FC0028A4BFF36B05EA93
:1019F00003040BDB6242144023EA0403F363FFF7A2
:101A0000FFF9002383F311882046F8BDFFF7F8F9AA
:101A1000234683F311882046F8BD00BFC41100207F
:101A200010B4024659B1084B9B69986244680D2076
:101A300083E814005360236010BCFFF7D9BB4FF05C
:101A4000FF3010BC704700BFC4110020AFF300800E
:101A500010B4C361019B40608A1800240060846058
:101A600041618161C1600261036210BC704700BFC7
:101A700038B50446FFF75CFAE36820686361A36148
:101A80000023A042A3600AD06FF001050368236021
:101A90005C60FFF72DFB85622068A042F6D138BD5F
:101AA00038B504460D46FFF743FAA26963699342CD
:101AB000A2681AD00132A26003F8015B2269636157
:101AC00093420BD22068A0420DD0036823605C6073
:101AD000FFF70EFB00238362184638BD2068E368D9
:101AE000A0426361F1D1002038BD002AE2D06FF03E
:101AF000030038BDAFF30080AFF30080AFF3008088
:101B0000F8B504460E46202383F31188FFF760F9E9
:101B1000E3690BB120469847A5682046314655B980
:101B2000FFF77EFF071EF7DAFFF76AF92B4683F30C
:101B300011883846F8BDA3692269013DA56013F8F4
:101B4000017B9342A36124BFE368A361FFF758F9C7
:101B5000002383F311883846F8BD00BFAFF300803F
:101B60002DE9F0470446154688461E46C769002AF7
:101B70003AD0202383F31188FFF72AF908F1010AEC
:101B80004FF00009A8440FB12046B847A568204689
:101B900031465DB9FFF744FF0028F7D0FFF730F971
:101BA0002B4683F311884846BDE8F087A369013DC1
:101BB000A56013F8012B0AF8012C2269A361934256
:101BC00024BFE368A361FFF71BF9002383F31188A7
:101BD000C24509F10109E6D0202383F31188FFF7FC
:101BE000F7F80AF1010ACEE70148FFF701FAC0E76A
:101BF00010690008AFF30080AFF30080AFF30080FE
:101C000010B4C361019B40608C1800608260416128
:101C10008161C1600461036210BC7047AFF3008052
:101C200038B50446FFF784F9E368226920686361E8
:101C3000D21AA042A361A2600AD06FF00105036826
:101C400023605C60FFF754FA85622068A042F6D1F9
:101C500038BD00BFAFF30080AFF30080AFF300806A
:101C60002DE9F041202304468846164683F3118867
:101C7000FFF7AEF8A568204631465DB9FFF7D0FE04
:101C8000071EF7DAFFF7BCF82B4683F311883846B6
:101C9000BDE8F0816369013DA56003F8018B22690D
:101CA0006361934224BFE3686361E3690BB120463B
:101CB0009847FFF7A5F8002383F311881F4638469D
:101CC000BDE8F081AFF30080AFF30080AFF3008098
:101CD00038B50446FFF72CF96269A3699A42A268F5
:101CE00016D00132A26013F8015B2269A36193420E
:101CF0000BD22068A04206D0036823605C60FFF727
:101D0000F7F900238362284638BDE368A361F0E752
:101D1000002AE6D06FF0020038BD00BFAFF30080AC
:101D20002DE9F0470446164688469A46D0F81C909E
:101D3000002A39D0202383F31188FFF749F80027C0
:101D4000A56820466B1E0DB3A36018F8013B6569BA
:101D500005F8013B236965619D4224BFE368636127
:101D6000B9F1000F00D0C847FFF74AF8002383F30A
:101D700011880137013E14D0202383F31188FFF727
:101D800027F8A56820466B1E002DDDD12046514660
:101D9000FFF746FE0028D3D0FFF732F82B4683F337
:101DA00011883846BDE8F0870148FFF721F9C1E7FF
:101DB00024690008AFF30080AFF30080AFF3008028
:101DC00041F2E41241F2E0134CF200010648C2F283
:101DD0000002C2F20003C2F2010120F0070021F06C
:101DE0000701106019607047FB180020AFF30080F6
:101DF00010B50446FFF79CF8074A084913680968BC
:101E0000E01D20F00700C91A88429ABF1818106018
:101E10000023184610BD00BFE4110020E01100208F
:101E200010B52023044683F31188FEF7D1FF204626
:101E3000FFF7DEFF0446FEF7E3FF002383F311887C
:101E4000204610BDAFF30080AFF30080AFF30080F9
:101E500041F2E01241F2E413C2F20002C2F20003C6
:101E600010681B68C01A7047AFF30080AFF30080A2
:101E700041F2E813C2F2000341F621610022C0F6EC
:101E8000000103F1100019609A60DA60FFF718BCD6
:101E9000F8B5204E002818BF0646073106F110009D
:101EA00021F0070506F10804FFF79AFC00E01C4644
:101EB0002368FBB15A689542F9D805F108019142AF
:101EC00015D84FF6F870CFF6FF70401B03EB010EEC
:101ED00082181868CEF8042058505D60C4F800E0FD
:101EE0001C4644F8086BFFF78BFC2046F8BD1A68C7
:101EF0002260F5E7FFF784FC33684BB105F1080079
:101F0000984728B100F10804066045602046F8BDF6
:101F10000024EAE7E8110020AFF30080AFF300806F
:101F2000F8B5074600284BD057F8086C06F11000AA
:101F3000FFF756FC0836A7F108053446AC4204D832
:101F400063680833E3189D421FD3B442236801D06D
:101F5000AC4202D21BB19D4201D31C46EEE757F8BA
:101F6000042C47F8083C256002F1080357F8080CD8
:101F7000E91881420DD0636803F10802A218954266
:101F800015D0BDE8F840FFF73BBC0F48FFF730F82D
:101F9000DBE74968EB585218083247F8042C47F839
:101FA000083C636803F10802A2189542E9D157F88A
:101FB000041C57F8082C5B18083384E80C00E0E791
:101FC0000248FFF715F8AFE760690008506900089C
:101FD00038B50E4C002818BF044604F110000D4619
:101FE000FFF7FEFBA3686BB10022144658681B681C
:101FF00012180134002BF9D105B12A60FFF700FC5B
:10200000204638BD1A461C46F6E700BFE8110020FE
:1020100038B504460D46FEF78BFF002C18BF002D87
:1020200002D10348FEF7E4FF23682B60256038BD2A
:10203000A4690008AFF30080AFF30080AFF3008025
:1020400038B505460C46202383F31188FEF7C0FE01
:1020500028462146FFF7DCFFFEF7D2FE002383F37C
:10206000118838BDAFF30080AFF30080AFF300807C
:1020700008B501F0C5FA00F0ABFC47F2B010C0F6AD
:10208000000002F0F5F900F03BF800F0A9F800F0CC
:10209000DFF800F04DF900F0FBF900F0C1FC00F0B2
:1020A0002FFBBDE8084003F003BA00BFAFF3008088
:1020B0004FF48053CEF2000310B45A681C468018C7
:1020C000824263680AD2984294BF002101219A4259
:1020D00088BF00210029F3D110BC70479A428CBF01
:1020E00000210121984288BF41F001010029E7D178
:1020F000F2E700BFAFF30080AFF30080AFF30080E2
:1021000001F04EBBAFF30080AFF30080AFF300806F
:1021100000230122027043608360C3600361436156
:102120001830FFF7CDBA00BFAFF30080AFF30080E7
:1021300038B504460D46B8B1202383F31188FEF765
:1021400047FE2378013B012B02D90948FEF750FFD7
:102150002046656001F06CFB02232370FEF750FE01
:10216000002383F3118838BD0248FEF741FFE3E7FF
:10217000E0690008D0690008AFF30080AFF3008089
:10218000F8B504460E4617461D46FEF7D1FE002C54
:1021900018BF002E18D0BFB1012D01D0EB0713D40A
:1021A0002078042818BF022804D0052802D0084847
:1021B000FEF71EFF03232046A760E560266123701B
:1021C000BDE8F84001F0B4BB0248FEF711FFE7E7B5
:1021D000246A00080C6A0008AFF30080AFF30080A7
:1021E00001F01EBFAFF30080AFF30080AFF30080BB
:1021F0000123037000234360704700BFAFF30080EA
:10220000002818BF002938B50D46044617D02023F2
:1022100083F31188FEF7DCFD2378013B012B02D903
:102220000948FEF7E5FE2046656001F079FF0223CC
:102230002370FEF7E5FD002383F3118838BD0348C2
:10224000FEF7D6FEE3E700BFF06A0008E06A000888
:1022500001F0A6BFAFF30080AFF30080AFF30080C2
:102260000123037000234360704700BFAFF3008079
:10227000002818BF002938B50D46044617D0202382
:1022800083F31188FEF7A4FD2378013B012B02D9CB
:102290000948FEF7ADFE2046656001F091FF02237C
:1022A0002370FEF7ADFD002383F3118838BD03488A
:1022B000FEF79EFEE3E700BFBC6B0008B06B0008B2
:1022C00038B504460D46FEF733FE6CB12378022B79
:1022D00002D00748FEF78CFE0323204629462370D0
:1022E000BDE8384001F0ACBF0248FEF781FEEDE7E3
:1022F000306C0008186C0008AFF30080AFF300806A
:1023000038B505460C46202383F31188FEF760FD9F
:1023100028462146FFF7D4FFFEF772FD002383F322
:10232000118838BDAFF30080AFF30080AFF30080B9
:1023300001F0D6BFAFF30080AFF30080AFF30080B1
:102340000123037000234360704700BFAFF3008098
:10235000002818BF002938B50D46044619D020239F
:1023600083F31188FEF734FD2378013B012B02D95A
:102370000A48FEF73DFEAB8865602046238101F0E8
:10238000BFFF02232370FEF73BFD002383F3118878
:1023900038BD0348FEF72CFEE1E700BFD06C000813
:1023A000C06C0008AFF30080AFF30080AFF3008093
:1023B000D0F1010338BF0023032988BF43F0010394
:1023C00070B504460D461646ABB9202383F3118839
:1023D000FEF7FEFC2378022B02D00948FEF708FE28
:1023E00020462946324602F023F8FEF709FD002375
:1023F00083F3118870BD0348FEF7FAFDE5E700BFDF
:10240000406D0008286D0008AFF30080AFF3008036
:102410000C30FFF7A5BB00BFAFF30080AFF3008027
:102420000C304FF0FF33FFF79BBB00BFAFF30080D2
:102430003030FFF775BC00BFAFF30080AFF3008012
:1024400030304FF0FF33FFF76BBC00BFAFF30080BD
:102450000C30FFF755BB00BFAFF30080AFF3008037
:102460000C304FF0FF31FFF74BBB00BFAFF30080E4
:102470003030FFF7F5BB00BFAFF30080AFF3008053
:1024800030304FF0FF32FFF7EBBB00BFAFF30080FF
:1024900002F09EBFAFF30080AFF30080AFF3008087
:1024A00070B546F6D0530546C0F60003044645F81D
:1024B000043B82B0656001250B46164604F15401C9
:1024C0001022257200F10C000094FFF7C1FA00946D
:1024D00004F1300004F1640110223346FFF790FB51
:1024E00002B070BDAFF30080AFF30080AFF30080A7
:1024F00038B504460D46B8B1202383F31188FEF7A2
:1025000067FC237A013B012B02D90948FEF770FDD5
:102510002046294602F074FF02232372FEF770FC66
:10252000002383F3118838BD0248FEF761FDE3E71D
:102530007C6D0008706D0008AFF30080AFF3008081
:1025400038B504460D46FEF7F3FCD4B163693BB1E0
:1025500004F10C002946FFF7A3FA00280BDB38BD75
:10256000201D0421FFF7E4F904F10C002946FFF7D0
:1025700097FA0028F3DA201D8021BDE83840FFF7E4
:10258000D7B90248FEF734FDE0E700BFA86D0008A8
:1025900070B5046AD4F854321A681178042900D04E
:1025A00070BD217A0229FBD112891B7942FA03F30B
:1025B00013F00105F4D1216CE36BA26BC91A8E1ADA
:1025C000EED0FEF71DFC2B4683F31188D4F854227D
:1025D00033461068117904F1300200F0D1FA20235B
:1025E00083F31188FEF7F4FBD4F854321868197994
:1025F000BDE8704000F0F4BAAFF30080AFF30080A4
:10260000F8B5046AD4F8542213681978042900D064
:10261000F8BD217A0229FBD15279598903EB820353
:1026200041FA02F2DB6812F001075D8AF0D1E66937
:10263000A2696369B61AF61AB542E9D8FEF7E0FB5B
:102640003B4683F31188D4F85422B6FBF5F305FB1F
:1026500003F31068517904F10C0200F081FA202391
:1026600083F31188FEF7B4FBD4F854321868597913
:10267000BDE8F84000F094BAAFF30080AFF30080FB
:102680000C30FFF76DBA00BFAFF30080AFF30080EE
:102690000C304FF0FF33FFF763BA00BFAFF3008099
:1026A0003030FFF73DBB00BFAFF30080AFF30080D9
:1026B00030304FF0FF33FFF733BB00BFAFF3008084
:1026C0000C30FFF71DBA00BFAFF30080AFF30080FE
:1026D0000C304FF0FF31FFF713BA00BFAFF30080AB
:1026E0003030FFF7BDBA00BFAFF30080AFF300801A
:1026F00030304FF0FF32FFF7B3BA00BFAFF30080C6
:10270000704700BFAFF30080AFF30080AFF30080ED
:1027100030B546F620630546C0F60003044645F88A
:10272000043B83B0656042F20163012504F154016A
:10273000257200F10C004FF48072C0F60003009483
:10274000FFF786F942F29153009404F1300004F54A
:10275000AA714FF48072C0F60003FFF751FA03B07C
:1027600030BD00BFAFF30080AFF30080AFF3008057
:1027700070B50D4604460E6808B3202383F3118814
:10278000FEF726FB237A013B012B02D90E48FEF708
:102790002FFC2B7906EB83039C616B79093346F898
:1027A0002340AB7906EB83060223B4612372C4F89D
:1027B0005452FEF725FB002383F3118870BD0348B4
:1027C000FEF716FCD9E700BF006E0008F06D0008A8
:1027D00070B5D0F8543200F10C06044630461D683E
:1027E000FFF746F904F13000FFF71AFA201D012126
:1027F000FFF79EF8D4F85432597905EB8103284647
:10280000DB6832465B8A00F0ABF9D4F85432597970
:102810002846BDE8704000F0C3B900BFAFF30080A8
:1028200090F8443003F06003202B01D00020704763
:1028300090F84530212B03D0222B09D0202BF5D145
:10284000064B83630723C36300230364012070479F
:1028500000238363C363036401207047380C0020A6
:10286000F8B500EB810306469C690D46CCB12023E8
:1028700083F31188FEF7E4FA0821201DFFF758F8CA
:10288000216CE26BA36B8A1AD71A16D106EB85036B
:10289000DA6853695B682BB9FEF7EAFA002383F321
:1028A0001188F8BD128A013A12EA0307F4D1FEF743
:1028B000DFFA3B4683F3118805E0FEF7D9FA0023DF
:1028C00083F311883B463046294604F1300200F07C
:1028D00057F9202383F31188FEF7B2FA30462946D0
:1028E00000F07EF9D8E700BFAFF30080AFF30080BF
:1028F00001F109032DE9F04150F823400D46064649
:10290000CCB1202383F31188FEF79AFA201D04210D
:10291000FFF70EF806EB8503E169D868A2696369E1
:10292000478A8A1AC3EB0208474506D9FEF7A0FA80
:10293000002383F31188BDE8F081FEF799FA0023A4
:1029400083F31188B8FBF7F307FB03F330462946FE
:1029500004F10C0200F004F9202383F31188FEF740
:102960006FFA3046294600F01BF9DFE7AFF300802D
:10297000704700BFAFF30080AFF30080AFF300807B
:102980004FF48053CEF200035B688360704700BF52
:102990004FF48053CEF20003094A5B68816810B49B
:1029A0001468C2685B1A1B1B9342836088BFC360B4
:1029B00003D80269934238BF036110BC704700BF5F
:1029C00008120020AFF30080AFF30080AFF3008067
:1029D00010B541F2082486B0C2F200040022226041
:1029E00004924FF480534FF0FF320592CEF2000371
:1029F00042F68112C0F600025B68019242F6911223
:102A0000C0F6000201A803930292FFF7C1FF039BE7
:102A1000236006B010BD00BFAFF30080AFF30080AD
:102A200002F09EB9AFF30080AFF30080AFF30080F7
:102A30000023012202704360C36183620362C362A8
:102A40004362036303814381704700BFAFF300809B
:102A5000002818BF002970B50E4604461CD020235C
:102A600083F31188FEF7B4F92378013B012B02D9D7
:102A70000B48FEF7BDFA002520466660E56025613B
:102A80006561A56102F094F902232370FEF7B8F99D
:102A90002B4683F3118870BD0248FEF7A9FADEE7E2
:102AA000706E0008606E0008AFF30080AFF3008026
:102AB000F8B5044615460E46FEF73AFA002C18BF44
:102AC000002D22D02378042B02D01248FEF790FA72
:102AD000B71C04EB87035B6813B10F48FEF788FA55
:102AE000686918B100211022FDF742FEA86918B1EB
:102AF00000211022FDF73CFE04EB870720463146FB
:102B00007D60BDE8F84002F043BA0448FEF770FA71
:102B1000D8E700BFB46E0008D06E00089C6E0008B5
:102B200030B400EB81040025E468A4692570E260FC
:102B30006360A56030BC02F00BBB00BFAFF3008048
:102B400030B400EB81040025E46864692570E2601C
:102B50006360A56030BC02F013BB00BFAFF3008020
:102B600030B400EB81040125E468A46963600023AC
:102B70002570E260A36030BC02F0EABAAFF30080D7
:102B800030B400EB81040125E468646963600023CC
:102B90002570E260A36030BC02F0F2BAAFF30080AF
:102BA00070B504460D46FEF7C3F994B1638943FA44
:102BB00005F010F0010601D0012070BD012202FADB
:102BC00005F2134320466381294602F0F9FA3046A4
:102BD00070BD0248FEF70CFAE8E700BF246F00085A
:102BE00070B504460D46FEF7A3F994B1238943FA64
:102BF00005F010F0010601D0012070BD012202FA9B
:102C000005F2134320462381294602F0E1FA3046BB
:102C100070BD0248FEF7ECF9E8E700BF3C6F000822
:102C200010B40346002202240470A0F84C2083F85C
:102C30004E2080F84F2002814281C26002614261D1
:102C4000826183F8342010BC02F022B9AFF3008017
:102C5000F8B50023044680F8343000F1440202F055
:102C600067FA63689B68002B2DD02046984750B3C5
:102C7000E56B94F8443094F84B1094F84A2042EAFB
:102C80000122AA423CBF1546E26313F0800F2B4697
:102C900040F08780002D6DD1052284F83420204635
:102CA00029462A46FFF74CFF202383F31188FEF7BD
:102CB000C7F829462046FFF793FFFEF7D9F82B46C1
:102CC00083F31188F8BD94F8443013F0600711D0F5
:102CD0000021204602F09CFA2046002102F090FAE2
:102CE00063681B6813B1204605219847062384F8C2
:102CF0003430F8BD94F8456003F07F0242EA0626BE
:102D0000B6F5407F00F0068117DDB6F5C06F00F024
:102D1000968075DDB6F5106F00F0C18040F6024276
:102D2000964200F08580B6F5006FD1D1012504F1FF
:102D30004F02A263E56327649DE7022E00F0C18085
:102D400071DDB6F5807F00F09380B6F5817FBFD14D
:102D500094F84620002ABBD194F8482012F00F01C5
:102D60005CD01206204600F1068102F059FA94F870
:102D7000443053E0042284F8342020460021A26B22
:102D8000FFF7CEFE202383F31188FEF759F80021C8
:102D90002046FFF705FFFEF76BF8002383F3118849
:102DA000F8BDB5B1012284F8342020460021A26B81
:102DB000FFF7C6FE202383F31188FEF741F80021B8
:102DC0002046FFF70DFFFEF753F8002383F3118829
:102DD000F8BD032284F83420204629462A46FFF70E
:102DE0009FFE202383F31188FEF72AF82946204608
:102DF000FFF7D6FEFEF73CF82B4683F31188F8BDAB
:102E000040F20232964273D0B6F5A06F7FF460AF05
:102E1000B4F84420B2F5A06F00F09B800025A563B4
:102E2000E563256427E7002E32D0012E7FF450AFF2
:102E3000564A0225A2630022E56322641BE762680A
:102E400094F8496094F84830556894F8471094F81D
:102E50004620204643EA0623A84700283FF438AF1F
:102E600043680568A363E563276494F8443002E788
:102E700094F84620012A7FF42BAFB4F84C20A763C6
:102E800022F00202A4F84C20E76327643D46F2E6F4
:102E9000022504F14C02A263E5632664EBE694F894
:102EA000462084F84F20002A44D103222270626811
:102EB0001268002AB2D020460221904794F844308C
:102EC000ACE794F8481011F0800F204601F00F0194
:102ED00033D102F00DF9012833D002287FF4F8AE87
:102EE0002B4BE063A363276494F844300546C2E6A5
:102EF00094F84620002A7FF4EBAE94F8482012F0B4
:102F00000F018BD0130620463AD402F079F994F8D9
:102F1000443083E794F84620012A7FF4D9AEB4F810
:102F20004C20A76342F00202A4F84C20E763276418
:102F30003D46A0E604222270B9E702F0E9F8012834
:102F4000CBD1144BE663A363276494F84430354631
:102F500091E694F84630204684F84E3002F008F8A6
:102F600063681B6813B1204601219847032294F837
:102F70004430227052E702F05BF994F844304DE798
:102F800002F046F994F8443048E700BF406E00086C
:102F9000506E0008906F0008AFF30080AFF3008020
:102FA00038B590F83430022B044624D0052B3AD0A3
:102FB000012B10D0002102F02BF92046002102F055
:102FC0001FF963681B6813B1204605219847062343
:102FD00084F8343038BD90F84B1090F84A30C26B0A
:102FE00043EA0123934206D9C3681B8AB2FBF3F577
:102FF00003FB1525F5B1002103220B4684F834208C
:1030000020460A46FFF78CFD202383F31188FDF745
:1030100017FF00212046FFF7C3FDFDF729FF00231E
:1030200083F3118838BD036C03B19847002384F8FB
:10303000343038BD2B4629462A46FFF781FD202330
:1030400083F31188FDF7FCFE29462046FFF7C8FDF3
:10305000FDF70EFF2B4683F31188022384F83430EA
:1030600038BD00BFAFF30080AFF30080AFF3008046
:1030700090F83430032B10B504462AD0042B11D01D
:103080000021204602F0C4F82046002102F0B8F8E2
:1030900063681B6813B1204605219847062384F80E
:1030A000343010BD002105220B4680F834200A463A
:1030B000FFF746FD202383F31188FDF7C1FE0021B1
:1030C0002046FFF78DFDFDF7D3FE002383F3118823
:1030D00010BDC3689B699B68002BD1D1036C03B101
:1030E0009847002384F8343010BD00BFAFF3008050
:1030F00010B5FDF7DDFE4FF4C043C4F202030848EB
:10310000196802683D2401F03D019C600AB14068E5
:103110009047FDF7EDFEBDE81040FDF709BD00BF8B
:103120000C120020AFF30080AFF30080AFF30080FB
:1031300010B5FDF7BDFE4FF4C043C4F202030948C9
:103140001968826889094FF4746401F03D019C603C
:103150000AB1C0689047FDF7CBFEBDE81040FDF70F
:10316000E7BC00BF0C120020AFF30080AFF300807B
:1031700010B5FDF79DFE4FF4C043C4F202030948A9
:1031800019680269090C4FF4741401F03D019C6048
:103190000AB140699047FDF7ABFEBDE81040FDF76E
:1031A000C7BC00BF0C120020AFF30080AFF300805B
:1031B00010B5FDF77DFE4FF4C043C4F20203094889
:1031C00019688269890D4FF0746401F03D019C60BB
:1031D0000AB1C0699047FDF78BFEBDE81040FDF7CE
:1031E000A7BC00BF0C120020AFF30080AFF300803B
:1031F00010B5FDF75DFE4FF4C043C4F2020308486A
:103200005968026A3D2401F03D01DC600AB1406A60
:103210009047FDF76DFEBDE81040FDF789BC00BF8B
:103220000C120020AFF30080AFF30080AFF30080FA
:1032300010B5FDF73DFE4FF4C043C4F20203094848
:103240005968826A89094FF4746401F03D01DC60B9
:103250000AB1C06A9047FDF74BFEBDE81040FDF78C
:1032600067BC00BF0C120020AFF30080AFF30080FA
:1032700010B5FDF71DFE4FF4C043C4F20203094828
:103280005968026B090C4FF4741401F03D01DC60C5
:103290000AB1406B9047FDF72BFEBDE81040FDF7EB
:1032A00047BC00BF0C120020AFF30080AFF30080DA
:1032B00010B5FDF7FDFD4FF4C043C4F20203094809
:1032C0005968826B890D4FF0746401F03D01DC6038
:1032D0000AB1C06B9047FDF70BFEBDE81040FDF74B
:1032E00027BC00BF0C120020AFF30080AFF30080BA
:1032F00010B5FDF7DDFD4FF4C843C4F202030848E2
:103300001968026C3D2401F03D019C600AB1406CDB
:103310009047FDF7EDFDBDE81040FDF709BC00BF8B
:103320000C120020AFF30080AFF30080AFF30080F9
:1033300010B5FDF7BDFD4FF4C843C4F202030948C0
:103340001968826C89094FF4746401F03D019C6036
:103350000AB1C06C9047FDF7CBFDBDE81040FDF70A
:10336000E7BB00BF0C120020AFF30080AFF300807A
:1033700010B5FDF79DFD4FF4C843C4F202030948A0
:103380001968026D090C4FF4741401F03D019C6042
:103390000AB1406D9047FDF7ABFDBDE81040FDF769
:1033A000C7BB00BF0C120020AFF30080AFF300805A
:1033B00010B5FDF77DFD4FF4C843C4F20203094880
:1033C0001968826D890D4FF0746401F03D019C60B5
:1033D0000AB1C06D9047FDF78BFDBDE81040FDF7C9
:1033E000A7BB00BF0C120020AFF30080AFF300803A
:1033F00010B5FDF75DFD4FF4C843C4F20203084861
:103400005968026E3D2401F03D01DC600AB1406E56
:103410009047FDF76DFDBDE81040FDF789BB00BF8B
:103420000C120020AFF30080AFF30080AFF30080F8
:1034300010B5FDF73DFD4FF4C843C4F2020309483F
:103440005968826E89094FF4746401F03D01DC60B3
:103450000AB1C06E9047FDF74BFDBDE81040FDF787
:1034600067BB00BF0C120020AFF30080AFF30080F9
:1034700010B5FDF71DFD4FF4C843C4F2020309481F
:103480005968026F090C4FF4741401F03D01DC60BF
:103490000AB1406F9047FDF72BFDBDE81040FDF7E6
:1034A00047BB00BF0C120020AFF30080AFF30080D9
:1034B00010B5FDF7FDFC4FF4C843C4F20203094800
:1034C0005968826F890D4FF0746401F03D01DC6032
:1034D0000AB1C06F9047FDF70BFDBDE81040FDF746
:1034E00027BB00BF0C120020AFF30080AFF30080B9
:1034F0000F4B30B400220F4D0F4C1A60114613468B
:10350000E8580C330160A1500832C02BF8D14FF4B9
:10351000C0414FF4C842C4F20201C4F202024FF0AB
:10352000FF338B60CB609360D36030BC704700BFCB
:103530008C120020F06F00080C120020AFF3008006
:103540002DE9F041064684B0002848D0294F747A0E
:103550003868012505FA04FC1CEA000F18BF28464C
:103560003AD1254D4CEA000005EBC40810F0FF0FDE
:10357000C8F804301CBF4FF46053C4F20203386033
:1035800045F834201EBF1C6B44F400141C6310F477
:103590007F4F1CBF4FF46053C4F2020334681EBF58
:1035A000186B40F480001863236823F01F03236026
:1035B000236813F00105FBD1307A73683D2707FAC1
:1035C00000F01860212325601046636122B1B07AB3
:1035D0000901FDF71DFB284604B0BDE8F08107484E
:1035E000039102920193FDF703FD019B029A039957
:1035F000ACE700BF8C1200200C120020A06F000866
:103600004FF46053C4F202030022196941F0010132
:1036100010B419611A61596941F0010159615A6187
:10362000996941F0010199619A61196A19621A62F6
:103630005C6A4EF21001CEF2000144F001045C62BB
:103640004EF6F05044F29F145A62CEF200004C60E5
:1036500007248A600C60C4684FF48051CEF20001E8
:1036600044F08074C460086840F001000860186C81
:103670004FF4E041C4F2000140F080501864086843
:1036800040F480700860196F01F44071B1F5007F5B
:103690001EBF4FF4803119671A674FF46053C4F2AC
:1036A00002031A6F120407D41A6F42F400721A67E9
:1036B0001A6F42F400421A6710BCFFF719BF00BF2F
:1036C0004FF46052C4F202024FF4E043C4F200032C
:1036D0004FF0805111644FF480411A4619605368CD
:1036E0005904FCD54FF46053C4F2020319461A681A
:1036F00042F001021A600A684FF460539207C4F264
:103700000203F8D51A6842F480321A6019460A6832
:103710004FF460539003C4F20203F8D55A6F42F09D
:1037200001025A6719464A6F4FF460539207C4F278
:103730000203F8D545F20C42C0F240725A601A6892
:1037400042F080721A6019460A684FF46053900183
:10375000C4F20203F8D598684FF414424FF4705144
:10376000C3F608020243C4F202019A6040F20572F5
:103770000A609A6842F002029A60996801F00C01AE
:103780004FF460520829C4F20202F6D1536C43F49C
:1037900080435364536E43F480435366704700BFC5
:1037A000F8B541F29026C2F20006304641F2C42537
:1037B000FEF7AEFCC2F200051A4F4FF4005242F67B
:1037C0001643C4F20102C0F20203284641F2F82473
:1037D000C2F20004B262F7623363FEF799FC4FF461
:1037E000045242F61643A7F11801C4F20102C0F2D6
:1037F00002232046AA62E9622B63FEF789FC4FF49C
:10380000085242F61643C4F20102243FC0F20243BA
:1038100012206021A262E7622363BDE8F840FDF751
:10382000F7B900BF80700008AFF30080AFF30080ED
:1038300038B50378012B044600D038BD354DA84279
:1038400016D0354DA8422BD0344DA8423FD04FF46E
:103850000C52C4F20102A36A506800F4400040F424
:103860008030506000210122596099609A6038BD13
:10387000C06A2B4A06212346FFF762FE00283DD18D
:10388000EB6A42F24C0219684FF46053C4F202032F
:10389000C4F201028A605A6C42F480725A64D6E71C
:1038A000C06A1F4A06212346FFF74AFE50BBEB6A57
:1038B00042F24C1219684FF46053C4F20203C4F28E
:1038C00001028A605A6C42F400725A64BFE7C06A0F
:1038D000134A06212346FFF733FEB8B9EB6A42F2DA
:1038E0004C2219684FF46053C4F20203C4F201027F
:1038F0008A605A6C42F480625A64A8E70948FDF76E
:1039000077FBBDE70848FDF773FBD0E70748FDF7F5
:103910006FFBE3E790120020C4120020F812002091
:10392000E1390008B0700008C4700008D8700008C1
:103930000369026B19782DE9F00309B142F4807232
:10394000C468C16A5E8809688568D3F80CC0CD6018
:10395000012C88BF42F0080204FB06F44C600A60A8
:10396000D1F80090D3F814809F69DE691D6A5C6A03
:103970001B69826A49F00109C1F800904CF080602F
:10398000002113F0804F43F4407340F4807014BF63
:1039900043F0030343F001031160C2F80C80176188
:1039A000D6621563546350609360BDE8F0037047BE
:1039B000C16A0A68136823F01F0310B41360136808
:1039C00013F00103FBD10C7A826A49683D2000FAAA
:1039D00004F00860536093600123936010BC70474B
:1039E00011F00C0F38B50D46044620D10369002BA9
:1039F00041D0CA0605D55B681BB1C2688168520810
:103A00009847AB0637D523691A78002A38D05D6805
:103A1000002D30D0E268012A2ED95988A3685208B7
:103A200001FB02F1204603EB4101A84738BDFFF737
:103A3000BFFF23699B684BB10522002122702046FD
:103A400098472378052B01D1022323700025256197
:103A5000202383F31188FDF7F3F9636933B14FF045
:103A6000FF32656118469A62FDF742FBFDF700FAE6
:103A7000002383F3118838BD2046A168A84738BDCC
:103A80002046FFF795FF21694B6843B3E2680420A5
:103A9000012A20701FD94D88A168520805FB02F544
:103AA000204601EB450198472378042B0ED02023B4
:103AB00083F31188FDF7C4F96369002BD6D0002287
:103AC000626118469A62FDF713FBCFE70223237069
:103AD00000232361EBE72046A1689847E4E7022230
:103AE00022702361E3E700BFAFF30080AFF30080F3
:103AF00038B5FDF7DDF94FF40053C4F2010300219E
:103B00001A681960930605D5524CE36A1B685B6816
:103B1000002B6ED14FF40453C4F2010300211A6844
:103B20001960900605D54C4CE36A1B685B68002B56
:103B300038D14FF40853C4F2010300211A68196008
:103B4000910629D5454CE36A1B685B6823B323695A
:103B500013B32046FFF72CFF23699B683BB1052276
:103B600001212270204698472378052B68D0002534
:103B70002561202383F31188FDF762F9606930B174
:103B80004FF0FF338362354B5D61FDF7B1FAFDF70E
:103B90006FF9002383F31188FDF7AAF9BDE83840D7
:103BA000FCF7C6BF2369002BC3D02046FFF700FFF8
:103BB00023699B683BB1052201212270204698476A
:103BC0002378052B42D000252561202383F311881B
:103BD000FDF736F9606930B14FF0FF3383621E4B59
:103BE0005D61FDF785FAFDF743F9002383F3118842
:103BF0009FE72369002B8DD02046FFF7D9FE23696C
:103C00009B683BB10522012122702046984723780A
:103C1000052B18D000252561202383F31188FDF79B
:103C20000FF9606930B14FF0FF338362094B5D617A
:103C3000FDF75EFAFDF71CF9002383F3118869E7AD
:103C40000223237093E702232370E3E70223237008
:103C5000B9E700BF90120020C4120020F812002023
:103C600010B5FDF725F941F22C30C2F200004FF4F7
:103C700070534268C4F20103012400215C6153685F
:103C80009847FDF735F9BDE81040FCF751BF00BF7C
:103C900010B5FDF70DF941F22C30C2F200004FF4DF
:103CA00070534268C4F20103022401215C61D368AD
:103CB0009847FDF71DF9BDE81040FCF739BF00BF7C
:103CC00010B5FDF7F5F841F22C30C2F200004FF4C8
:103CD00070534268C4F20103042402215C615369F9
:103CE0009847FDF705F9BDE81040FCF721BF00BF7C
:103CF00010B5FDF7DDF841F22C30C2F200004FF4B0
:103D000070534268C4F20103082403215C61D36943
:103D10009847FDF7EDF8BDE81040FCF709BF00BF7C
:103D200010B5FDF7C5F841F22C30C2F200004FF497
:103D300070534268C4F20103102404215C61536A89
:103D40009847FDF7D5F8BDE81040FCF7F1BE00BF7D
:103D500010B5FDF7ADF84FF47053C4F201035C6980
:103D600004F478725A61A30624D460061CD4210698
:103D700014D4E2050CD4A30504D5114843680921E5
:103D8000DB6C9847FDF7B4F8BDE81040FCF7D0BEF7
:103D90000B48436808215B6C9847ECE70848436888
:103DA0000721DB6B9847E4E70548436806215B6B16
:103DB0009847DCE7024843680521DB6A9847D4E767
:103DC0002C130020AFF30080AFF30080AFF300802E
:103DD00010B5FDF76DF84FF47053C4F201035C6940
:103DE00004F47C4261055A612CD4220524D4E304F6
:103DF0001CD4A00414D461040CD4220404D51448A7
:103E000043680F21DB6F9847FDF772F8BDE810405B
:103E1000FCF78EBE0E4843680E215B6F9847ECE7B7
:103E20000B4843680D21DB6E9847E4E70848436878
:103E30000C215B6E9847DCE7054843680B21DB6D7E
:103E40009847D4E7024843680A215B6D9847CCE75E
:103E50002C130020AFF30080AFF30080AFF300809D
:103E600010B5FDF725F841F22C30C2F200004FF4F6
:103E700070534268C4F201034FF4803410215C6136
:103E8000D2F884309847FDF733F8BDE81040FCF7CE
:103E90004FBE00BFAFF30080AFF30080AFF30080F0
:103EA00010B5FDF705F841F22C30C2F200004FF4D6
:103EB00070534268C4F201034FF4802412215C6104
:103EC000D2F894309847FDF713F8BDE81040FCF79E
:103ED0002FBE00BFAFF30080AFF30080AFF30080D0
:103EE00010B5FCF7E5FF41F22C30C2F200004FF4B0
:103EF00070534268C4F201034FF4002413215C6143
:103F0000D2F89C309847FCF7F3FFBDE81040FCF76F
:103F10000FBE00BFAFF30080AFF30080AFF30080AF
:103F200010B5FCF7C5FF41F22C30C2F200004FF48F
:103F300070534268C4F201034FF4801414215C6191
:103F4000D2F8A4309847FCF7D3FFBDE81040FCF747
:103F5000EFBD00BFAFF30080AFF30080AFF3008090
:103F600010B5FCF7A5FF41F22C30C2F200004FF46F
:103F700070534268C4F201034FF4800416215C615F
:103F8000D2F8B4309847FCF7B3FFBDE81040FCF717
:103F9000CFBD00BFAFF30080AFF30080AFF3008070
:103FA00008B506206021FCF733FE07206021FCF7EE
:103FB0002FFE08206021FCF72BFE09206021FCF772
:103FC00027FE0A206021FCF723FE17206021FCF762
:103FD0001FFE28206021FCF71BFE01206021FCF75A
:103FE00017FE2920F021FCF713FE2A206021FCF7A0
:103FF0000FFE60213E20FCF70BFE4C206021FCF7F9
:1040000007FE0220F021FCF703FE0320F021BDE8AB
:104010000840FCF7FDBD00BFAFF30080AFF30080A8
:1040200041F22C30C2F20000FEF7E2B8AFF300809C
:10403000426852F83130D80770B441D54FF470540B
:10404000C4F201040120A56800FA01F00543A5604F
:10405000C44313F0020F4FF47053C4F20103DD6840
:1040600014BF05432540DD6002EBC1035B68002BF4
:1040700032D04FF47053C4F201031D682843186016
:10408000586804405C600F2918D888084FF46053C2
:10409000C4F20103023052F8314053F8205001F0CD
:1040A000030189000F2202FA01F2C4F3031425EA86
:1040B000020204FA01F1114343F8201070BC70476A
:1040C0004FF47055C4F201050120AE6800FA01F00A
:1040D000C4432640AE60BCE74FF47053C4F2010302
:1040E0005D6828435860186804401C60CBE700BF37
:1040F0004FF47053C4F201030122186802FA01F16F
:10410000CA431040186058681040586098681040C2
:104110009860D8680240DA6059617047AFF3008058
:1041200038B50378012B054614D0002404E001348F
:10413000FFF77EFF172C0CD06B6853F8343013F068
:10414000040F21462846F2D10134FFF7D1FF172C86
:10415000F2D138BDFFF724FFE7E700BFAFF30080DF
:1041600008B5FCF7A5FE0B4B1878DA680021042887
:10417000118204D1022018701180118291815B6834
:1041800004485B689847FCF7B3FEBDE80840FCF7BD
:10419000CFBC00BF34130020AFF30080AFF300802A
:1041A00041F23433C2F200030022C4F20102184685
:1041B000DA60FEF755B800BFAFF30080AFF30080C0
:1041C00038B50378012B044615D06368A2681B68D4
:1041D000B2FBF3F5013DADB205FB03339A4202D0C9
:1041E0001248FCF705FFE368002208211A80998035
:1041F0001D859A8138BD0E4B9842E6D14FF460532D
:10420000C4F2020319205A6C42F001025A645A6A3D
:1042100042F001025A6200225A627021FCF7F8FC57
:104220004FF4F443C0F60323A360CEE7F070000818
:1042300034130020AFF30080AFF30080AFF30080B1
:10424000C368012200200139D9629A82586218821B
:104250009A8105221A807047AFF30080AFF3008087
:1042600038B51E4DFCF724FE2B691A8A9C89A4B22E
:104270001440E14304F0020289B292B21982002A8A
:1042800027D104F004039BB2002B1DD104F00803D6
:104290009BB2A3B904F010039BB25BB9E30703D54B
:1042A0006B680E489B689847FCF722FEBDE83840D3
:1042B000FCF73EBC6B6809489B6A9847EEE76B6861
:1042C00006481B6A9847E5E76B6804489B6998476E
:1042D000DCE76B6828461B699847D2E74413002047
:1042E00010B541F24434C2F200042046FEF728F82B
:1042F0004FF40063C4F20003236110BDAFF30080EC
:104300000378012B70B504466BD0036900221A8034
:104310009A811A825A639A63DA631A645A626268EB
:10432000E1681668B1FBF6F0451EB5F5803F03D293
:1043300006FB00F0814204D03A48FCF759FE62685F
:1043400023692489D168908D013C01F00F01ADB241
:10435000A4B201291D85DC62988003D002290CBF1C
:1043600003210021506900F00F0001281ED002280F
:104370001AD0D06900F00F0001281ED002282BD0DF
:10438000506A00F00F0001281ED002281FD092684A
:104390001984003218BF0122012199829A810022DA
:1043A0001A8285221A8070BD41F02001D06900F088
:1043B0000F00012841F01001E0D141F48071506AF2
:1043C00000F00F000128E0D141F48051DFE741F413
:1043D000005141F48051DAE741F4007141F48071F9
:1043E000EDE7114B984205D0236946F668021A831F
:1043F0009A8394E74FF46053C4F202031E201A6CB0
:1044000042F004021A641A6A42F004021A6200229C
:104410001A627021FCF7FCFB4FF43D43C0F20153DC
:10442000E360E1E71071000844130020AFF300805F
:1044300010B44468036904EBC10001F10C0403EB00
:1044400084040069626060B19A89022092B200FA25
:1044500001F1114205D189B2C84380B2114399815B
:10446000188210BC704700BFAFF30080AFF300802C
:104470004FF46053C4F202031A6B6FEA52226FEAE0
:1044800042221A631A6D6FEA52226FEA42221A65BB
:1044900000234168C4F202034FF4806259608168CE
:1044A0009960C168D960016959614169196281697E
:1044B000596201681960016AC4F202024FF4006394
:1044C0005160416A9160816AD160C16A5161016B3A
:1044D0001162416B5162C1691160C4F20203C26B87
:1044E0005A60026C9A60426CDA60826C5A61C26CEB
:1044F0001A62026D5A62816B4FF440621960816DDD
:10450000C4F202024FF480535160C16D9160016E9C
:10451000D160416E5161816E1162C16E5162416D17
:104520001160C4F20203426F5A60826F9A60C26FD8
:10453000DA60D0F880205A61D0F884201A62D0F86E
:1045400088205A62016F4FF4A0521960D0F8901081
:10455000C4F202024FF4C0535160D0F8941091603D
:10456000D0F89810D160D0F89C105161D0F8A0100C
:104570001162D0F8A4105162D0F88C101160D0F8FC
:10458000AC10C4F202034FF4E0525960D0F8B010FE
:104590009960D0F8B410D960D0F8B8105961D0F84B
:1045A000BC101962D0F8C0105962D0F8A810C4F23B
:1045B00002021960D0F8C8305360D0F8CC30936054
:1045C000D0F8D030D360D0F8D4305361D0F8D830A0
:1045D0001362D0F8DC305362D0F8C4104FF40053AB
:1045E0001160D0F8E420C4F202035A60D0F8E82049
:1045F0009A60D0F8EC20DA60D0F8F0205A61D0F858
:10460000F4201A62D0F8F8205A62D0F8E0201A603C
:10461000704700BFAFF30080AFF30080AFF30080BE
:104620002DE9F00F002302F00307C2F38006C2F366
:10463000C105C2F341144FF00F09C2F3C3124FF08A
:10464000010A04E07600AD00A400BF00013303F0CE
:10465000070C4FEA8C0C11F0010F02FA0CF809FA62
:104660000CFC3CD0072B95BFD0F820B0D0F824B07C
:104670002BEA0C0C2BEA0C0C95BF4CEA08084CEA10
:104680000808C0F82080C0F82480D0F804C00AFAD6
:1046900003F82CEA080C4CEA060CC0F804C04FF0F2
:1046A000030B4FEA430CD0F808800BFA0CFC6FEABE
:1046B0000C0C0CEA080848EA0508C0F80880D0F895
:1046C0000C800CEA080848EA0408C0F80C80D0F80E
:1046D00000800CEA080C4CEA070CC0F800C049083E
:1046E000B0D1BDE8F00F7047AFF30080AFF30080AA
:1046F000416D036D00222DE9F00110468F684FF0E7
:10470000804C4FF0FF3618E0585055015C1902F10B
:1047100058014901C4F81009C4F8086953F8018028
:10472000B8F1000FA8BF585016DB5D190132BA422C
:10473000C5F8100BC5F8086B15D802F148014901FE
:104740005C58002CE0DA550143F801C05C19D4F83C
:1047500008198907FBD5D9E743F801C0D4F8081B2D
:10476000C906FBD5E1E74FF00112C3F81C28BDE8EC
:10477000F0017047AFF30080AFF30080AFF300802B
:10478000F8B5046D04EB41134FF0FF32D3F8086B1A
:10479000C3F8082B330705460F4603D5D4F8143861
:1047A0001A0715D4F30703D5D4F81438D80700D462
:1047B000F8BD05EB87036989DB68012202FA07F27D
:1047C00021EA02026A81DB68284639469847F8BD2B
:1047D00000EB8103DB685B689847E3E7AFF3008099
:1047E000026D890141F02003136113699906FCD41D
:1047F0000C20FDF75DBC00BFAFF30080AFF300807D
:104800002DE9F04F41F2C411C2F2000187B08A696C
:10481000016D0191AF4980469161202383F3118896
:10482000FCF7D6FA4FF0000998F80030012B06D0BB
:10483000D8F85C309BB9019A5369D8060FD4019916
:104840008A6941F2C411C2F2000142F010028B6980
:10485000019902208A61C8F86430FCF7A1FCFCF7DA
:10486000CFFA002383F311881C46019A536913F091
:10487000100525D0D8F850100E6A06F4F013B3F5E1
:10488000802F34D0B3F5402FEFD106F00F0208EBA4
:104890008202C6F30A13D26803339B08106AE4D07D
:1048A000022201F5805EDEF8001012B140F8041B10
:1048B000013A013BF7D1019A536913F01005D9D1A0
:1048C0000121D8F85C30A1401942039140F0888062
:1048D00001340494D8F8543004999B68CCB29C42BB
:1048E000C3D9202383F31188FCF772FA9CE706F002
:1048F0000F07023708EB8703C6F30A165B6898694F
:104900000378EBB9021D2CCA0332D21AF31C9208A9
:104910009B081CBFAC4601F5805E07D0DEF8001096
:1049200012B14CF8041B013A013BF7D1AD19C56037
:1049300008EB87077B689B699A6892199A6094E7ED
:1049400001F5805EC5685EB33046032807D96B6900
:104950002A69934241D3EB6803286B61F7D8DEF8EC
:1049600000C0E8B16B69002200E06B69D1002CFA4D
:1049700001F103F8011B29696B618B4224BFEB68CD
:104980006B61013802F101020CBF00230123032AED
:104990008CBF002303F00103002BE6D10028D4D103
:1049A000202383F31188FCF713FAAB6828689B195E
:1049B000A842AB6009D003682B605D60FCF798FBF0
:1049C000C0F828902868A842F5D1FCF7C1FCFCF794
:1049D00017FA002383F31188AAE7DEF800C0C2E7C4
:1049E000202383F31188FCF7F3F90199D8F85C30A0
:1049F0008A68039923EA0103019922F001028A607F
:104A0000C8F85C30FCF7FCF92B4683F31188A31C33
:104A100008EB83035D686869816846688E4240F2EE
:104A2000CA80D8F850202D8A670102EB070E761A4B
:104A3000DEF81819AE4238BF354689B20134B5EBFD
:104A4000810F04942DD8260302930378002B43D1C1
:104A5000EB1C9B0802EB060CC46807D0221D52F821
:104A6000041C0432013BCCF80010F8D16419C46076
:104A7000029A5468606983684168EB1899428360C0
:104A800040F29B80D8F85020248A02EB070ECD1A02
:104A9000DEF81839A54228BF25469BB2B5EB830F37
:104AA000D3D90024202383F31188FCF791F90199CD
:104AB0008B6843F001038B602CB9D1F83438039A2A
:104AC0001343C1F83438FCF79BF9002383F31188B2
:104AD00000E700BF4071000802EB060CC4683DB35C
:104AE0002946AE46059688083FD02569A669AA1BC7
:104AF000D31C32EA220228BF1A469310984238BFCC
:104B000003464FEA830BCBEB010143B1321D52F850
:104B1000040C0432013BCCF80000F8D15E44B542ED
:104B2000A66145D8E368A3610029DCD1059E7546DE
:104B3000202383F31188FCF74BF9A36820685B19E5
:104B4000A042A36009D0036823605C60FCF7D0FA40
:104B5000C0F828902068A042F5D1FCF7F9FBFCF7DB
:104B60004FF9002383F3118882E70846D9B12569FC
:104B700000200246A36913F801ABD600AB42A36143
:104B800024BFE368A361013902F101020CBF0023D5
:104B900001230AFA06F6032A8CBF002303F001035F
:104BA0003043002BE6D1CCF8000000299BD1BDE7B3
:104BB0000029DDD1BAE701340494012472E700BF73
:104BC000F8B5046D04EB41134FF0FF32D3F80869D8
:104BD000C3F80829F30705460F4603D5D4F8103863
:104BE000DA0723D4330606D50122D4F8343802FA82
:104BF00007F71F4200D1F8BD202383F31188FCF78B
:104C00001FF9EB6DD4F83428686E3B4322EA07079E
:104C1000EB65C4F8347818B1FCF76AFA00236B66C8
:104C2000FCF726F9002383F31188F8BD00EB81031C
:104C3000B0F808E0DB68012202FA01F22EEA020273
:104C400002819B689847CDE7AFF30080AFF3008007
:104C500070B5424EFCF72CF9356D6B69AC691C40A0
:104C6000E1046C612DD4A20448BFD5F808382307AD
:104C700004D57368DB680BB138489847E0062BD43D
:104C80006103D5F8185807D5EA074FD4AB0753D4BA
:104C9000680757D429075BD4220307D5EB0338D420
:104CA000A8033CD469032DD42A0305D4FCF720F9CA
:104CB000BDE87040FBF73CBF28480321FFF760FDCB
:104CC000F4E73046FDF7ACFF73681B68002BCAD0D1
:104CD000304600219847C6E7202383F31188FCF76C
:104CE000AFF8AB69706E23F01003AB6120B1FCF735
:104CF000FFF91A4B00225A66FCF7BAF8002383F337
:104D00001188BDE702211548FFF73AFD2A03CDD5EA
:104D1000D2E712480021FFF733FDA803C2D50121D5
:104D20000E48FFF72DFD6903BED5EBE700210B48C8
:104D3000FFF746FFAB07ABD508480121FFF740FF5F
:104D40006807A7D502210548FFF73AFF2907A3D531
:104D500002480321FFF734FF9EE700BF58130020ED
:104D600038B541F25834C2F200042046FDF760FE27
:104D70000023236663664FF0A04304F1B405236566
:104D800047F230132946FF2204F16800C0F6000301
:104D90006365FCF735FB284604F5A6715522BDE88E
:104DA0003840FCF72DBB00BFAFF30080AFF30080AD
:104DB00070B50378056D012B82B0064601D002B0B4
:104DC00070BD304B984249D0336E0022F265002B03
:104DD00038D04FF4A2520323C0F22023C4F20002C1
:104DE000346DEA60C5F800380023C5F8003E4FF482
:104DF0005023AB63012323612369D807FCD40C2023
:104E0000FDF756F92369002BFCDA0024AC6030462C
:104E1000FFF76EFC7368C5F81048DB68C5F81448E6
:104E2000C5F81C4853B143F20803AB614FF0FF33A0
:104E30006B61AB6843F00103AB60C0E74FF44053D4
:104E4000AB61F3E7009606F168004FF49871022217
:104E50000D4BFCF7DDFA70663066BAE74FF460532D
:104E6000C4F2020343205A6B42F080025A635A692B
:104E700042F080025A6100225A61E021FBF7C8FE2D
:104E8000A2E700BF5813002001480008AFF30080DC
:104E90002DE9F04180460021046DFFF7A1FCD8F810
:104EA00054E0DEF8080000234FF00065FF2103F115
:104EB000480703F1580604EB43127F0176010133E2
:104EC0008342E551A551C2F80819C2F8081BEED972
:104ED000DEF80030D8F850204FF0FF31C4F8181831
:104EE0004FF00111C4F81C18C8F858306362102341
:104EF0001361136913F01005FBD10C20FDF7D8F8EE
:104F0000D4F80028D8F85430D8F85860586822F4FB
:104F1000FE63C4F80038A76947F44027092147F029
:104F20001007A76106F11002C4F8101848F24003F8
:104F3000C4F814180C49C1F200038242C8F80C10DE
:104F4000C4F8105BC4F8003BC4F81059C4F8003929
:104F5000C8F8582002D90548FCF74AF846F48016EC
:104F6000A662BDE8F08100BF7071000850710008B2
:104F7000036D90F84E10D3F8002822F4FE6242EA46
:104F80000112C3F800287047AFF30080AFF3008030
:104F90002DE9F84F8F1C00EB87034FF400485B6846
:104FA000046D1A6802F00302022A0D46064608BF85
:104FB000C1F208080CD0032A08BFC1F20C0807D0C0
:104FC0004146C1F20001C1F20408012A18BF884617
:104FD0006A01A0180021C0F8101BD968002951D01F
:104FE000588A05F15801490148EA000060504FF025
:104FF000010ED4F81C0805F110010EFA01F101436D
:10500000C4F81C18A21899680020C2F810090029D9
:105010004BD09A8B198AD6F858908B08012A88BFF2
:105020005343726D516803EB09028A42B26505F180
:10503000FF3B4FEA034A21D80BF1400B04EB8B0BEB
:105040004AEA0903304606EB8706CBF804302946C6
:10505000FFF7C6FB7268128A05F148035B0142EA5A
:10506000855242EA0802E2500122D4F81C3802FAC2
:1050700005F51D43C4F81C58BDE8F88F1A48FBF726
:10508000B7FFD9E705F15801490105F1100E605845
:1050900020F4004060500121D4F81C0801FA0EF100
:1050A00020EA0101C4F81C18ACE705F13F0204EB4B
:1050B00082024FF48063C0F20023536029463046D9
:1050C000FFF78EFB05F148035B01E25822F4004232
:1050D000E2500122D4F81C3802FA05F523EA05054E
:1050E000C4F81C58BDE8F88F50710008AFF3008079
:1050F0005831036D49015B5813F4004004D013F498
:10510000001F0CBF02200120704700BFAFF30080DA
:105110004831036D49015B5813F4004004D013F487
:10512000001F0CBF02200120704700BFAFF30080BA
:1051300000EB8101CB681B6A19685B6811605360E2
:10514000704700BFAFF30080AFF30080AFF3008083
:1051500000EB810310B4DB68006D9A695B8A5468C8
:10516000013CE41843F0C04200EB4111B4FBF3F3FF
:1051700042EAC343C1F8103B10BC7047AFF3008054
:1051800000EB810310B4DA6853695B686BB1128A73
:10519000006D5C1EA418B4FBF2F200EB411143EA6F
:1051A000C243C1F8103910BC7047036D03EB4111C5
:1051B0004FF40023C1F81039F5E700BFAFF30080CA
:1051C0005831036D49015A5842F080625A50704775
:1051D00001F14802036D5201985840F00440985084
:1051E0000120D3F8342800FA01F11143C3F8341830
:1051F000704700BFAFF30080AFF30080AFF30080D3
:105200005831036D49015A5842F400125A50704700
:105210004831036D49015A5842F400125A50704700
:105220005831036D49015A5822F400125A50704700
:105230004831036D49015A5822F400125A50704700
:105240004FF4A053C4F201039A8992B242F0800253
:105250009A817047AFF30080AFF30080AFF3008016
:105260002DE9F041FBF724FE554B5D6FAE892C888C
:10527000A988A4B22207B6B28FB259D104F48073C0
:105280009BB2002B3ED104F020039BB2002B2AD10D
:1052900006F080039BB223B104F080039BB2002B85
:1052A00070D104F04004A4B2BCB1202383F3118870
:1052B000FBF7C6FD43481021FCF73AFBFBF7D8FD8E
:1052C000002383F311884FF6BF733340AB812B88E3
:1052D00023F040031B041B0C2B80FBF709FEBDE8E9
:1052E000F041FBF725BC202383F31188FBF7A8FDD1
:1052F0003348F9B2FDF724F9FBF7BAFD002383F335
:105300001188C5E7202383F31188FBF799FD2D4809
:105310004FF40071FCF70CFBFBF7AAFD002383F3AD
:1053200011882B8823F480731B041B0C2B80AAE7A5
:1053300004F008081FFA88F8B8F1000F14BF4FF006
:1053400080084FF00008E30704F002039BB248BF57
:1053500048F020080BB148F0400804F004039BB269
:105360000BB148F48078202383F31188FBF768FDA4
:1053700014484146FCF7DCFAFBF77AFD002383F37F
:1053800011887BE7202383F31188FBF759FD0E4832
:10539000FCF79EFC0028A4BF80B2A88005DBFBF7C9
:1053A00067FD002383F311887BE706480821FCF79B
:1053B000BFFA26F0C00343F04003AB81EFE700BF24
:1053C000081500200C15002038150020AFF30080D0
:1053D00010B541F20854C2F2000445F241222046C1
:1053E0000021C0F60002FDF75BF84FF4A053C4F2B1
:1053F0000103636710BD00BFAFF30080AFF300800F
:1054000038B5037A234C002918BF0C46012B0546FA
:1054100030D06B6F4FF4A0514FF48052C4F20102B0
:10542000C4F20101934218BF8B4208BF4FF43D42C2
:10543000216816BF4DF68062C0F20152C0F2802290
:10544000B2FBF1F292B21A81A288E088218942F47B
:10545000045240F0400041F0010142F02C0292B2AF
:1054600080B289B2188299829A8100221A801A88A1
:105470009B8838BD084B9842CBD14FF46053C4F29F
:10548000020347205A6C42F020025A64C021FBF705
:10549000BFFBBEE7A071000808150020AFF3008035
:1054A000FEF70EB9AFF30080AFF30080AFF30080DA
:1054B000704700BFAFF30080AFF30080AFF3008010
:1054C000F0B400F10B0C00F10A050C46B1FBF2F64A
:1054D00002FB161101F13003392BC8BF01F137036C
:1054E000DBB2B4FBF2F42F46314605F80139002C4B
:1054F000ECD1C7EB0C013A46411801E012F8013F2C
:1055000000F8013B8842F9D1F0BC7047AFF300804E
:105510000EB42DE9F04F86B00FAB0DF10C0853F827
:10552000044B02930DF10D03C8EB030C00930646E8
:10553000CDF804C0254615F8011B59B125290ED018
:1055400033682C46254630469B68984715F8011B62
:105550000029F3D106B0BDE8F04F03B0704763787F
:105560002D2B18BF4FF0000B00F0128120272E2B9F
:1055700000F00A812C460299002506E00A780431E1
:1055800005EB8505237802EB4505A3F13002D2B285
:105590000134092AF4D92A2BF0D000202E2B0291B5
:1055A0004BD003F0DF024C2A55D12278012112B1F1
:1055B000013413460121A3F14402342A00F2DC80B5
:1055C000DFE812F0CA00DA00DA00DA00DA00CA0016
:1055D000DA00DA00DA00DA00DA00E000DA00DA00F5
:1055E000DA00DA00DA00C200DA00DA00B500DA0028
:1055F000DA00DA00DA00DA00DA00DA00DA00DA00DB
:10560000DA009500CA00DA00DA00DA00DA00CA002F
:10561000DA00DA00DA00DA00DA00E000DA00DA00B4
:10562000DA005000DA00C200DA00DA00B5000A78C9
:10563000043100EB800002EB400014F8013BA3F1C1
:105640003002D2B2092AF4D92A2BF0D003F0DF02BB
:105650004C2A0291A9D0A3F1410119298CBF002144
:105660000121A8E7029A47F2B023D2F80090C0F6D1
:105670000003B9F1000F08BF9946111D99F80020E9
:10568000029147F6FF71002808BF0846002A00F083
:10569000A0804946484402E0904200F096804F784E
:1056A0004A1C1146002FF7D1C9EB020ACAEB0505C7
:1056B000202725EAE575BBF1000F29D0BAF1000FCC
:1056C000C8BF09EB0A0B07DD326819F8011B9268A5
:1056D00030469047D945F7D1002D3FF42BAF3368C2
:1056E00030469B6839469847013DF8D122E7029B36
:1056F000DDF804A01A68043302938DF80C202027EB
:10570000C146CAEB050525EAE575BBF1000FD5D109
:105710006D42002DD2D099F800102D294AD0316861
:1057200030468B68394698470135F8D1C6E71022D4
:10573000029B69B1191D029119684046FFF7C0FE2E
:10574000C146C8EB000ADCE70A22029B0029F1D11E
:10575000181D19680290F0E7029B1A1DE9B9196833
:1057600002920029A8BF40461DDB0A22FFF7A8FECF
:10577000C146C8EB000AC4E78DF80C30DDF804A080
:10578000C146BEE70822D3E76B7830270135F1E642
:10579000A51CA3784FF0010BE8E6196802920029D6
:1057A000A8BF4046E1DA2D238DF80C3049420DF1B7
:1057B0000D00DAE7302FB2D132683046936898474F
:1057C00009F101090AF1FF3AA9E7C9EB000A20270C
:1057D00097E79246202794E7AFF30080AFF300806D
:1057E00038B504460D4698B128600C492046FBF7B1
:1057F00007F8241820460949FAF7E2FF286018B193
:10580000002300F8013B2860237823B1204638BDEF
:105810000C68002CE9D10024204638BDC072000875
:10582000002903DD0449054AFFF772BE044B054910
:10583000DA68FFF76DBE00BFC4720008D0720008BE
:10584000B4110020D8720008AFF30080AFF30080DD
:1058500010B5002982B0044606DD1949194A02B084
:10586000BDE81040FFF754BE1749184AFFF750FE35
:1058700020461749174AFFF74BFE20461649174A9C
:10588000FFF746FE20461649164AFFF741FE20461E
:105890001549164AFFF73CFE20461549154AFFF701
:1058A00037FE20461449154AFFF732FE144B1549BE
:1058B00000932046144A154BFFF72AFE02B010BD94
:1058C000C4720008E0720008E8720008FC72000868
:1058D0000C730008207300082C7300084073000844
:1058E0004C730008607300086C7300088073000834
:1058F00098730008AC730008C8730008DC730008D4
:1059000018740008F0730008087400081474000884
:1059100041F28053C2F200031B607047AFF3008076
:1059200000B583B045F6E1130090C0F600030020F7
:10593000FBF78EFE03B000BDAFF30080AFF3008035
:10594000F0B5013A83B00E4604460D468F18236821
:1059500001220DF107015B682046984738B39DF896
:105960000710042926D008290ED00D2928D01F2978
:10597000EDD9BD42EBD2236820469B6898479DF83D
:10598000073005F8013BE2E7B5422046DFD0236847
:105990009B689847236820219B6820469847236886
:1059A0009DF807109B6820469847013DCFE70120EE
:1059B00003B0F0BD20460649FFF7AAFD0120F7E736
:1059C00020460449FFF7A4FD00202870F0E700BF3F
:1059D000247400086C7A0008AFF30080AFF30080F5
:1059E0002DE9F0435E4B06689B695E4AD0F804805F
:1059F0005D499A6197B03046FFF78AFDDFF88891DC
:105A000030465A49FFF784FD304606A94022FFF789
:105A100097FF044600282FD1694606A8FFF7E0FE4D
:105A20006946074600206D46FFF7DAFE50B1042CA8
:105A30001BD045F8040F694600200134FFF7D0FE63
:105A40000028F4D116AA02EB840343F8540C002F6B
:105A5000D6D038464649FAF793FE08BB84B13046A3
:105A60004449434AFFF754FDCAE730464249FFF72D
:105A70004FFD00230593C3E730464049FFF748FD3B
:105A8000202383F31188FBF7A3F900213C48FBF79F
:105A90004FFF0020FBF764FD002017B0BDE8F08346
:105AA00038463849FAF76CFE30B93046CCB1314946
:105AB000344AFFF72DFDA3E7D9F80000002833D0C2
:105AC000314D03E055F8080F00282DD03946FAF77C
:105AD00057FE0028F6D16B683046214601AA984748
