:020000040800F2
:1000000000040020D1030008F1040008F1040008F6
:10001000F1040008F1040008F1040008F1040008EC
:10002000F1040008F1040008F104000821050008AB
:10003000F1040008F1040008F104000801060008BA
:10004000F104000841310008F104000841320008C1
:10005000F1040008F1040008412F0008712F000886
:10006000A12F0008D12F00080130000881280008C6
:10007000C128000801290008412900088129000839
:10008000C1290008012A0008F1040008F104000851
:10009000F1040008F1040008F10400083130000800
:1000A000F1040008F1040008F1040008F10400085C
:1000B000F1040008F1040008F1040008F10400084C
:1000C000F1040008D1350008E1360008F104000809
:1000D000F1040008F1040008F1040008F10400082C
:1000E000B1300008F104000881310008F104000873
:1000F000F1040008F1040008F1040008412A000896
:10010000F1040008F1040008F1040008F1040008FB
:10011000F1040008F1040008F1040008F1040008EB
:10012000812A0008C12A0008012B0008412B000881
:10013000812B0008F1040008C1310008F104000817
:10014000F1040008F1040008F104000891400008DF
:10015000C12B0008012C0008412C0008F1460008C2
:10016000F1040008F1040008F1040008F10400089B
:1001700001320008F1040008F1040008F10400084D
:08018000F1040008F10400087D
:10019000F0B54FF4A05687B0C4F2020601F0C8FCD7
:1001A00000F0AEFA04F0DCFF3046012140F21E22DE
:1001B00003F046F93046022140F21A2203F040F9DA
:1001C00040F23A223046042103F03AF93548364FDE
:1001D000364C02233383054601F08AFE3946284611
:1001E00001F0B6FE3E68F36B9A6B22F400229A632C
:1001F0004FF47A7000F0C4FE30462D4902F000F84A
:10020000F36B9A6B42F400229A6304F079FD04F0D8
:1002100007FF284804F01CFF274B28495868002690
:1002200001F0EEFCF0214022254B0096254800F01D
:100230006FFEF0214022244B0096244800F068FE17
:100240004FF4D8714022224B0096224800F060FE05
:10025000214802A9012201F083F827460CE090F81A
:1002600020300E2B19D04FF4FA71012001F010F953
:1002700001461A4801F0E4F820680028EFD1D5F8CB
:1002800054321B681B78042BE9D115484FF40B61DD
:10029000402204F03DFD3860E5E700F0C1FE266035
:1002A000E1E700BFEC110020C06300081817002030
:1002B000D0620008300E00201411002030640008C5
:1002C0006152000820170020915200087814002085
:1002D0004152000868150020E81100205064000811
:1002E00040640008AFF30080AFF30080AFF30080FC
:1002F0008218034601E003F8011B9342FBD17047CB
:100300000D4B70B51D680022845C2B195B7803F0DF
:100310000303012B8B5C05EB030608BF20347678C2
:1003200006F00306012E08BF2033E41A02D1013281
:10033000002BE9D1204670BD00080020000000001D
:1003400070B50246007840B970BDB5420CD01C466D
:1003500013F8016B002EF8D100E00C46104612F89D
:10036000015B0DB10B46F2E72378002B08BF00209C
:1003700070BD000000000000000000000000000050
:1003800070B5034607E0AC4205D012F8015F002DBE
:10039000F9D1301A70BD1E4613F8014B002CF8D06D
:1003A0004A1EF2E70000000000000000000000000C
:1003B000704700BFAFF30080AFF30080AFF3008061
:1003C000FEE700BFAFF30080AFF30080AFF3008023
:1003D00072B6374880F30988022383F31488BFF389
:1003E0006F8F344A344B9A420BD2D143C91821F053
:1003F0000301131F89184FF0553243F8042F8B4225
:10040000FBD12E4A82420CD22D49131DC91A21F06C
:100410000301131F89184FF0553243F8042F8B4204
:10042000FBD104F035FA2749274B99420BD2C84338
:10043000C01820F00300254C043000231A595A50EC
:1004400004338342FAD1224A224B9A420AD2D14340
:10045000C91821F00301131F8918002243F8042F43
:100460008B42FBD1FFF7A4FF1B4D1C4B9D420BD2CF
:10047000EE43F618B608043D0136002455F8043F53
:1004800001349847B442F9D1FFF782FE144D154B61
:100490009D420BD2EE43F618B608043D0136002407
:1004A00055F8043F01349847B442F9D1FFF788FF6B
:1004B00000080020000000200004002000040020AC
:1004C00003080020000800202408002058640008C9
:1004D0002808002010180020880100088801000862
:1004E0008801000888010008AFF30080AFF30080A6
:1004F000FEE700BFAFF30080AFF30080AFF30080F2
:1005000072B6FEE7AFF30080AFF30080AFF3008078
:1005100000F086F900F05CFC00F09AF900DF00BF03
:10052000EFF30983203383F30988002383F31188D1
:10053000704700BFAFF30080AFF30080AFF30080DF
:1005400008B54FF46D43CEF200034FF44072C0F291
:10055000FA520021996007201021DA6000F0A8F813
:100560000A204FF4007100F0A3F80B208021BDE8B1
:10057000084000F09DB800BFAFF30080AFF30080EB
:10058000202383F311884FF46D43CEF200035B68A0
:1005900013F400631AD0EFF30983A3F1200282F36E
:1005A000098811494FF080708A6943F8040C92F869
:1005B000230009689268896858B1914294BF00226B
:1005C000012262B1094A43F8082C704783F311886D
:1005D0007047914234BF00220122002AF2D1044A1E
:1005E00043F8082C704700BF5C0D0020110500087F
:1005F0001C050008AFF30080AFF30080AFF300806C
:1006000008B500F07DF9202383F3118800F040F94C
:1006100000F0B6F800F054F9002383F3118800F0DD
:100620008FF9BDE80840FFF7ABBF00BFAFF3008014
:100630002DE9F04FC1F80CD0D0F80CD0BDE8F08F08
:1006400008B500F005F9002383F311882846A04778
:1006500000F0D6FC08BD00BFAFF30080AFF3008010
:10066000F0B44FF461438408CEF20003C03400F0CC
:10067000030553F82470ED00FF26420906FA05F63B
:1006800027EA060601FA05F500F01F0002F16007EF
:10069000012101FA00F02E4343F8246043F82700BB
:1006A00043F82200F0BC7047AFF30080AFF3008046
:1006B00082084FF46D43CEF20003063200F00300CF
:1006C00030B4C00053F82250FF2404FA00F425EAA5
:1006D000040401FA00F10C4343F8224030BC704797
:1006E000024B034A9B699A61FEE700BF5C0D002044
:1006F000C0530008AFF30080AFF30080AFF3008079
:1007000030B583B0FFF71CFF00F00AFA00F0A0F943
:1007100001F0B6F801F00CF900F062F940F628009B
:100720004021C2F2000000F063FB40F65C5440F24E
:100730000043C2F20003C2F200040125C36180F845
:100740002050A06100F054F8002383F3118862B6B2
:1007500045F29051A269C0F60001916140F678001F
:10076000009340F2E163C0212A46C0F60003C2F2C2
:10077000000000F0CDFB03B030BD00BFAFF3008040
:10078000F8B500F0FDF8164B9B6993F8232012B1E1
:10079000013A83F823205A6A124D01325A62EB68FB
:1007A0002C680133AC42EB6018D0A768013FA7600A
:1007B000A7B92368E6685D60E7602B6000F080F809
:1007C000002383F311882069B047202383F3118825
:1007D00000F05EF82C68A368002BEAD0F8BD00BFDB
:1007E0005C0D00204C0D0020AFF30080AFF30080C3
:1007F000054B1B6813B9054B1B6823B1044A054B15
:100800001A60FFF77DBE704738090020440D0020B4
:10081000E0530008480D0020AFF30080AFF30080E4
:10082000074B1B6810B5074C0BB9236823B1064A68
:10083000064B1A60FFF764FE0123236010BD00BF62
:1008400038090020440D0020E8530008480D00201E
:10085000084B1B6810B5084C2BB92368002B02DD30
:100860000023236010BD054A054B1A60FFF748FEC0
:10087000F6E700BF38090020440D0020F0530008BF
:10088000480D0020AFF30080AFF30080AFF300808D
:10089000074B1B68002B10B5064C01DD236823B104
:1008A000054A064B1A60FFF72BFE0123236010BD9B
:1008B00038090020440D0020F8530008480D00209E
:1008C000084B1B68002B10B5074C05DD2368002B77
:1008D00002DD0023236010BD044A054B1A60FFF7B8
:1008E0000FFEF6E738090020440D002000540008F0
:1008F000480D0020AFF30080AFF30080AFF300801D
:1009000010B5202383F31188094C2368002B02DBE8
:10091000084A12682AB1084B084A1A60FFF7F0FD2E
:10092000236801332360002383F3118810BD00BFC7
:1009300038090020440D0020480D0020085400080C
:1009400010B5202383F31188094C2368002B02DDA6
:10095000084A12682AB1084B084A1A60FFF7D0FD0E
:100960002368013B2360002383F3118810BD00BF7F
:1009700038090020440D0020480D002010540008C4
:10098000064B1B68002B04DB054B1B68002B00DDAE
:100990007047044A044B1A60FFF7B2BD38090020C3
:1009A000440D002018540008480D0020AFF30080CB
:1009B000064B1B6823B9064B1B68002B00DD7047F4
:1009C000044A054B1A60FFF79BBD00BF38090020A1
:1009D000440D002020540008480D0020AFF3008093
:1009E00040F63C13C2F200031A46402142F8081BAD
:1009F0005A607047AFF30080AFF30080AFF3008020
:100A00000C490D4A10B4CC680C49536889691C60C4
:100A10005960816A996090F8204003F1100102F555
:100A2000816081421C732ABF02F108035160536048
:100A300010BC70474C0D00203C0900205C0D0020CC
:100A400040F64853C2F200031860FFF759BD00BFDB
:100A500040F64C53C2F200034FF0FF329A6000227E
:100A60005B601B60DA607047AFF30080AFF300801B
:100A7000F8B5054616460C461F46FFF781FF002DC8
:100A800018BF002E1AD0CCB10E492F610B68EE6052
:100A90009A68944204D91B68A41A9A68A242FAD3AD
:100AA0005A68AC608B426A602B60156018BF9A6808
:100AB0005D601CBFC4EB02049C60F8BD0248FFF7F8
:100AC000BFFFE1E74C0D002030540008AFF3008079
:100AD00010B50446FFF754FF84B1E36893B123686F
:100AE0000A4A93421FBF9968A2688A189A6062688E
:100AF000136023685A600023E36010BD0448FFF7C9
:100B00009FFFEAE70348FFF79BFFE8E74C0D002053
:100B10004054000850540008AFF30080AFF3008049
:100B200040F65C53C2F2000300225B601B609A60D7
:100B30005B611B61704700BFAFF30080AFF30080C3
:100B400010B50446FFF71CFF94F82030002B18BFA7
:100B50000E2B0FD00022A168084B84F820201B68C0
:100B60009A688A42FBD25A682360626014605C60B3
:100B7000204610BD0248FFF763FFEBE75C0D002045
:100B800070540008AFF30080AFF30080AFF3008033
:100B900010B52023044683F31188FFF779FE94F8FB
:100BA00020300D2B11D8DFE803F016101007100BC2
:100BB000101010101010100BA36A9A6801329A607E
:100BC00094E80C001A60226853604FF0FF33A36270
:100BD0002046FFF7B5FFFFF773FE002383F311886C
:100BE00010BD00BFAFF30080AFF30080AFF3008013
:100BF00070B5114C0646FFF7DBFE2368A5691A683D
:100C000085F82060142185F823100121546083F8B1
:100C1000201028462260A361FFF7F2FEEB69ADF1D8
:100C20002402934202D90548FFF70AFFA06929462A
:100C3000BDE87040FFF7FCBC5C0D00208454000848
:100C400070B50C4686B00646FFF7B2FE631C12D0A4
:100C50000B4D0C4AAB69214601A8FFF709FF30464E
:100C6000FFF7C6FF049B13B101A8FFF731FFAB6983
:100C7000986A06B070BD3046FFF7BAFF004DF6E740
:100C80005C0D0020910B0008AFF30080AFF30080F3
:100C900070B5144D04460E46FFF78AFEA869A26897
:100CA0008368A6629A4213D9FFF74AFF01230646DA
:100CB00084F82030AC61FFF7A3FEF369ADF12402A4
:100CC00093420AD820463146BDE87040FFF7B0BCD9
:100CD0002046BDE87040FFF733BF0348FFF7B0FE82
:100CE000F0E700BF5C0D002084540008AFF30080E3
:100CF00038B5104C2368A5691A68012183F82010C3
:100D00001421546085F8231028462260A361FFF760
:100D100017FF2846FFF774FEEB69ADF124029342FA
:100D200002D90548FFF78CFEA0692946BDE8384086
:100D3000FFF77EBC5C0D002084540008AFF30080F8
:100D400070B5144E3368B5691A68AC6856600121F5
:100D50003260002283F82010B36185F8202000E083
:100D60001B689A68A242FBD85A682B606A601560BB
:100D70005D602846FFF744FEEB69ADF12402934223
:100D800002D90548FFF75CFEB0692946BDE870400E
:100D9000FFF74EBC5C0D002084540008AFF30080C8
:100DA00008B5FFF705FE064B1A689B6992689B68B9
:100DB0009A4200D808BDBDE80840FFF7C1BF00BF98
:100DC0005C0D0020AFF30080AFF30080AFF3008034
:100DD000044B9B6993F823300BB1FFF7B1BFFFF7CA
:100DE00087BF00BF5C0D0020AFF30080AFF3008031
:100DF0002DE9F00140F65C54C2F20004002265695E
:100E00004164046100F13006816000F12C0C00F1B6
:100E10004C0745614FF0020860610121142480F8FD
:100E2000208080F8212080F823400264C26342625F
:100E300080F8221082612861C0F82CC046630663E6
:100E4000C761BDE8F0017047AFF30080AFF30080E9
:100E5000884203D200F8012B8842FBD1704700BFC3
:100E60002DE9F04704460D4690469946FFF788FD68
:100E7000002C18BFAF2D0AD9B8F17F0F94BF002303
:100E80000123B9F1000F08BF43F0010313B11B4860
:100E9000FFF7D6FD1A4EA5F12403E7187169E76044
:100EA00044F80390089B7B60164B3B62022384F856
:100EB00020301423002504F1300204F12C0A04F13F
:100EC0004C0C84F8233001232661C4F8088061614A
:100ED0002046746184F82150C4F844802564E56399
:100EE000656284F82230A5610C61C4F82CA06263AD
:100EF0002263C4F81CC0BDE8F08700BFA0540008FE
:100F00005C0D002041060008AFF30080AFF30080C5
:100F10002DE9F04F804683B0894692469B4600F10A
:100F20004C0700F1010400F14D06FF2504F8015CB7
:100F30000134B442FAD108EB0904A74204D2552582
:100F400007F8015BA742FBD1202383F31188FFF749
:100F500067FC0C985B465246494600904046FFF7B6
:100F60007FFF00210446FFF793FEFFF771FC00238B
:100F700083F31188204603B0BDE8F08FAFF3008003
:100F800010B5044610B90948FFF75AFD202383F332
:100F90001188FFF745FC21460620FFF751FEFFF7B9
:100FA00057FC002383F3118810BD00BFE0540008F4
:100FB00038B5104B9C692546A06255F82C0FA84205
:100FC00006D00368E362FFF7BBFDE06AA842F8D1F0
:100FD00094F821309B0704D1636922691A61226960
:100FE00053610E20FFF704FE0348BDE83840FFF7C9
:100FF00027BD00BF5C0D0020F0540008AFF3008057
:1010000010B52023044683F31188FFF709FC20461E
:10101000BDE81040FFF7CCBFAFF30080AFF3008016
:1010200038B50446202383F31188FFF7F9FB94F8C1
:101030002230002B21D0013BDDB284F82250FFF793
:1010400007FC002383F311881DB994F820300E2B80
:1010500000D038BD94F8213003F00303012B12D0E7
:10106000022BF6D163692269A06C1A6122692146BC
:101070005361BDE8384000F043BD0848FFF7E0FC8D
:1010800094F82230D7E7636922691A612269204601
:101090005361BDE8384000F0A3BC00BF54550008C0
:1010A0002DE9F04182B00D461746984600F050FCFD
:1010B000044618B300F14C063146FF22FFF7C8FE84
:1010C000304661195522FFF7C3FE202383F31188B0
:1010D000FFF7A6FB08983A4643462946009020466B
:1010E000FFF7BEFE012380F8213000210446FFF700
:1010F000CFFDFFF7ADFB002383F31188204602B03C
:10110000BDE8F081AFF30080AFF30080AFF3008063
:1011100010B5202383F31188FFF782FB40F65C5360
:10112000C2F200031C6994F82230013384F82230A3
:10113000FFF78EFB002383F31188204610BD00BF0C
:1011400038B50546202383F31188FFF769FB2C6926
:101150000D4B9C4216D094F82230FF2B0CD001335B
:1011600084F82230FFF774FB002383F311882846AC
:10117000FFF756FF204638BD0448FFF761FC94F89E
:101180002230ECE70024EDE75C0D0020B0550008AC
:1011900010B5044620B1002364602460A36010BD34
:1011A0000148FFF74DFCF6E7D0550008AFF300808B
:1011B000F8B53B4B05469C69FFF7FAFB002D6BD059
:1011C000A868002836D0A2688368934208D290F8B5
:1011D00020308260042B45D0052B30D0002B1ED050
:1011E0002B461B689D4203D09968A2689142F8D2B1
:1011F0005A682360626004205C601460A562FFF797
:10120000F7FCAB68A34202D02648FFF719FC236C19
:10121000AB4213D02448BDE8F840FFF711BC90E87A
:101220000C001A600268012180F820105360FFF75B
:1012300087FCD5E7236CAC60EB602564F8BD4168A2
:101240000368866A0B600768334679601B689E42B4
:1012500002D099689142F9D25A68036042601060E6
:101260005860BDE741680368866A0B6007683346CB
:1012700079601B689E420DD099689142F9D25A68F4
:101280000360426010605860B068A268836893424F
:101290009DD3A5E73346F2E70448FFF7D1FB8FE77C
:1012A0005C0D0020F055000804560008E0550008C9
:1012B00010B52023044683F31188FFF7B1FA2046C6
:1012C000FFF776FFFFF7C4FA002383F3118810BD00
:1012D0001E4A70B52023956983F31188FFF7A0FAA1
:1012E0002C6C002C2DD0A368AB4203D01848FFF71C
:1012F000A7FB2C6C2668E368A6422B641ED0696CA1
:101300004BB11A689A4203D09268914238BF114695
:10131000DB68002BF5D13368326CA960304623605E
:1013200000215C60A660E2603464FFF7B1FCFFF767
:101330008FFA002383F31188204670BD0023A36039
:10134000F5E70448FFF77CFB2C6CCCE75C0D002034
:10135000405600082C560008AFF30080AFF3008021
:10136000002818BF0029F8B50C460546174602D1DB
:101370000B48FFF765FB202383F31188FFF750FA32
:10138000084B2A689B69226000262C606360A76076
:10139000E660FFF75DFA334683F31188F8BD00BFBE
:1013A000805600085C0D0020AFF30080AFF3008092
:1013B00038B504460D46FFF7E3FAC4B1E26B94F882
:1013C000203045EA0201082BE1630CD0092B00D044
:1013D00038BDA36A19408B42FAD12046FFF7B0FB13
:1013E0000023836238BDA36A1942F6D138BD024892
:1013F000FFF726FBE2E700BFAC560008AFF3008022
:1014000070B505460E46FFF7BBFA65B12C68A542DC
:1014100008D0201D0BC83343E360FFF7C9FF2468E1
:10142000A542F6D170BD0248FFF70AFBEEE700BF08
:10143000D0560008AFF30080AFF30080AFF3008018
:101440002DE9F04180460D46D0B18DB100263446DD
:10145000012707FA04F32B4206D058F8062025EAA4
:1014600003053AB12046904701340436002DF0D1EF
:10147000BDE8F0810448FFF7E3FA58F80620F1E7E9
:101480000248FFF7DDFAE0E7FC560008E8560008DE
:10149000F8B5164B05469E690F46202383F3118845
:1014A000FFF7BEF9F36B15EA03040BD1B7B10820BF
:1014B000B5623946FFF7C4FB0028A4BFF36B05EA09
:1014C00003040BDB6242144023EA0403F363FFF7D7
:1014D000BFF9002383F311882046F8BDFFF7B8F960
:1014E000234683F311882046F8BD00BF5C0D002021
:1014F00010B4024659B1084B9B69986244680D20AC
:1015000083E814005360236010BCFFF799BB4FF0D1
:10151000FF3010BC704700BF5C0D0020AFF30080AF
:1015200010B4C361019B40608A180024006084608D
:1015300041618161C1600261036210BC704700BFFC
:1015400038B50446FFF71CFAE36820686361A361BD
:101550000023A042A3600AD06FF001050368236056
:101560005C60FFF7EDFA85622068A042F6D138BDD5
:1015700038B504460D46FFF703FAA2696369934242
:10158000A26818D00132A26003F8015B226963618E
:10159000934228BFE368206828BF6361A04208D057
:1015A000036823605C60FFF7CBFA00238362184670
:1015B00038BD002038BD002AE4D06FF0030038BDEC
:1015C000F8B504460E46202383F31188FFF728F967
:1015D000E3690BB120469847A5682046314655B9C6
:1015E000FFF786FF071EF7DAFFF732F92B4683F382
:1015F00011883846F8BDA3692269013DA56013F83A
:10160000017B9342A36124BFE368A361FFF720F944
:10161000002383F311883846F8BD00BFAFF3008084
:101620002DE9F0470446154688461E46C769002A3C
:101630003AD0202383F31188FFF7F2F808F1010A6A
:101640004FF00009A8440FB12046B847A5682046CE
:1016500031465DB9FFF74CFF0028F7D0FFF7F8F8E7
:101660002B4683F311884846BDE8F087A369013D06
:10167000A56013F8012B0AF8012C2269A36193429B
:1016800024BFE368A361FFF7E3F8002383F3118825
:10169000C24509F10109E6D0202383F31188FFF741
:1016A000BFF80AF1010ACEE70148FFF7C9F9C0E720
:1016B00010570008AFF30080AFF30080AFF3008055
:1016C00010B4C361019B40608C180060826041616E
:1016D0008161C1600461036210BC7047AFF3008098
:1016E00038B50446FFF74CF9E36822692068636166
:1016F000D21AA042A361A2600AD06FF0010503686C
:1017000023605C60FFF71CFA85622068A042F6D176
:1017100038BD00BFAFF30080AFF30080AFF30080AF
:101720002DE9F041202304468846164683F31188AC
:10173000FFF776F8A568204631465DB9FFF7D8FE79
:10174000071EF7DAFFF784F82B4683F31188384633
:10175000BDE8F0816369013DA56003F8018B226952
:101760006361934224BFE3686361E3690BB1204680
:101770009847FFF76DF8002383F311881F4638461A
:10178000BDE8F081AFF30080AFF30080AFF30080DD
:1017900038B50446FFF7F4F86269A3699A42A26873
:1017A00016D00132A26013F8015B2269A361934253
:1017B00028BFE368206828BFA361A04206D0036861
:1017C00023605C60FFF7BCF900238362284638BDC4
:1017D000002AE6D06FF0020038BD00BFAFF30080F2
:1017E0002DE9F0470446164688469A46D0F81C90E4
:1017F000002A39D0202383F31188FFF711F800273E
:10180000A56820466B1E0DB3A36018F8013B6569FF
:1018100005F8013B236965619D4224BFE36863616C
:10182000B9F1000F00D0C847FFF712F8002383F387
:1018300011880137013E14D0202383F31188FEF76D
:10184000EFFFA56820466B1E002DDDD120465146D6
:10185000FFF74EFE0028D3D0FEF7FAFF2B4683F3A6
:1018600011883846BDE8F0870148FFF7E9F8C1E77D
:1018700024570008AFF30080AFF30080AFF300807F
:1018800040F67C5240F678534CF200010648C2F212
:101890000002C2F20003C2F2010120F0070021F0B1
:1018A000070110601960704717180020AFF300801F
:1018B00010B50446FFF764F8074A08491368096839
:1018C000E01D20F00700C91A88429ABF181810605E
:1018D0000023184610BD00BF7C0D0020780D0020AD
:1018E00010B52023044683F31188FEF799FF2046A4
:1018F000FFF7DEFF0446FEF7ABFF002383F31188FA
:10190000204610BDAFF30080AFF30080AFF300803E
:1019100040F6785240F67C53C2F20002C2F2000355
:1019200010681B68C01A7047AFF30080AFF30080E7
:1019300040F68053C2F2000341F6E1010022C0F6F6
:10194000000103F1100019609A60DA60FFF720BC13
:10195000F8B5204E002818BF0646073106F11000E2
:1019600021F0070506F10804FFF7A2FC00E01C4681
:101970002368FBB15A689542F9D805F108019142F4
:1019800015D84FF6F870CFF6FF70401B03EB010E31
:1019900082181868CEF8042058505D60C4F800E042
:1019A0001C4644F8086BFFF793FC2046F8BD1A6804
:1019B0002260F5E7FFF78CFC33684BB105F10800B6
:1019C000984728B100F10804066045602046F8BD3C
:1019D0000024EAE7800D0020AFF30080AFF3008021
:1019E000F8B5074600284BD057F8086C06F11000F0
:1019F000FFF75EFC0836A7F108053446AC4204D870
:101A000063680833E3189D421FD3B442236801D0B2
:101A1000AC4202D21BB19D4201D31C46EEE757F8FF
:101A2000042C47F8083C256002F1080357F8080C1D
:101A3000E91881420DD0636803F10802A2189542AB
:101A400015D0BDE8F840FFF743BC0F48FEF7F8FF9C
:101A5000DBE74968EB585218083247F8042C47F87E
:101A6000083C636803F10802A2189542E9D157F8CF
:101A7000041C57F8082C5B18083384E80C00E0E7D6
:101A80000248FEF7DDFFAFE7605700085057000837
:101A900038B50E4C002818BF044604F110000D465E
:101AA000FFF706FCA3686BB10022144658681B6858
:101AB00012180134002BF9D105B12A60FFF708FC98
:101AC000204638BD1A461C46F6E700BF800D0020B0
:101AD00038B504460D46FEF753FF002C18BF002D05
:101AE00002D10348FEF7ACFF23682B60256038BDA8
:101AF000A4570008AFF30080AFF30080AFF300807D
:101B000038B505460C46202383F31188FEF788FE7E
:101B100028462146FFF7DCFFFEF79AFE002383F3F9
:101B2000118838BDAFF30080AFF30080AFF30080C1
:101B300008B501F02DF900F02BFB45F65050C0F62A
:101B4000000001F0A5FB00F03BF800F049F800F0C0
:101B5000C7F800F0E5FA00F043FB00F0C1F9BDE87A
:101B6000084002F09DBE00BFAFF30080AFF30080DD
:101B70004FF48053CEF2000310B45A681C4680180C
:101B8000824263680AD2984294BF002101219A429E
:101B900088BF00210029F3D110BC70479A428CBF46
:101BA00000210121984288BF41F001010029E7D1BD
:101BB000F2E700BFAFF30080AFF30080AFF3008027
:101BC00001F05EBBAFF30080AFF30080AFF30080A5
:101BD0000123037000234360704700BFAFF3008010
:101BE00001F036BEAFF30080AFF30080AFF30080AA
:101BF00001230370002343600C30FFF7C9BA00BF14
:101C0000002818BF002938B50D46044619D023789E
:101C10005A1E052B18BF012A02D90C48FEF710FFE7
:101C2000202383F31188FEF7FBFD2046656001F059
:101C300027FE02232370FEF70BFE002383F3118897
:101C400038BD0348FEF7FCFEE1E700BFE05700089F
:101C5000D0570008AFF30080AFF30080AFF30080EF
:101C60000C30FFF7DDBC00BFAFF30080AFF30080A6
:101C70000C304FF0FF33FFF7D3BC00BFAFF3008051
:101C80003030FFF7ADBD00BFAFF30080AFF3008091
:101C900030304FF0FF33FFF7A3BD00BFAFF300803C
:101CA0000C30FFF78DBC00BFAFF30080AFF30080B6
:101CB0000C304FF0FF31FFF783BC00BFAFF3008063
:101CC0003030FFF72DBD00BFAFF30080AFF30080D1
:101CD00030304FF0FF32FFF723BD00BFAFF300807D
:101CE00002F0BEBDAFF30080AFF30080AFF3008021
:101CF00070B545F620130546C0F60003044645F8C6
:101D0000043B82B0656001250B46164604F1540180
:101D10001022257200F10C000094FFF701FC0094E2
:101D200004F1300004F1640110223346FFF7C8FCCF
:101D300002B070BDAFF30080AFF30080AFF300805E
:101D400038B504460D46FEF71BFED4B163693BB1BE
:101D500004F10C002946FFF70BFC00280BDB38BD13
:101D6000201D0421FFF74CFB04F10C002946FFF76E
:101D7000FFFB0028F3DA201D8021BDE83840FFF783
:101D80003FBB0248FEF75CFEE0E700BFF8580008E2
:101D900070B5046AD4F854321B681A78042A00D04B
:101DA00070BD9D8905F00205ADB2002DF8D1216C02
:101DB000E26BA36B8A1AD61AF2D0FEF749FD2B46C6
:101DC00083F31188D4F8542233461068012104F1BA
:101DD000300200F0ADFA202383F31188FEF720FDD6
:101DE000D4F8543218680121BDE8704000F0D0BA30
:101DF000F8B5046AD4F854321A681378042B00D06A
:101E0000F8BDD589536905F00205ADB25E8A002D93
:101E1000F6D1E769A2696369BF1AFF1ABE42EFD81B
:101E2000FEF716FD2B4683F31188D4F85422B7FB36
:101E3000F6F306FB03F31068012104F10C0200F035
:101E400067FA202383F31188FEF7EAFCD4F85432B2
:101E500018680121BDE8F84000F07ABAAFF30080BD
:101E60000C30FFF7DDBB00BFAFF30080AFF30080A5
:101E70000C304FF0FF33FFF7D3BB00BFAFF3008050
:101E80003030FFF7ADBC00BFAFF30080AFF3008090
:101E900030304FF0FF33FFF7A3BC00BFAFF300803B
:101EA0000C30FFF78DBB00BFAFF30080AFF30080B5
:101EB0000C304FF0FF31FFF783BB00BFAFF3008062
:101EC0003030FFF72DBC00BFAFF30080AFF30080D0
:101ED00030304FF0FF32FFF723BC00BFAFF300807C
:101EE000704700BFAFF30080AFF30080AFF3008016
:101EF00030B545F670130546C0F60003044645F8B4
:101F0000043B83B0656041F6F153012504F15401AF
:101F1000257200F10C004FF48072C0F600030094AB
:101F2000FFF7FEFA41F69153009404F1300004F5F6
:101F3000AA714FF48072C0F60003FFF7C1FB03B033
:101F400030BD00BFAFF30080AFF30080AFF300807F
:101F500038B504460D46B8B1202383F31188FEF747
:101F60005FFC237A013B012B02D90948FEF768FD8B
:101F70002B68C4F854529C6002232372FEF768FC5D
:101F8000002383F3118838BD0248FEF759FDE3E7CB
:101F90005059000840590008AFF30080AFF30080AB
:101FA00070B5856805F10C0604463046FFF7C8FA9F
:101FB00005F13000FFF794FB281D0121FFF720FAFF
:101FC00063690121204632465B8A00F0A1F9204670
:101FD0000121BDE8704000F0BBB900BFAFF3008045
:101FE00090F8303003F06003202B01D000207047C0
:101FF00090F83130212B03D0222B09D0202BF5D1A2
:10200000064B4362072383620023C36201207047AB
:10201000002343628362C3620120704704080020EA
:10202000F8B5846805460E46202383F31188FEF731
:102030002FFC0821201DFFF7E3F9216CE26BA36B55
:102040008A1AD71A24D1331D55F8233059691A8AB0
:102050004B68013A12EA030705D0FEF731FC002372
:1020600083F31188F8BDFEF72BFC3B4683F3118800
:102070002846314604F1300200F05AF9202383F358
:102080001188FEF705FC2846314600F081F9E4E7A7
:10209000FEF716FC002383F311883B46E8E700BFF8
:1020A0002DE9F041202384680546884683F3118892
:1020B000FEF7EEFB0421201DFFF7A2F96969E7692D
:1020C000A26963694E8ABF1AFF1ABE4217D8FEF78B
:1020D000F7FB002383F31188B7FBF6F306FB03F34A
:1020E0002846414604F10C0200F012F9202383F344
:1020F0001188FEF7CDFB2846414600F029F9FEF78E
:10210000DFFB002383F31188BDE8F081AFF300808B
:10211000704700BFAFF30080AFF30080AFF30080E3
:1021200002F0AEBAAFF30080AFF30080AFF30080EF
:10213000002301220270436083600C30FFF728B84F
:102140004FF48053CEF200035B688360704700BF9A
:102150004FF48053CEF20003094A5B68816810B4E3
:102160001468C2685B1A1B1B9342836088BFC360FC
:1021700003D80269934238BF036110BC704700BFA7
:10218000A00D0020AFF30080AFF30080AFF300801C
:1021900010B540F6A05486B0C2F2000400222260BE
:1021A00004924FF480534FF0FF320592CEF20003B9
:1021B00042F24112C0F600025B68019242F25112F3
:1021C000C0F6000201A803930292FFF7C1FF039B30
:1021D000236006B010BD00BFAFF30080AFF30080F6
:1021E00001F0DEBFAFF30080AFF30080AFF30080FB
:1021F000002301220270436083608381C3817047A2
:10220000002818BF002970B50E4604461CD02023B4
:1022100083F31188FEF704FB2378013B012B02D9DD
:102220000B48FEF70DFC00252046666025616561C0
:10223000A561E56101F0DCFF02232370FEF708FBD6
:102240002B4683F3118870BD0248FEF7F9FBDEE7E9
:10225000C0590008B0590008AFF30080AFF3008008
:10226000F8B5044615460E46FEF78AFB002C18BF4B
:10227000002D20D02378042B02D01148FEF7E0FB7C
:10228000371D54F8273013B10E48FEF7D9FB6869A3
:1022900018B100211022FEF72BF8A86918B100210F
:1022A0001022FEF725F82046314644F82750BDE8B5
:1022B000F84002F08DB80448FEF7C2FBDAE700BF31
:1022C000045A0008205A0008EC590008AFF30080B7
:1022D00030B40C1D002550F82440A4692560E2604C
:1022E0006360A56030BC02F053B900BFAFF300805B
:1022F00030B40C1D002550F8244064692560E2606C
:102300006360A56030BC02F05BB900BFAFF3008032
:1023100030B40C1D012550F82440A46963600023EB
:102320002560E260A36030BC02F032B9AFF30080F8
:1023300030B40C1D012550F824406469636000230B
:102340002560E260A36030BC02F03AB9AFF30080D0
:1023500070B504460D46FEF713FB94B1E38943FACA
:1023600005F010F0010601D0012070BD012202FA33
:1023700005F213432046E381294602F041F9304635
:1023800070BD0248FEF75CFBE8E700BF745A000826
:1023900070B504460D46FEF7F3FA94B1A38943FAEB
:1023A00005F010F0010601D0012070BD012202FAF3
:1023B00005F213432046A381294602F029F930464D
:1023C00070BD0248FEF73CFBE8E700BF8C5A0008EE
:1023D00010B40346002202240470028783F83A20D6
:1023E00080F83B208281C281026142618261C261C8
:1023F00083F8202010BC01F06BBF00BFAFF300805A
:10240000F8B50023044680F8203000F1300202F0D5
:10241000AFF863689B68002B2DD02046984750B3D7
:10242000A56A94F8303094F8371094F8362042EAD0
:102430000122AA423CBF1546A26213F0800F2B4630
:1024400040F08780002D6DD1042284F820202046A2
:1024500029462A46FFF74CFF202383F31188FEF715
:1024600017FA29462046FFF793FFFEF729FA2B4675
:1024700083F31188F8BD94F8303013F0600711D061
:102480000021204602F0E4F82046002102F0D8F8AE
:1024900063681B6813B1204605219847052384F81B
:1024A0002030F8BD94F8316003F07F0242EA06263E
:1024B000B6F5407F00F0038117DDB6F5C06F00F080
:1024C000958075DDB6F5106F00F0BE8040F60242D3
:1024D000964200F08480B6F5006FD1D1012504F159
:1024E0003B026262A562E7629DE7022E00F0BE80B9
:1024F00070DDB6F5807F00F09280B6F5817FBFD1A8
:1025000094F83220002ABBD194F8342012F00F0145
:102510005BD01206204600F1018102F0A1F894F888
:10252000303052E0032284F8202020460021626AE5
:10253000FFF7CEFE202383F31188FEF7A9F90021CF
:102540002046FFF705FFFEF7BBF9002383F3118850
:10255000F8BDB5B1012284F8202020460021626A2E
:10256000FFF7C6FE202383F31188FEF791F90021BF
:102570002046FFF70DFFFEF7A3F9002383F3118830
:10258000F8BD022284F82020204629462A46FFF77B
:102590009FFE202383F31188FEF77AF9294620460F
:1025A000FFF7D6FEFEF78CF92B4683F31188F8BDB2
:1025B00040F20232964270D0B6F5A06F7FF460AF61
:1025C000228EB2F5A06F00F0978000256562A562AB
:1025D000E56228E7002E30D0012E7FF451AF544A37
:1025E000022562620022A562E2621CE7626894F83A
:1025F000356094F83430556894F8331094F83220EC
:10260000204643EA0623A84700283FF439AF436831
:1026100005686362A562E76294F8303003E794F8D6
:102620003220012A7FF42CAF228F676222F002024F
:102630002287A762E7623D46F5E6022504F13802EB
:102640006262A562E662EEE694F8322084F83B20EE
:10265000002A42D10322227062681268002AB4D094
:1026600020460221904794F83030AEE794F83410B9
:1026700011F0800F204601F00F0131D101F058FF19
:10268000012831D002287FF4FBAE2A4BA06263629E
:10269000E76294F830300546C5E694F83220002A07
:1026A0007FF4EEAE94F8342012F00F018DD01306B3
:1026B000204638D401F0C4FF94F8303085E794F810
:1026C0003220012A7FF4DCAE228F676242F00202E0
:1026D0002287A762E7623D46A5E604222270BBE797
:1026E00001F036FF0128CDD1134BA6626362E76289
:1026F00094F83030354696E694F83230204684F827
:102700003A3001F055FE63681B6813B12046012181
:102710009847032294F83030227056E701F0A8FF62
:1027200094F8303051E701F093FF94F830304CE7E3
:1027300090590008A0590008E05A0008AFF3008043
:1027400038B590F82030012B044619D0042B10D056
:10275000002101F07DFF2046002101F071FF636838
:102760001B6813B1204605219847052384F82030C3
:1027700038BDC36A03B19847002384F8203038BDC0
:1027800090F8372090F83630856A43EA0223AB424E
:1027900006D903691B8AB5FBF3F203FB1255BDB1E1
:1027A000002102220B4684F8202020460A46FFF72B
:1027B0008FFD202383F31188FEF76AF8002120465D
:1027C000FFF7C6FDFEF77CF8002383F3118838BDC0
:1027D0002B4629462A46FFF78BFD202383F31188D9
:1027E000FEF756F829462046FFF7D2FDFEF768F8B7
:1027F0002B4683F3118838BDAFF30080AFF3008020
:1028000090F82030022B10B504462AD0032B11D0AB
:102810000021204601F01CFF2046002101F010FF9E
:1028200063681B6813B1204605219847052384F887
:10283000203010BD002104220B4680F820200A46DB
:10284000FFF756FD202383F31188FEF721F80021BE
:102850002046FFF79DFDFEF733F8002383F3118830
:1028600010BD03699B699B68002BD1D1C36A03B17A
:102870009847002384F8203010BD00BFAFF30080DC
:1028800010B5FEF73DF84FF4C043C4F20203084808
:10289000196802683D2401F03D019C600AB140685E
:1028A0009047FEF74DF8BDE81040FDF769BE00BF48
:1028B000A40D0020AFF30080AFF30080AFF30080E1
:1028C00010B5FEF71DF84FF4C043C4F202030948E7
:1028D0001968826889094FF4746401F03D019C60B5
:1028E0000AB1C0689047FEF72BF8BDE81040FDF72D
:1028F00047BE00BFA40D0020AFF30080AFF30080FF
:1029000010B5FDF7FDFF4FF4C043C4F202030948C0
:1029100019680269090C4FF4741401F03D019C60C0
:102920000AB140699047FEF70BF8BDE81040FDF78B
:1029300027BE00BFA40D0020AFF30080AFF30080DE
:1029400010B5FDF7DDFF4FF4C043C4F202030948A0
:1029500019688269890D4FF0746401F03D019C6033
:102960000AB1C0699047FDF7EBFFBDE81040FDF7E5
:1029700007BE00BFA40D0020AFF30080AFF30080BE
:1029800010B5FDF7BDFF4FF4C043C4F20203084881
:102990005968026A3D2401F03D01DC600AB1406AD9
:1029A0009047FDF7CDFFBDE81040FDF7E9BD00BF42
:1029B000A40D0020AFF30080AFF30080AFF30080E0
:1029C00010B5FDF79DFF4FF4C043C4F20203094860
:1029D0005968826A89094FF4746401F03D01DC6032
:1029E0000AB1C06A9047FDF7ABFFBDE81040FDF7A4
:1029F000C7BD00BFA40D0020AFF30080AFF300807F
:102A000010B5FDF77DFF4FF4C043C4F2020309483F
:102A10005968026B090C4FF4741401F03D01DC603D
:102A20000AB1406B9047FDF78BFFBDE81040FDF702
:102A3000A7BD00BFA40D0020AFF30080AFF300805E
:102A400010B5FDF75DFF4FF4C043C4F2020309481F
:102A50005968826B890D4FF0746401F03D01DC60B0
:102A60000AB1C06B9047FDF76BFFBDE81040FDF762
:102A700087BD00BFA40D0020AFF30080AFF300803E
:102A800010B5FDF73DFF4FF4C843C4F202030848F8
:102A90001968026C3D2401F03D019C600AB1406C54
:102AA0009047FDF74DFFBDE81040FDF769BD00BF41
:102AB000A40D0020AFF30080AFF30080AFF30080DF
:102AC00010B5FDF71DFF4FF4C843C4F202030948D7
:102AD0001968826C89094FF4746401F03D019C60AF
:102AE0000AB1C06C9047FDF72BFFBDE81040FDF721
:102AF00047BD00BFA40D0020AFF30080AFF30080FE
:102B000010B5FDF7FDFE4FF4C843C4F202030948B7
:102B10001968026D090C4FF4741401F03D019C60BA
:102B20000AB1406D9047FDF70BFFBDE81040FDF77F
:102B300027BD00BFA40D0020AFF30080AFF30080DD
:102B400010B5FDF7DDFE4FF4C843C4F20203094897
:102B50001968826D890D4FF0746401F03D019C602D
:102B60000AB1C06D9047FDF7EBFEBDE81040FDF7E0
:102B700007BD00BFA40D0020AFF30080AFF30080BD
:102B800010B5FDF7BDFE4FF4C843C4F20203084878
:102B90005968026E3D2401F03D01DC600AB1406ECF
:102BA0009047FDF7CDFEBDE81040FDF7E9BC00BF42
:102BB000A40D0020AFF30080AFF30080AFF30080DE
:102BC00010B5FDF79DFE4FF4C843C4F20203094857
:102BD0005968826E89094FF4746401F03D01DC602C
:102BE0000AB1C06E9047FDF7ABFEBDE81040FDF79F
:102BF000C7BC00BFA40D0020AFF30080AFF300807E
:102C000010B5FDF77DFE4FF4C843C4F20203094836
:102C10005968026F090C4FF4741401F03D01DC6037
:102C20000AB1406F9047FDF78BFEBDE81040FDF7FD
:102C3000A7BC00BFA40D0020AFF30080AFF300805D
:102C400010B5FDF75DFE4FF4C843C4F20203094816
:102C50005968826F890D4FF0746401F03D01DC60AA
:102C60000AB1C06F9047FDF76BFEBDE81040FDF75D
:102C700087BC00BFA40D0020AFF30080AFF300803D
:102C80000F4B30B400220F4D0F4C1A601146134603
:102C9000E8580C330160A1500832C02BF8D14FF432
:102CA000C0414FF4C842C4F20201C4F202024FF024
:102CB000FF338B60CB609360D36030BC704700BF44
:102CC000240E0020305B0008A40D0020AFF300802C
:102CD0002DE9F041064684B0002848D0294F747A87
:102CE0003868012505FA04FC1CEA000F18BF2846C5
:102CF0003AD1254D4CEA000005EBC40810F0FF0F57
:102D0000C8F804301CBF4FF46053C4F202033860AB
:102D100045F834201EBF1C6B44F400141C6310F4EF
:102D20007F4F1CBF4FF46053C4F2020334681EBFD0
:102D3000186B40F480001863236823F001032360BC
:102D4000236813F00105FBD1307A73683D2707FA39
:102D500000F01860212325601046636122B1B07A2B
:102D60000901FDF77DFC284604B0BDE8F081074865
:102D7000039102920193FDF763FE019B029A03996E
:102D8000ACE700BF240E0020A40D0020F05A00087C
:102D90004FF46053C4F202030022196941F00101AB
:102DA00030B419611A61596941F0010159615A61E0
:102DB000996941F0010199619A61196A19621A626F
:102DC0005D6A4EF21001CEF2000149F23F04C0F2FA
:102DD00002044EF6F05045F001055D62CEF20000AF
:102DE0005A624C6007248A600C60C4684FF48051BA
:102DF000CEF2000144F08074C460086840F0010025
:102E00000860186C4FF4E041C4F2000140F08050BB
:102E10001864086840F480700860196F01F440710C
:102E2000B1F5007F1EBF4FF4803119671A674FF468
:102E30006053C4F202031A6F120407D41A6F42F4EB
:102E400000721A671A6F42F400421A6730BCFFF72B
:102E500017BF00BFAFF30080AFF30080AFF3008077
:102E60004FF46052C4F202024FF4E043C4F2000394
:102E70004FF0805111644FF480411A461960536835
:102E80005904FCD54FF46053C4F2020319461A6882
:102E900042F001021A600A684FF460539207C4F2CC
:102EA0000203F8D51A6842F480321A6019460A689B
:102EB0004FF460539003C4F20203F8D55A6F42F006
:102EC00001025A6719464A6F4FF460539207C4F2E1
:102ED0000203F8D545F20C42C0F240725A601A68FB
:102EE00042F080721A6019460A684FF460539001EC
:102EF000C4F20203F8D598684FF414424FF47051AD
:102F0000C3F608020243C4F202019A6040F205725D
:102F10000A609A6842F002029A60996801F00C0116
:102F20004FF460520829C4F20202F6D1536C43F404
:102F300080435364536E43F480435366704700BF2D
:102F400010B5FDF7DDFC40F62860C2F200004FF43A
:102F500070534268C4F20103012400215C6153688C
:102F60009847FDF7EDFCBDE81040FDF709BB00BF39
:102F700010B5FDF7C5FC40F62860C2F200004FF422
:102F800070534268C4F20103022401215C61D368DA
:102F90009847FDF7D5FCBDE81040FDF7F1BA00BF3A
:102FA00010B5FDF7ADFC40F62860C2F200004FF40A
:102FB00070534268C4F20103042402215C61536926
:102FC0009847FDF7BDFCBDE81040FDF7D9BA00BF3A
:102FD00010B5FDF795FC40F62860C2F200004FF4F2
:102FE00070534268C4F20103082403215C61D36971
:102FF0009847FDF7A5FCBDE81040FDF7C1BA00BF3A
:1030000010B5FDF77DFC40F62860C2F200004FF4D9
:1030100070534268C4F20103102404215C61536AB6
:103020009847FDF78DFCBDE81040FDF7A9BA00BF39
:1030300010B5FDF765FC4FF47053C4F201035C69F1
:1030400004F478725A61A30624D460061CD42106C5
:1030500014D4E2050CD4A30504D511484368092112
:10306000DB6C9847FDF76CFCBDE81040FDF788BAB3
:103070000B48436808215B6C9847ECE708484368B5
:103080000721DB6B9847E4E70548436806215B6B43
:103090009847DCE7024843680521DB6A9847D4E794
:1030A000280E0020AFF30080AFF30080AFF3008064
:1030B00010B5FDF725FC4FF47053C4F201035C69B1
:1030C00004F47C4261055A612CD4220524D4E30423
:1030D0001CD4A00414D461040CD4220404D51448D4
:1030E00043680F21DB6F9847FDF72AFCBDE81040CD
:1030F000FDF746BA0E4843680E215B6F9847ECE730
:103100000B4843680D21DB6E9847E4E708484368A5
:103110000C215B6E9847DCE7054843680B21DB6DAB
:103120009847D4E7024843680A215B6D9847CCE78B
:10313000280E0020AFF30080AFF30080AFF30080D3
:1031400010B5FDF7DDFB40F62860C2F200004FF439
:1031500070534268C4F201034FF4803410215C6163
:10316000D2F884309847FDF7EBFBBDE81040FDF73F
:1031700007BA00BFAFF30080AFF30080AFF3008069
:1031800010B5FDF7BDFB40F62860C2F200004FF419
:1031900070534268C4F201034FF4802412215C6131
:1031A000D2F894309847FDF7CBFBBDE81040FDF70F
:1031B000E7B900BFAFF30080AFF30080AFF300804A
:1031C00010B5FDF79DFB40F62860C2F200004FF4F9
:1031D00070534268C4F201034FF4002413215C6170
:1031E000D2F89C309847FDF7ABFBBDE81040FDF7E7
:1031F000C7B900BFAFF30080AFF30080AFF300802A
:1032000010B5FDF77DFB40F62860C2F200004FF4D8
:1032100070534268C4F201034FF4801414215C61BE
:10322000D2F8A4309847FDF78BFBBDE81040FDF7BE
:10323000A7B900BFAFF30080AFF30080AFF3008009
:1032400010B5FDF75DFB40F62860C2F200004FF4B8
:1032500070534268C4F201034FF4800416215C618C
:10326000D2F8B4309847FDF76BFBBDE81040FDF78E
:1032700087B900BFAFF30080AFF30080AFF30080E9
:1032800040F62860C2F20000FEF7A2BCAFF3008057
:103290004FF46053C4F202031A6B6FEA52226FEAD2
:1032A00042221A631A6D6FEA52226FEA42221A65AD
:1032B00000234168C4F202034FF4806259608168C0
:1032C0009960C168D9600169596141691962816970
:1032D000596201681960016AC4F202024FF4006386
:1032E0005160416A9160816AD160C16A5161016B2C
:1032F0001162416B5162C1691160C4F20203C26B79
:103300005A60026C9A60426CDA60826C5A61C26CDC
:103310001A62026D5A62816B4FF440621960816DCE
:10332000C4F202024FF480535160C16D9160016E8E
:10333000D160416E5161816E1162C16E5162416D09
:103340001160C4F20203426F5A60826F9A60C26FCA
:10335000DA60D0F880205A61D0F884201A62D0F860
:1033600088205A62016F4FF4A0521960D0F8901073
:10337000C4F202024FF4C0535160D0F8941091602F
:10338000D0F89810D160D0F89C105161D0F8A010FE
:103390001162D0F8A4105162D0F88C101160D0F8EE
:1033A000AC10C4F202034FF4E0525960D0F8B010F0
:1033B0009960D0F8B410D960D0F8B8105961D0F83D
:1033C000BC101962D0F8C0105962D0F8A810C4F22D
:1033D00002021960D0F8C8305360D0F8CC30936046
:1033E000D0F8D030D360D0F8D4305361D0F8D83092
:1033F0001362D0F8DC305362D0F8C4104FF400539D
:103400001160D0F8E420C4F202035A60D0F8E8203A
:103410009A60D0F8EC20DA60D0F8F0205A61D0F849
:10342000F4201A62D0F8F8205A62D0F8E0201A602E
:10343000704700BFAFF30080AFF30080AFF30080B0
:103440002DE9F00F002302F00307C2F38006C2F358
:10345000C105C2F341144FF00F09C2F3C3124FF07C
:10346000010A04E07600AD00A400BF00013303F0C0
:10347000070C4FEA8C0C11F0010F02FA0CF809FA54
:103480000CFC3CD0072B95BFD0F820B0D0F824B06E
:103490002BEA0C0C2BEA0C0C95BF4CEA08084CEA02
:1034A0000808C0F82080C0F82480D0F804C00AFAC8
:1034B00003F82CEA080C4CEA060CC0F804C04FF0E4
:1034C000030B4FEA430CD0F808800BFA0CFC6FEAB0
:1034D0000C0C0CEA080848EA0508C0F80880D0F887
:1034E0000C800CEA080848EA0408C0F80C80D0F800
:1034F00000800CEA080C4CEA070CC0F800C0490830
:10350000B0D1BDE8F00F7047AFF30080AFF300809B
:1035100011F00C0F38B50546046B14D1E96A0A683E
:10352000136823F0010313601368D807FCD40A7AE8
:103530004B683D2101FA02F21A60A3889BB243F462
:103540000073A38038BDFCF7DBFFE7E7AFF3008033
:1035500011F00C0F70B50646056B32D1B16A0A68DE
:10356000136823F001031360136813F00104FBD107
:103570000A7A4B683D2101FA02F21A60AB8823F403
:1035800080531B041B0CAB802B8823F480631B042B
:103590001B0C2B802B889BB243F400732B802023C1
:1035A00083F31188FDF774F9F36923B1F4611846C8
:1035B0009C62FDF7C5FAFDF783F9002383F31188B8
:1035C00070BDFCF79DFFC9E7AFF30080AFF300804B
:1035D000F8B53F4DFDF794F92C6B228BA68AB6B255
:1035E000022346EA024222F07F42C0F203039A42DB
:1035F00037D010D80123C0F203039A4201D12B8C9B
:10360000238216F00A0F18BF238BFDF799F9BDE846
:10361000F840FCF7B5BF8223C0F207039A4213D0EB
:103620008423C0F207039A42EBD1AB6A1B685F6840
:10363000002F31D023882A8C9BB242F0010243F440
:10364000A0632A842380E0E7A388EA6A23F4007356
:103650001B0412681B0CA380136843F00103136062
:10366000CFE7A388AA6A23F400731B0412681B0C1B
:10367000A380136843F001031360A3889BB243F453
:103680008053A3805368012BBBD8238823F4806325
:103690001B041B0C2380B4E7A38823F400731B04D2
:1036A0001B0CA38023889BB243F400732380202348
:1036B00083F31188FDF7ECF8E86918B18762EF61D0
:1036C000FDF73EFAFDF7FCF8002383F3118898E735
:1036D000300E0020AFF30080AFF30080AFF3008026
:1036E00070B5594EFDF70CF9346B202383F3118824
:1036F000FDF7CEF8F06A0268136823F00103136047
:103700001368DD07FCD4057AB16A43680A683D2076
:1037100000FA05F01860136823F0010313601368C2
:1037200013F00105FBD10A7A4B683D2101FA02F240
:103730001A60FDF7C5F82B4683F31188A38A03F4BA
:1037400080739BB233B1A38A23F480731B041B0CD8
:10375000A3820123A28A02F4007292B23AB1A28A31
:1037600022F400721204120CA28243F00203A28A15
:1037700002F4806292B292B1A28A22F480621204B0
:10378000120CA282A28822F400721204120CA280EF
:10379000228892B242F40072228043F00403A28A8B
:1037A00002F4006292B23AB1A28A22F400621204D8
:1037B000120CA28243F00803A28A02F4805292B251
:1037C0003AB1A28A22F480521204120CA28243F06F
:1037D0001003A28A02F4804292B20AB3A28A22F4AF
:1037E00080421204120CA282A28A12B2002A43F072
:1037F000200321DBB360202383F31188FDF748F811
:10380000F06938B16FF0010383620F4B0022DA6177
:10381000FDF796F9FDF754F8002383F3118805E0CE
:10382000A28A12B2002A07DB002BE3D1FDF788F849
:10383000BDE87040FCF7A4BEA28A5204520CA282DA
:1038400043F04003D6E700BF300E0020AFF3008006
:1038500010B540F63064C2F200042046FEF7C8F905
:10386000064B4FF4B042C4F2000203F13C010020C9
:10387000E0612263A362E16210BD00BF485B000803
:10388000027840F21643012A2DE9F04104464362D2
:10389000056B00F08F802E4640F256429C46E36A4C
:1038A000A16A60681B68096847681A6005F1100220
:1038B000C1F800C090F808808A609A604FF4004315
:1038C0002B8000232B80002F4FF41063AB8059DD39
:1038D000C0F23D039F4255DCB38823F03F031B0435
:1038E0001B0CB380B28848F2A06392B2C0F201030D
:1038F00042F02A029F42B28048DCB8F1010F02D0A8
:103900007D48FDF79DF84DF680637F00C0F280236F
:1039100093FBF7F24DF6806307FB02F2C0F28023BF
:103920009B1A002B40F090804DF68063C0F28023FC
:1039300093FBF7F7BBB2032B7ED93F052B223F0D3C
:10394000B3F5805F328402D36C48FDF779F8626882
:10395000216B1278B7830B88022A9BB266D0032AA8
:1039600008BF43F00A0305D0012A03D123F00A035C
:103970001B041B0C0B802B889BB243F001032B8094
:10398000BDE8F0815E48FDF75BF8A5E74FF4D4533E
:10399000C0F206039F420BDCA8F10203012B57D9AA
:1039A0005848FDF74DF848F6FF770D233384CEE7EE
:1039B0000027CCE7544FB8427FF46DAF4FF460530B
:1039C000C4F202030026196A806A504A41F4800159
:1039D00019621E6205212346FFF77AF9002840F09C
:1039E0008680F86A4A4A484B0521FFF771F900289A
:1039F00079D14FF46053C4F2020321201A6C42F4CF
:103A000080021A645021FCF72BFE50212220FCF783
:103A100027FE796A3E6B41F0606C40224CF4403CDA
:103A2000C0F60362C7F824C00A4338E74FF6F772BE
:103A30001A4042F002039DE73648FDF701F83F05C2
:103A40002B233F0D338482E73348FCF7F9FF6BE704
:103A5000B8F1020F1FD14DF6806307EB4707C0F2A4
:103A6000802393FBF7F24DF6806307FB02F2C0F26E
:103A700080239B1A5BB94DF68063C0F2802393FBD1
:103A8000F7F76FEA47476FEA5747BFB28DE723481A
:103A9000FCF7D6FFEFE7B8F1030F18BF48F6FF7742
:103AA00083D107EB87074DF6806307EB8707C0F2EA
:103AB000802393FBF7F24DF6806307FB02F2C0F21E
:103AC00080239B1A5BB94DF68063C0F2802393FB81
:103AD000F7F76FEA87476FEA9747BFB265E7104885
:103AE000FCF7AEFFEFE70F48FCF7AAFF81E70E48AF
:103AF000FCF7A6FF75E700BF305C0008C05C00085B
:103B0000185C0008785C0008300E00205135000871
:103B100011350008605C0008485C0008905C0008F3
:103B2000A85C0008045C0008F05B0008AFF30080AC
:103B3000016CC36B00222DE9F00110468F684FF035
:103B4000804C4FF0FF3618E0585055015C1902F1D7
:103B500058014901C4F81009C4F8086953F80180F4
:103B6000B8F1000FA8BF585016DB5D190132BA42F8
:103B7000C5F8100BC5F8086B15D802F148014901CA
:103B80005C58002CE0DA550143F801C05C19D4F808
:103B900008198907FBD5D9E743F801C0D4F8081BF9
:103BA000C906FBD5E1E74FF00112C3F81C28BDE8B8
:103BB000F0017047AFF30080AFF30080AFF30080F7
:103BC000F8B5C46B04EB41134FF0FF32D3F8086B28
:103BD000C3F8082B330705460F4603D5D4F814382D
:103BE0001A0715D4F30703D5D4F81438D80700D42E
:103BF000F8BD3B1DE98955F82330012202FA07F28E
:103C000021EA0202EA81DB68284639469847F8BD76
:103C10000B1D50F823305B689847E3E7AFF3008053
:103C2000C26B890141F02003136113699906FCD42A
:103C30000C20FDF79DBF00BFAFF30080AFF3008005
:103C40002DE9F04F40F65C51C2F2000187B08A695D
:103C5000C16B0191AE4980469161202383F31188A5
:103C6000FCF7DEFD4FF0000998F80030012B06D07C
:103C7000D8F848309BB9019A5369D8060FD40199F6
:103C80008A6940F65C51C2F2000142F010028B6971
:103C9000019902208A61C8F85030FCF7A9FFFCF7AF
:103CA000D7FD002383F311881C46019A536913F052
:103CB000100525D0D8F83C100E6A06F4F013B3F5C1
:103CC000802F34D0B3F5402FEFD106F00F0204322D
:103CD000C6F30A1358F8222003339B08106AE4D075
:103CE000022201F5805EDEF8001012B140F8041BDC
:103CF000013A013BF7D1019A536913F01005D9D16C
:103D00000121D8F84830A1401942039140F0858044
:103D100001340494D8F84030049A9B68D4B29C4291
:103D2000C3D9202383F31188FCF77AFD9CE706F0C2
:103D30000F070437C6F30A1658F827309869036846
:103D4000DBB9021D2CCA0332D21AF31C92089B085D
:103D50000AD001F5805EDEF8001012B145F8041BB0
:103D6000013A013BF7D1C568AD19C56058F8273055
:103D70009B699A6892199A6097E701F5805EC56819
:103D80005EB33046032807D96B692A69934241D351
:103D9000EB6803286B61F7D8DEF800C0E8B16B6907
:103DA000002200E06B69D1002CFA01F103F8011B3D
:103DB00029696B618B4224BFEB686B61013802F1AA
:103DC00001020CBF00230123032A8CBF002303F050
:103DD0000103002BE6D10028D4D1202383F31188DE
:103DE000FCF71EFDAB6828689B19A842AB6009D0A0
:103DF00003682B605D60FCF7A3FEC0F8289028687C
:103E0000A842F5D1FCF7CCFFFCF722FD002383F399
:103E10001188ABE7DEF800C0C2E7202383F31188E6
:103E2000FCF7FEFC0199D8F848308A68039923EA28
:103E30000103019922F001028A60C8F84830FCF7BA
:103E400007FD2B4683F31188261D58F82650686914
:103E500083684168994240F2CD80D8F83C202D8A91
:103E6000670102EB070EC91ADEF81839A94238BFFC
:103E70000D469BB20134B5EB830F04942FD8210378
:103E800002910368002B45D1EB1C02999B0802EBC1
:103E9000010CC26808D0043252F8041C0432013B01
:103EA000CCF80010F8D1C2685219C26058F8264008
:103EB000606983684168EB189942836040F29C8096
:103EC000D8F83C20248A02EB070ECD1ADEF8183908
:103ED000A54228BF25469BB2B5EB830FD1D900245C
:103EE000202383F31188FCF79BFC019A936843F02D
:103EF000010393602CB9D2F8343803990B43C2F80C
:103F00003438FCF7A5FC002383F3118802E700BFD7
:103F1000F05C00080299C46802EB010C3DB329462D
:103F2000AE46059688083FD02569A669AA1BD31C12
:103F300032EA220228BF1A469310984238BF03463D
:103F40004FEA830BCBEB010143B1321D52F8040C55
:103F50000432013BCCF80000F8D15E44B542A661C2
:103F600045D8E368A3610029DCD1059E754620236E
:103F700083F31188FCF754FCA36820685B19A04206
:103F8000A36009D0036823605C60FCF7D9FDC0F82A
:103F900028902068A042F5D1FCF702FFFCF758FCFE
:103FA000002383F3118881E70846D9B125690020F1
:103FB0000246A36913F801ABD600AB42A36124BF4C
:103FC000E368A361013902F101020CBF0023012360
:103FD0000AFA06F6032A8CBF002303F001033043DC
:103FE000002BE6D1CCF8000000299BD1BDE70029C9
:103FF000DDD1BAE701340494012471E7AFF3008006
:10400000F8B5C46B04EB41134FF0FF32D3F80869E5
:10401000C3F80829F30705460F4603D5D4F810382E
:10402000DA0723D4330606D50122D4F8343802FA4D
:1040300007F71F4200D1F8BD202383F31188FCF756
:1040400027FCAB6CD4F83428286D3B4322EA0707E1
:10405000AB64C4F8347818B1FCF772FD00232B650B
:10406000FCF72EFC002383F31188F8BD0B1DB0F87C
:104070000CE050F82330012202FA01F22EEA02028B
:1040800082819B689847CDE7AFF30080AFF3008053
:1040900070B5424EFCF734FCF56B6B69AC691C40A3
:1040A000E1046C612DD4A20448BFD5F80838230779
:1040B00004D57368DB680BB138489847E0062BD409
:1040C0006103D5F8185807D5EA074FD4AB0753D486
:1040D000680757D429075BD4220307D5EB0338D4EC
:1040E000A8033CD469032DD42A0305D4FCF728FC8B
:1040F000BDE87040FCF744BA28480321FFF760FD93
:10410000F4E73046FEF764F973681B68002BCAD0E9
:10411000304600219847C6E7202383F31188FCF737
:10412000B7FBAB69306D23F01003AB6120B1FCF736
:1041300007FD1A4B00221A65FCF7C2FB002383F32C
:104140001188BDE702211548FFF73AFD2A03CDD5B6
:10415000D2E712480021FFF733FDA803C2D50121A1
:104160000E48FFF72DFD6903BED5EBE700210B4894
:10417000FFF746FFAB07ABD508480121FFF740FF2B
:104180006807A7D502210548FFF73AFF2907A3D5FD
:1041900002480321FFF734FF9EE700BF680E0020AE
:1041A00038B540F66864C2F200042046FEF720F8F5
:1041B0000023E36423654FF0A04304F1A405E36307
:1041C00045F6E0432946FF2204F15800C0F60003FB
:1041D0002364FCF73DFE284604F59E715522BDE898
:1041E0003840FCF735BE00BFAFF30080AFF300806E
:1041F00070B50378C56B012B82B0064601D002B0C2
:1042000070BD304B984249D0F36C0022B264002B51
:1042100038D04FF4A2520323C0F22023C4F200028C
:10422000F46BEA60C5F800380023C5F8003E4FF48F
:104230005023AB63012323612369D807FCD40C20EE
:10424000FDF796FC2369002BFCDA0024AC603046B5
:10425000FFF76EFC7368C5F81048DB68C5F81448B2
:10426000C5F81C4853B143F20803AB614FF0FF336C
:104270006B61AB6843F00103AB60C0E74FF44053A0
:10428000AB61F3E7009606F158004FF498710222F3
:104290000D4BFCF7E5FD3065F064BAE74FF4605371
:1042A000C4F2020343205A6B42F080025A635A69F7
:1042B00042F080025A6100225A61E021FCF7D0F9F5
:1042C000A2E700BF680E0020413C0008AFF3008069
:1042D0002DE9F04180460021C46BFFF7A1FCD8F81E
:1042E00040E0DEF8080000234FF00065FF2103F1F5
:1042F000480703F1580604EB43127F0176010133AE
:104300008342E551A551C2F80819C2F8081BEED93D
:10431000DEF80030D8F83C204FF0FF31C4F8181810
:104320004FF00111C4F81C18C8F844306362102320
:104330001361136913F01005FBD10C20FDF718FC75
:10434000D4F80028D8F84030D8F84460586822F4EF
:10435000FE63C4F80038A76947F44027092147F0F5
:104360001007A76106F11002C4F8101848F24003C4
:10437000C4F814180C49C1F200038242C8F81010A6
:10438000C4F8105BC4F8003BC4F81059C4F80039F5
:10439000C8F8442002D90548FCF752FB46F48016C1
:1043A000A662BDE8F08100BF205D0008005D000846
:1043B000C36B90F83A10D3F8002822F4FE6242EA68
:1043C0000112C3F800287047AFF30080AFF30080FC
:1043D0002DE9F84F0F1D4FF4004850F82730C46BFB
:1043E0001A6802F00302022A0D46064608BFC1F20F
:1043F00008080CD0032A08BFC1F20C0807D04146B8
:10440000C1F20001C1F20408012A18BF88466A01FE
:10441000A0180021C0F8101BD968002950D0588A74
:1044200005F15801490148EA000060504FF0010EC3
:10443000D4F81C0805F110010EFA01F10143C4F88B
:104440001C18A21899680020C2F8100900294AD047
:104450009A8B198AD6F844908B08012A88BF534357
:10446000326C516803EB09028A42726405F1FF3B2A
:104470004FEA034A20D80BF1400B04EB8B0B4AEABE
:104480000903CBF8043029463046FFF7C9FB56F83C
:1044900027301A8A05F1480342EA85525B0142EA55
:1044A0000802E2500122D4F81C3802FA05F51D4337
:1044B000C4F81C58BDE8F88F1A48FCF7C1FADAE7CF
:1044C00005F15801490105F1100E605820F4004033
:1044D00060500121D4F81C0801FA0EF120EA010114
:1044E000C4F81C18ADE705F13F0204EB82024FF45B
:1044F0008063C0F20023536029463046FFF790FBEB
:1045000005F148035B01E25822F40042E250012227
:10451000D4F81C3802FA05F523EA0505C4F81C583E
:10452000BDE8F88F005D0008AFF30080AFF30080B6
:104530005831C36B49015B5813F4004004D013F4A5
:10454000001F0CBF02200120704700BFAFF30080A6
:104550004831C36B49015B5813F4004004D013F495
:10456000001F0CBF02200120704700BFAFF3008086
:10457000043150F821301B6A19685B681160536080
:10458000704700BFAFF30080AFF30080AFF300804F
:104590000B1D10B450F82330C46B9A695B8A5068C5
:1045A0000138C01843F0C04204EB4111B0FBF3F3F3
:1045B00042EAC343C1F8103B10BC7047AFF3008020
:1045C0000B1D10B450F8232053695B686BB1128A3D
:1045D000C06B5C1EA418B4FBF2F200EB411143EA7D
:1045E000C243C1F8103910BC7047C36B03EB4111D3
:1045F0004FF40023C1F81039F5E700BFAFF3008096
:104600005831C36B49015A5842F080625A50704782
:1046100001F14802C36B5201985840F00440985091
:104620000120D3F8342800FA01F11143C3F83418FB
:10463000704700BFAFF30080AFF30080AFF300809E
:104640005831C36B49015A5842F400125A5070470E
:104650004831C36B49015A5842F400125A5070470E
:104660005831C36B49015A5822F400125A5070470E
:104670004831C36B49015A5822F400125A5070470E
:1046800038B541F2080341F20C04C2F20004C2F250
:1046900000034FF6FF7220461A80FDF749FD0949D5
:1046A0004FF4405016224623C4F2010001F12405C4
:1046B000C0F20162C0F20163E06121626562A26240
:1046C000E36238BD905B0008AFF30080AFF3008079
:1046D0004FF4A053C4F201039A8992B242F08002CF
:1046E0009A817047AFF30080AFF30080AFF3008092
:1046F0002DE9F041FCF704F9554B5D6FAE892C882C
:10470000A988A4B22207B6B28FB259D104F480733B
:104710009BB2002B3ED104F020039BB2002B2AD188
:1047200006F080039BB223B104F080039BB2002B00
:1047300070D104F04004A4B2BCB1202383F31188EB
:10474000FCF7A6F843481021FCF75AFEFCF7B8F82E
:10475000002383F311884FF6BF733340AB812B885E
:1047600023F040031B041B0C2B80FCF7E9F8BDE889
:10477000F041FBF705BF202383F31188FCF788F88D
:104780003348F9B2FDF7DCFAFCF79AF8002383F31B
:104790001188C5E7202383F31188FCF779F82D48A9
:1047A0004FF40071FCF72CFEFCF78AF8002383F32A
:1047B00011882B8823F480731B041B0C2B80AAE721
:1047C00004F008081FFA88F8B8F1000F14BF4FF082
:1047D00080084FF00008E30704F002039BB248BFD3
:1047E00048F020080BB148F0400804F004039BB2E5
:1047F0000BB148F48078202383F31188FCF748F844
:1048000014484146FCF7FCFDFCF75AF8002383F3FB
:1048100011887BE7202383F31188FCF739F80E48D1
:10482000FCF7B6FF0028A4BF80B2A88005DBFCF728
:1048300047F8002383F311887BE706480821FCF73B
:10484000DFFD26F0C00343F04003AB81EFE700BF7C
:104850003C100020401000206C100020AFF30080BE
:1048600010B541F23C04C2F2000444F2D162204689
:104870000021C0F60002FDF73BFA4FF4A053C4F24A
:104880000103636710BD00BFAFF30080AFF300808A
:10489000FEF7E6BAAFF30080AFF30080AFF300801D
:1048A000704700BFAFF30080AFF30080AFF300802C
:1048B000F0B400F10B0C00F10A050C46B1FBF2F666
:1048C00002FB161101F13003392BC8BF01F1370388
:1048D000DBB2B4FBF2F42F46314605F80139002C67
:1048E000ECD1C7EB0C013A46411801E012F8013F48
:1048F00000F8013B8842F9D1F0BC7047AFF300806B
:104900000EB42DE9F04F86B00FAB0DF10C0853F843
:10491000044B02930DF10D03C8EB030C0093064604
:10492000CDF804C0254615F8011B59B125290ED034
:1049300033682C46254630469B68984715F8011B7E
:104940000029F3D106B0BDE8F04F03B0704763789B
:104950002D2B18BF4FF0000B00F0128120272E2BBB
:1049600000F00A812C460299002506E00A780431FD
:1049700005EB8505237802EB4505A3F13002D2B2A1
:104980000134092AF4D92A2BF0D000202E2B0291D1
:104990004BD003F0DF024C2A55D12278012112B10D
:1049A000013413460121A3F14402342A00F2DC80D1
:1049B000DFE812F0CA00DA00DA00DA00DA00DA0022
:1049C000DA00DA00DA00DA00DA00E000DA00DA0011
:1049D000DA00DA00DA00C200DA00DA00B500DA0044
:1049E000DA00DA00DA00DA00DA00DA00DA00DA00F7
:1049F000DA009500CA00DA00DA00DA00DA00DA003C
:104A0000DA00DA00DA00DA00DA00E000DA00DA00D0
:104A1000DA005000DA00C200DA00DA00B5000A78E5
:104A2000043100EB800002EB400014F8013BA3F1DD
:104A30003002D2B2092AF4D92A2BF0D003F0DF02D7
:104A40004C2A0291A9D0A3F1410119298CBF002160
:104A50000121A8E7029A45F65063D2F80090C0F60B
:104A60000003B9F1000F08BF9946111D99F8002005
:104A7000029147F6FF71002808BF0846002A00F09F
:104A8000A0804946484402E0904200F096804F786A
:104A90004A1C1146002FF7D1C9EB020ACAEB0505E3
:104AA000202725EAE575BBF1000F29D0BAF1000FE8
:104AB000C8BF09EB0A0B07DD326819F8011B9268C1
:104AC00030469047D945F7D1002D3FF42BAF3368DE
:104AD00030469B6839469847013DF8D122E7029B52
:104AE000DDF804A01A68043302938DF80C20202707
:104AF000C146CAEB050525EAE575BBF1000FD5D126
:104B00006D42002DD2D099F800102D294AD031687D
:104B100030468B68394698470135F8D1C6E71022F0
:104B2000029B69B1191D029119684046FFF7C0FE4A
:104B3000C146C8EB000ADCE70A22029B0029F1D13A
:104B4000181D19680290F0E7029B1A1DE9B919684F
:104B500002920029A8BF40461DDB0A22FFF7A8FEEB
:104B6000C146C8EB000AC4E78DF80C30DDF804A09C
:104B7000C146BEE70822D3E76B7830270135F1E65E
:104B8000A51CA3784FF0010BE8E6196802920029F2
:104B9000A8BF4046E1DA2D238DF80C3049420DF1D3
:104BA0000D00DAE7302FB2D132683046936898476B
:104BB00009F101090AF1FF3AA9E7C9EB000A202728
:104BC00097E79246202794E7AFF30080AFF3008089
:104BD00038B504460D4698B128600C492046FBF7CD
:104BE000CFFB241820460949FBF7AAFB286018B11F
:104BF000002300F8013B2860237823B1204638BD0C
:104C00000C68002CE9D10024204638BD605E000805
:104C1000002903DD0449054AFFF772BE044B05492C
:104C2000DA68FFF76DBE00BF645E0008705E0008C2
:104C30004C0D0020785E0008AFF30080AFF30080D9
:104C400010B5002982B0044606DD1949194A02B0A0
:104C5000BDE81040FFF754BE1749184AFFF750FE51
:104C600020461749174AFFF74BFE20461649174AB8
:104C7000FFF746FE20461649164AFFF741FE20463A
:104C80001549164AFFF73CFE20461549154AFFF71D
:104C900037FE20461449154AFFF732FE144B1549DA
:104CA00000932046144A154BFFF72AFE02B010BDB0
:104CB000645E0008805E0008885E00089C5E000854
:104CC000AC5E0008C05E0008CC5E0008E05E000834
:104CD000EC5E0008005F00080C5F0008205F000821
:104CE000385F00084C5F0008685F00087C5F0008C0
:104CF000B85F0008905F0008A85F0008B45F000874
:104D000041F2B403C2F200031B607047AFF30080AE
:104D100000B583B044F6D1530090C0F600030020E4
:104D2000FCF7BEF903B000BDAFF30080AFF3008025
:104D3000F0B5013A83B00E4604460D468F1823683D
:104D400001220DF107015B682046984738B39DF8B2
:104D50000710042926D008290ED00D2928D01F2994
:104D6000EDD9BD42EBD2236820469B6898479DF859
:104D7000073005F8013BE2E7B5422046DFD0236863
:104D80009B689847236820219B68204698472368A2
:104D90009DF807109B6820469847013DCFE701200A
:104DA00003B0F0BD20460649FFF7AAFD0120F7E752
:104DB00020460449FFF7A4FD00202870F0E700BF5B
:104DC000C45F000858610008AFF30080AFF30080B3
:104DD0002DE9F0435E4B06689B695E4AD0F804807B
:104DE0005D499A6197B03046FFF78AFDDFF88891F8
:104DF00030465A49FFF784FD304606A94022FFF7A6
:104E000097FF044600282FD1694606A8FFF7E0FE69
:104E10006946074600206D46FFF7DAFE50B1042CC4
:104E20001BD045F8040F694600200134FFF7D0FE7F
:104E30000028F4D116AA02EB840343F8540C002F87
:104E4000D6D038464649FBF75BFA08BB84B13046FA
:104E50004449434AFFF754FDCAE730464249FFF749
:104E60004FFD00230593C3E730464049FFF748FD57
:104E7000202383F31188FBF7D3FC00213C48FCF787
:104E8000BFFA0020FCF794F8002017B0BDE8F083CB
:104E900038463849FBF734FA30B93046CCB131499D
:104EA000344AFFF72DFDA3E7D9F80000002833D0DE
:104EB000314D03E055F8080F00282DD03946FBF797
:104EC0001FFA0028F6D16B683046214601AA9847A0
:104ED0008EE72A49284CFFF713FDD9F800203AB194
:104EE00030462749FFF70CFD54F8082F002AF7D168
:104EF000B8F1000F0BD0D8F8002042B1444630463C
:104F00001F49FFF7FDFC54F8082F002AF7D130465F
:104F10001C49FFF7F5FC6BE7B8F1000F0DD0D8F88E
:104F2000000050B1454602E055F8080F28B1394657
:104F3000FBF7E6F90028F7D1C5E7304612493A46B3
:104F4000FFF7DEFC30461149FFF7DAFC50E700BFFF
:104F50005C0D0020C85F0008D05F0008E85F000813
:104F600014600008645E0008FC5F0008F05F000841
:104F7000B41000201C6000080C0800202460000809
:104F80003C60000858610008406000084460000868
:104F900008B5202383F31188FBF742FC4FF44053FC
:104FA000C4F200034CF6CC421A60FBF751FC00231C
:104FB00083F3118808BD00BFAFF30080AFF300801A
:104FC00008B5202383F31188FBF72AFC4FF44053E4
:104FD000C4F200034AF6AA221A60FBF739FC002348
:104FE00083F3118808BD00BFAFF30080AFF30080EA
:104FF00010B52023044683F31188FBF711FC4FF40E
:105000004053C4F2000345F255521A604AF6AA22F0
:105010005C601A60FBF71CFC002383F3118810BD51
:1050200008B54FF46053C4F202035A6F920042BFB6
:105030005A6F42F080725A670320FFF7D9FFFFF7DB
:10504000BFFFBDE80840FFF7A3BF00BFAFF300807C
:105050000D4A0E4930B45060002003461060D51848
:10506000CC180133322B28722071F8D10023A520EF
:10507000D518CC180133322B85F83A0084F8360065
:10508000F6D130BC704700BF141100208011002001
:1050900030B5002983B0044604DD0E49FFF730FC2B
:1050A00003B030BD01A90020FCF7F2FC0546FCF777
:1050B0002FFC094902462046FFF722FC20462A46DB
:1050C0000649FFF71DFC20460549019AFFF718FC29
:1050D000E6E700BF90600008A0600008C06000081C
:1050E000D8600008AFF30080AFF30080AFF300801A
:1050F000F0B5002987B0064605DD154907B0BDE8C3
:10510000F040FFF7FDBB1349134FFFF7F9FBFBF727
:10511000FFFF0446A268E368606A009294F82220C8
:105120000E49013A019294F82020039057F822206A
:105130000292A569224630460495FFF7E1FB20461E
:10514000FBF7FEFF04460028E4D107B0F0BD00BF26
:10515000F86000080C610008506000083861000821
:1051600041F2E813C2F200031B607047AFF3008006
:1051700010B541F2EC14C2F2000446F2E01102460E
:10518000C0F600012046FFF7BBFB41F2B803C2F2B4
:10519000000346F2FC1193F85B202046C0F60001A4
:1051A000BDE81040FFF7ACBBAFF30080AFF3008069
:1051B000022906D0032906D00748012918BF00207C
:1051C000704706487047032A03D8054800EBC20021
:1051D00070470020704700BFD0630008906200084D
:1051E000A0630008AFF30080AFF30080AFF300804E
:1051F000022938B50C46054616D1202383F31188C1
:10520000FBF746FB28460121084AFDF729F821460D
:10521000074A2846FDF724F82846FCF7C1FEFBF7AD
:105220004FFB002383F3118838BD00BF10620008D4
:10523000A0620008AFF30080AFF30080AFF30080FE
:1052400008B5044B044A9B699A614FF47A70FBF7E6
:1052500097FEFAE75C0D002000640008AFF30080C1
:10526000084B094A9B6910B54FF400649A61C4F277
:105270000204636983F4005363614FF4FA70FBF72F
:105280007FFEF6E75C0D00200C640008AFF30080A1
:1052900008B5054B054A9B699A61FFF791FEFA2014
:1052A000FBF76EFEF9E700BF5C0D002014640008F8
:1052B00000202020202020202020282828282820E6
:1052C00020202020202020202020202020202020DE
:1052D0002088101010101010101010101010101046
:1052E0001004040404040404040404101010101036
:1052F0001010414141414141010101010101010100
:105300000101010101010101010101011010101051
:1053100010104242424242420202020202020202D1
:105320000202020202020202020202021010101025
:10533000200000000000000000000000000000004D
:10534000000000000000000000000000000000005D
:10535000000000000000000000000000000000004D
:10536000000000000000000000000000000000003D
:10537000000000000000000000000000000000002D
:10538000000000000000000000000000000000001D
:10539000000000000000000000000000000000000D
:1053A00000000000000000000000000000000000FD
:1053B00000000000000000000000000000000000ED
:1053C00069646C650000000000000000000000003F
:1053D00053562331000000005356233200000000D2
:1053E00053562333000000005356233400000000BE
:1053F00053562335000000005356233600000000AA
:105400005356233700000000535623380000000095
:10541000535623390000000053562331300000005A
:10542000535623313100000000000000000000004E
:1054300022636856545365744922282900000000ED
:105440002263685654526573657449222829000006
:105450006368565452657365744928292C2023319A
:10546000000000000000000000000000000000003C
:10547000636853636852656164794928292C202345
:1054800031000000737461636B206F766572666C27
:105490006F77000000000000000000000000000026
:1054A00022636854686443726561746549222829DF
:1054B0000000000022636854686453657450726988
:1054C0006F726974792228290000000063685468AB
:1054D00064526573756D6528292C20233100000006
:1054E000226368546864536C656570222829000043
:1054F0006368546864457869745328292C202331E3
:1055000000000000226368546864576169742228AF
:105510002900000063685468645761697428292C65
:105520002023310063685468645761697428292C0A
:1055300020233200000000000000000000000000F6
:10554000636854686441646452656628292C20238A
:1055500031000000636854686452656C656173656E
:1055600028292C2023310000226368546864437288
:105570006561746546726F6D4D656D6F7279506FC0
:105580006F6C2228290000000000000000000000CD
:105590006D61696E0016421104044C080C10141859
:1055A0001C20212223240000000000000000000035
:1055B00063685265674E65787454687265616428E3
:1055C000292C202331000000000000000000000012
:1055D0002263684D7478496E69742228290000009E
:1055E0002263684D74784C6F636B53222829000046
:1055F00063684D74784C6F636B5328292C202331DA
:105600000000000063684D74784C6F636B53282969
:105610002C202332000000002263684D74785472FD
:10562000794C6F636B5322282900000063684D7426
:1056300078556E6C6F636B28292C20233100000095
:1056400063684D7478556E6C6F636B28292C20232A
:105650003200000063684D7478556E6C6F636B5355
:1056600028292C202331000063684D7478556E6C16
:105670006F636B5328292C202332000000000000A8
:1056800022636845767452656769737465724D610B
:10569000736B222829000000226368457674556EDA
:1056A00072656769737465722228290022636845F0
:1056B00076745369676E616C4922282900000000E6
:1056C0002263684576745369676E616C22282900ED
:1056D00022636845767442726F6164636173744DCE
:1056E00061736B49222829002263684576744469F6
:1056F000737061746368222829000000636845762E
:1057000074446973706174636828292C2023310004
:1057100022636849515265616454696D656F75749F
:10572000222829002263684F5157726974655469B1
:105730006D656F75742228290000000000000000CC
:1057400022636848656170496E69742228290000E7
:1057500022636848656170467265652228290000E9
:105760006368486561704672656528292C2023317D
:105770000000000000000000000000000000000029
:10578000226368506F6F6C496E697422282900008B
:10579000226368506F6F6C416C6C6F6349222829DB
:1057A00000000000226368506F6F6C4672656549A7
:1057B00022282900226368506F6F6C4C6F6164412E
:1057C00072726179222829000000000000000000A8
:1057D0002269326353746172742228290000000028
:1057E000693263537461727428292C2023310000BC
:1057F0002269326353746F7022282900693263531F
:10580000746F7028292C2023310000002269326334
:105810004765744572726F72732228290000000078
:10582000226932634D61737465725472616E736D77
:10583000697454696D656F75742228290000000031
:105840006932634D61737465725472616E736D6910
:105850007454696D656F757428292C2023310000FC
:10586000226932634D61737465725265636569764E
:105870006554696D656F7574222829006932634D1E
:1058800061737465725265636569766528292C2099
:105890002331000022693263416371756972654288
:1058A00075732228290000002269326352656C65F5
:1058B0006173654275732228290000000000000012
:1058C00022736453746172742228290073645374C0
:1058D00061727428292C2023310000002273645344
:1058E000746F702228290000736453746F70282924
:1058F0002C20233100000000227364496E636F6D19
:10590000696E6744617461492228290022736452D8
:1059100065717565737444617461492228290000BA
:10592000911C0008711C0008D11C0008B11C000863
:10593000C11C0008A11C0008811C0008611C000893
:105940002273647553746172742228290000000068
:10595000736475537461727428292C2023310000FC
:1059600073647553746F7028292C20233100000054
:10597000911E0008711E0008D11E0008B11E00080B
:10598000C11E0008A11E0008811E0008611E00083B
:105990000000000000000000000000000000000007
:1059A00000000000000000000000000000000000F7
:1059B00022757362537461727422282900000000FA
:1059C000757362537461727428292C20233100008E
:1059D0002275736253746F702228290075736253A5
:1059E000746F7028292C2023310000002275736207
:1059F000496E6974456E64706F696E744922282916
:105A000000000000757362456E61626C65456E64EE
:105A1000706F696E744928292C2023310000000022
:105A2000757362456E61626C65456E64706F696E18
:105A3000744928292C20233200000000227573624B
:105A400044697361626C65456E64706F696E7473EE
:105A5000492228290000000075736244697361625D
:105A60006C65456E64706F696E74734928292C20CB
:105A7000233100002275736253746172745265633E
:105A80006569766549222829000000002275736245
:105A900053746172745472616E736D697449222813
:105AA00029000000227573625374616C6C52656347
:105AB0006569766549222829000000002275736215
:105AC0005374616C6C5472616E736D6974492228F1
:105AD000290000000000000000000000000000009D
