:020000040800F2
:1000000000040020C1070008E1080008E10800081A
:10001000E1080008E1080008E1080008E10800081C
:10002000E1080008E1080008E108000811090008DB
:10003000E1080008E1080008E1080008F1090008EB
:10004000E1080008F1360008E1080008F13700086F
:10005000E1080008E1080008F13400082135000833
:100060005135000881350008B1350008312E0008EF
:10007000712E0008B12E0008F12E0008312F000863
:10008000712F0008B12F0008E1080008E1080008FE
:10009000E1080008E1080008E1080008E13500086F
:1000A000E1080008E1080008E1080008E10800088C
:1000B000E1080008E1080008E1080008E10800087C
:1000C000E1080008D13D0008E13E0008E108000811
:1000D000E1080008E1080008E1080008E10800085C
:1000E00061360008E108000831370008E10800081F
:1000F000E1080008E1080008E1080008F12F000805
:10010000E1080008E1080008E1080008E10800082B
:10011000E1080008E1080008E1080008E10800081B
:100120003130000871300008B1300008F1300008AB
:1001300031310008E108000871370008E1080008C3
:10014000E1080008E1080008E108000891490008FA
:1001500071310008B1310008F13100086151000827
:10016000E1080008E1080008E1080008E1080008CB
:10017000B1370008E1080008E1080008E1080008BC
:08018000E1080008E108000895
:10019000F0B587B001F0C4FE002400F0A9FC05F022
:1001A00027FF4FF40063C4F20203C4F202042025C7
:1001B00010274FF400521A832946258320462783AF
:1001C00040F29A2203F0ECFC2046402140F29A22B1
:1001D00003F0E6FC4FF48060294640F29A22C4F214
:1001E00002004FF4A05603F0DBFCC4F202062046E6
:1001F0003946192203F0D4FC258301212783304698
:1002000040F21E2203F0CCFC3046022140F21A22BA
:1002100003F0C6FC40F23A220421304603F0C0FC51
:100220003D483E4F3E4C02233383054602F010F911
:100230003946284602F03CF93E68F36B9A6B22F48B
:1002400000229A634FF47A7001F092F830463549F3
:1002500002F0AEFAF36B9A6B42F400229A6305F057
:10026000D7FA05F065FC00212F4801F0F1FF2F4976
:100270002F4802F015FA4FF4967001F079F82D48E6
:1002800005F0BEFC2C4B2D49586801F0D9FE002624
:100290002B482C4901F09CFEF0212B4B009640226C
:1002A0002A4801F02DF8F0214022294B00962948D8
:1002B00001F026F84FF4D8714022274B00962748CA
:1002C00001F01EF8264802A9012201F041FA274652
:1002D0000CE090F820300E2B19D04FF4FA71012069
:1002E00001F0CEFA01461F4801F0A2FA206800286A
:1002F000EFD1D5F854321B681B78042BE9D11A488A
:100300004FF40B61402205F08BFA3860E5E701F00D
:100310007FF82660E1E700BF00120020D0760008D9
:1003200038160020E07500083C100020F076000828
:100330000C100020300E002078110020707700088B
:10034000280E002060740008D160000830170020DB
:100350007161000840160020016100088814002027
:10036000FC1100209077000880770008AFF3008030
:1003700081F0004102E000BF83F0004330B54FEA56
:1003800041044FEA430594EA050F08BF90EA020FC3
:100390001FBF54EA000C55EA020C7FEA645C7FEA56
:1003A000655C00F0E2804FEA5454D4EB5555B8BF79
:1003B0006D420CDD2C4480EA020281EA030382EAEA
:1003C000000083EA010180EA020281EA0303362D7C
:1003D00088BF30BD11F0004F4FEA01314FF4801C4F
:1003E0004CEA113102D0404261EB410113F0004F61
:1003F0004FEA03334CEA133302D0524263EB430318
:1004000094EA050F00F0A780A4F10104D5F1200EB5
:100410000DDB02FA0EFC22FA05F2801841F1000110
:1004200003FA0EF2801843FA05F359410EE0A5F1E4
:1004300020050EF1200E012A03FA0EFC28BF4CF015
:10044000020C43FA05F3C01851EBE37101F00045CB
:1004500007D54FF0000EDCF1000C7EEB00006EEBD8
:100460000101B1F5801F1BD3B1F5001F0CD3490862
:100470005FEA30004FEA3C0C04F101044FEA4452B9
:1004800012F5800F80F09A80BCF1004F08BF5FEA40
:10049000500C50F1000041EB045141EA050130BD20
:1004A0005FEA4C0C404141EB010111F4801FA4F1C3
:1004B0000104E9D191F0000F04BF01460020B1FA18
:1004C00081F308BF2033A3F10B03B3F120020CDA50
:1004D0000C3208DD02F1140CC2F10C0201FA0CF02E
:1004E00021FA02F10CE002F11402D8BFC2F1200C93
:1004F00001FA02F120FA0CFCDCBF41EA0C01904049
:10050000E41AA2BF01EB0451294330BD6FEA040491
:100510001F3C1CDA0C340EDC04F11404C4F120027C
:1005200020FA04F001FA02F340EA030021FA04F38E
:1005300045EA030130BDC4F10C04C4F1200220FAE5
:1005400002F001FA04F340EA0300294630BD21FA23
:1005500004F0294630BD94F0000F83F4801306BFE9
:1005600081F480110134013D4EE77FEA645C18BFDD
:100570007FEA655C29D094EA050F08BF90EA020F74
:1005800005D054EA000C04BF1946104630BD91EA6C
:10059000030F1EBF0021002030BD5FEA545C05D16F
:1005A0004000494128BF41F0004130BD14F58004AE
:1005B0003CBF01F5801130BD01F0004545F0FE4122
:1005C00041F470014FF0000030BD7FEA645C1ABF57
:1005D000194610467FEA655C1CBF0B46024650EA8E
:1005E000013406BF52EA033591EA030F41F40021BA
:1005F00030BD00BF90F0000F04BF0021704730B540
:100600004FF4806404F132044FF000054FF0000114
:1006100050E700BF90F0000F04BF0021704730B5D5
:100620004FF4806404F1320410F0004548BF4042AA
:100630004FF000013EE700BF42004FEAE2014FEAFF
:1006400031014FEA02701FBF12F07F4393F07F4FDA
:1006500081F06051704792F0000F14BF93F07F4F0C
:10066000704730B54FF4607401F0004521F000414F
:1006700020E700BF50EA010208BF704730B54FF0D5
:1006800000050AE050EA010208BF704730B511F0DA
:10069000004502D5404261EB41014FF4806404F112
:1006A00032045FEA915C3FF4DCAE4FF003025FEA94
:1006B000DC0C18BF03325FEADC0C18BF033202EB1C
:1006C000DC02C2F1200300FA03FC20FA02F001FA76
:1006D00003FE40EA0E0021FA02F11444C1E600BF15
:1006E0008218034601E003F8011B9342FBD17047D7
:1006F0000D4B70B51D680022845C2B195B7803F0EC
:100700000303012B8B5C05EB030608BF20347678CE
:1007100006F00306012E08BF2033E41A02D101328D
:10072000002BE9D1204670BD000800200000000029
:1007300070B50246007840B970BDB5420CD01C4679
:1007400013F8016B002EF8D100E00C46104612F8A9
:10075000015B0DB10B46F2E72378002B08BF0020A8
:1007600070BD00000000000000000000000000005C
:1007700070B5034607E0AC4205D012F8015F002DCA
:10078000F9D1301A70BD1E4613F8014B002CF8D079
:100790004A1EF2E700000000000000000000000018
:1007A000704700BFAFF30080AFF30080AFF300806D
:1007B000FEE700BFAFF30080AFF30080AFF300802F
:1007C00072B6374880F30988022383F31488BFF395
:1007D0006F8F344A344B9A420BD2D143C91821F05F
:1007E0000301131F89184FF0553243F8042F8B4231
:1007F000FBD12E4A82420CD22D49131DC91A21F079
:100800000301131F89184FF0553243F8042F8B4210
:10081000FBD104F0C5FD2749274B99420BD2C843B1
:10082000C01820F00300254C043000231A595A50F8
:1008300004338342FAD1224A224B9A420AD2D1434C
:10084000C91821F00301131F8918002243F8042F4F
:100850008B42FBD1FFF7A4FF1B4D1C4B9D420BD2DB
:10086000EE43F618B608043D0136002455F8043F5F
:1008700001349847B442F9D1FFF78AFC144D154B67
:100880009D420BD2EE43F618B608043D0136002413
:1008900055F8043F01349847B442F9D1FFF788FF77
:1008A00000080020000000200004002000040020B8
:1008B0000308002000080020240800209877000882
:1008C000280800202018002088010008880100085E
:1008D0008801000888010008AFF30080AFF30080B2
:1008E000FEE700BFAFF30080AFF30080AFF30080FE
:1008F00072B6FEE7AFF30080AFF30080AFF3008085
:1009000000F086F900F05CFC00F09AF900DF00BF0F
:10091000EFF30983203383F30988002383F31188DD
:10092000704700BFAFF30080AFF30080AFF30080EB
:1009300008B54FF46D43CEF200034FF44072C0F29D
:10094000FA520021996007201021DA6000F0A8F81F
:100950000A204FF4007100F0A3F80B208021BDE8BD
:10096000084000F09DB800BFAFF30080AFF30080F7
:10097000202383F311884FF46D43CEF200035B68AC
:1009800013F400631AD0EFF30983A3F1200282F37A
:10099000098811494FF080708A6943F8040C92F875
:1009A000230009689268896858B1914294BF002277
:1009B000012262B1094A43F8082C704783F3118879
:1009C0007047914234BF00220122002AF2D1044A2A
:1009D00043F8082C704700BF5C0D00200109000897
:1009E0000C090008AFF30080AFF30080AFF3008084
:1009F00008B500F07DF9202383F3118800F040F959
:100A000000F0B6F800F054F9002383F3118800F0E9
:100A10008FF9BDE80840FFF7ABBF00BFAFF3008020
:100A20002DE9F04FC1F80CD0D0F80CD0BDE8F08F14
:100A300008B500F005F9002383F311882846A04784
:100A400000F0D6FC08BD00BFAFF30080AFF300801C
:100A5000F0B44FF461438408CEF20003C03400F0D8
:100A6000030553F82470ED00FF26420906FA05F647
:100A700027EA060601FA05F500F01F0002F16007FB
:100A8000012101FA00F02E4343F8246043F82700C7
:100A900043F82200F0BC7047AFF30080AFF3008052
:100AA00082084FF46D43CEF20003063200F00300DB
:100AB00030B4C00053F82250FF2404FA00F425EAB1
:100AC000040401FA00F10C4343F8224030BC7047A3
:100AD000024B034A9B699A61FEE700BF5C0D002050
:100AE000A0620008AFF30080AFF30080AFF3008096
:100AF00030B583B0FFF71CFF00F00AFA00F0A0F950
:100B000001F0B6F801F00CF900F062F940F62800A7
:100B10004021C2F2000000F063FB40F65C5440F25A
:100B20000043C2F20003C2F200040125C36180F851
:100B30002050A06100F054F8002383F3118862B6BE
:100B400046F27041A269C0F60001916140F678005A
:100B5000009340F6D123C0212A46C0F60003C2F21A
:100B6000000000F0CDFB03B030BD00BFAFF300804C
:100B7000F8B500F0FDF8164B9B6993F8232012B1ED
:100B8000013A83F823205A6A124D01325A62EB6807
:100B90002C680133AC42EB6018D0A768013FA76016
:100BA000A7B92368E6685D60E7602B6000F080F815
:100BB000002383F311882069B047202383F3118831
:100BC00000F05EF82C68A368002BEAD0F8BD00BFE7
:100BD0005C0D00204C0D0020AFF30080AFF30080CF
:100BE000054B1B6813B9054B1B6823B1044A054B21
:100BF0001A60FFF77DBE704738090020440D0020C1
:100C0000C0620008480D0020AFF30080AFF3008001
:100C1000074B1B6810B5074C0BB9236823B1064A74
:100C2000064B1A60FFF764FE0123236010BD00BF6E
:100C300038090020440D0020C8620008480D00203B
:100C4000084B1B6810B5084C2BB92368002B02DD3C
:100C50000023236010BD054A054B1A60FFF748FECC
:100C6000F6E700BF38090020440D0020D0620008DC
:100C7000480D0020AFF30080AFF30080AFF3008099
:100C8000074B1B68002B10B5064C01DD236823B110
:100C9000054A064B1A60FFF72BFE0123236010BDA7
:100CA00038090020440D0020D8620008480D0020BB
:100CB000084B1B68002B10B5074C05DD2368002B83
:100CC00002DD0023236010BD044A054B1A60FFF7C4
:100CD0000FFEF6E738090020440D0020E06200080E
:100CE000480D0020AFF30080AFF30080AFF3008029
:100CF00010B5202383F31188094C2368002B02DBF5
:100D0000084A12682AB1084B084A1A60FFF7F0FD3A
:100D1000236801332360002383F3118810BD00BFD3
:100D200038090020440D0020480D0020E86200082A
:100D300010B5202383F31188094C2368002B02DDB2
:100D4000084A12682AB1084B084A1A60FFF7D0FD1A
:100D50002368013B2360002383F3118810BD00BF8B
:100D600038090020440D0020480D0020F0620008E2
:100D7000064B1B68002B04DB054B1B68002B00DDBA
:100D80007047044A044B1A60FFF7B2BD38090020CF
:100D9000440D0020F8620008480D0020AFF30080E9
:100DA000064B1B6823B9064B1B68002B00DD704700
:100DB000044A054B1A60FFF79BBD00BF38090020AD
:100DC000440D002000630008480D0020AFF30080B0
:100DD00040F63C13C2F200031A46402142F8081BB9
:100DE0005A607047AFF30080AFF30080AFF300802C
:100DF0000C490D4A10B4CC680C49536889691C60D1
:100E00005960816A996090F8204003F1100102F561
:100E1000816081421C732ABF02F108035160536054
:100E200010BC70474C0D00203C0900205C0D0020D8
:100E300040F64853C2F200031860FFF759BD00BFE7
:100E400040F64C53C2F200034FF0FF329A6000228A
:100E50005B601B60DA607047AFF30080AFF3008027
:100E6000F8B5054616460C461F46FFF781FF002DD4
:100E700018BF002E1AD0CCB10E492F610B68EE605E
:100E80009A68944204D91B68A41A9A68A242FAD3B9
:100E90005A68AC608B426A602B60156018BF9A6814
:100EA0005D601CBFC4EB02049C60F8BD0248FFF704
:100EB000BFFFE1E74C0D002010630008AFF3008096
:100EC00010B50446FFF754FF84B1E36893B123687B
:100ED0000A4A93421FBF9968A2688A189A6062689A
:100EE000136023685A600023E36010BD0448FFF7D5
:100EF0009FFFEAE70348FFF79BFFE8E74C0D002060
:100F00002063000830630008AFF30080AFF3008077
:100F100040F65C53C2F2000300225B601B609A60E3
:100F20005B611B61704700BFAFF30080AFF30080CF
:100F300010B50446FFF71CFF94F82030002B18BFB3
:100F40000E2B0FD00022A168084B84F820201B68CC
:100F50009A688A42FBD25A682360626014605C60BF
:100F6000204610BD0248FFF763FFEBE75C0D002051
:100F700050630008AFF30080AFF30080AFF3008050
:100F800010B52023044683F31188FFF779FE94F807
:100F900020300D2B11D8DFE803F016101007100BCE
:100FA000101010101010100BA36A9A6801329A608A
:100FB00094E80C001A60226853604FF0FF33A3627C
:100FC0002046FFF7B5FFFFF773FE002383F3118878
:100FD00010BD00BFAFF30080AFF30080AFF300801F
:100FE00070B5114C0646FFF7DBFE2368A5691A6849
:100FF00085F82060142185F823100121546083F8BE
:10100000201028462260A361FFF7F2FEEB69ADF1E4
:101010002402934202D90548FFF70AFFA069294636
:10102000BDE87040FFF7FCBC5C0D00206463000865
:1010300070B50C4686B00646FFF7B2FE631C12D0B0
:101040000B4D0C4AAB69214601A8FFF709FF30465A
:10105000FFF7C6FF049B13B101A8FFF731FFAB698F
:10106000986A06B070BD3046FFF7BAFF004DF6E74C
:101070005C0D0020810F0008AFF30080AFF300800B
:1010800070B5144D04460E46FFF78AFEA869A268A3
:101090008368A6629A4213D9FFF74AFF01230646E6
:1010A00084F82030AC61FFF7A3FEF369ADF12402B0
:1010B00093420AD820463146BDE87040FFF7B0BCE5
:1010C0002046BDE87040FFF733BF0348FFF7B0FE8E
:1010D000F0E700BF5C0D002064630008AFF3008000
:1010E00038B5104C2368A5691A68012183F82010CF
:1010F0001421546085F8231028462260A361FFF76D
:1011000017FF2846FFF774FEEB69ADF12402934206
:1011100002D90548FFF78CFEA0692946BDE8384092
:10112000FFF77EBC5C0D002064630008AFF3008015
:1011300070B5144E3368B5691A68AC685660012101
:101140003260002283F82010B36185F8202000E08F
:101150001B689A68A242FBD85A682B606A601560C7
:101160005D602846FFF744FEEB69ADF1240293422F
:1011700002D90548FFF75CFEB0692946BDE870401A
:10118000FFF74EBC5C0D002064630008AFF30080E5
:1011900008B5FFF705FE064B1A689B6992689B68C5
:1011A0009A4200D808BDBDE80840FFF7C1BF00BFA4
:1011B0005C0D0020AFF30080AFF30080AFF3008040
:1011C000044B9B6993F823300BB1FFF7B1BFFFF7D6
:1011D00087BF00BF5C0D0020AFF30080AFF300803D
:1011E0002DE9F00140F65C54C2F20004002265696A
:1011F0004164046100F13006816000F12C0C00F1C3
:101200004C0745614FF0020860610121142480F809
:10121000208080F8212080F823400264C26342626B
:1012200080F8221082612861C0F82CC046630663F2
:10123000C761BDE8F0017047AFF30080AFF30080F5
:10124000884203D200F8012B8842FBD1704700BFCF
:101250002DE9F04704460D4690469946FFF788FD74
:10126000002C18BFAF2D0AD9B8F17F0F94BF00230F
:101270000123B9F1000F08BF43F0010313B11B486C
:10128000FFF7D6FD1A4EA5F12403E7187169E76050
:1012900044F80390089B7B60164B3B62022384F862
:1012A00020301423002504F1300204F12C0A04F14B
:1012B0004C0C84F8233001232661C4F80880616156
:1012C0002046746184F82150C4F844802564E563A5
:1012D000656284F82230A5610C61C4F82CA06263B9
:1012E0002263C4F81CC0BDE8F08700BF806300081B
:1012F0005C0D0020310A0008AFF30080AFF30080DE
:101300002DE9F04F804683B0894692469B4600F116
:101310004C0700F1010400F14D06FF2504F8015CC3
:101320000134B442FAD108EB0904A74204D255258E
:1013300007F8015BA742FBD1202383F31188FFF755
:1013400067FC0C985B465246494600904046FFF7C2
:101350007FFF00210446FFF793FEFFF771FC002397
:1013600083F31188204603B0BDE8F08FAFF300800F
:1013700010B5044610B90948FFF75AFD202383F33E
:101380001188FFF745FC21460620FFF751FEFFF7C5
:1013900057FC002383F3118810BD00BFC063000811
:1013A00038B5104B9C692546A06255F82C0FA84211
:1013B00006D00368E362FFF7BBFDE06AA842F8D1FC
:1013C00094F821309B0704D1636922691A6122696C
:1013D00053610E20FFF704FE0348BDE83840FFF7D5
:1013E00027BD00BF5C0D0020D0630008AFF3008074
:1013F00010B52023044683F31188FFF709FC20462B
:10140000BDE81040FFF7CCBFAFF30080AFF3008022
:1014100038B50446202383F31188FFF7F9FB94F8CD
:101420002230002B21D0013BDDB284F82250FFF79F
:1014300007FC002383F311881DB994F820300E2B8C
:1014400000D038BD94F8213003F00303012B12D0F3
:10145000022BF6D163692269A06C1A6122692146C8
:101460005361BDE8384000F043BD0848FFF7E0FC99
:1014700094F82230D7E7636922691A61226920460D
:101480005361BDE8384000F0A3BC00BF34640008DD
:101490002DE9F04182B00D461746984600F050FC09
:1014A000044618B300F14C063146FF22FFF7C8FE90
:1014B000304661195522FFF7C3FE202383F31188BC
:1014C000FFF7A6FB08983A46434629460090204677
:1014D000FFF7BEFE012380F8213000210446FFF70C
:1014E000CFFDFFF7ADFB002383F31188204602B048
:1014F000BDE8F081AFF30080AFF30080AFF3008070
:1015000010B5202383F31188FFF782FB40F65C536C
:10151000C2F200031C6994F82230013384F82230AF
:10152000FFF78EFB002383F31188204610BD00BF18
:1015300038B50546202383F31188FFF769FB2C6932
:101540000D4B9C4216D094F82230FF2B0CD0013367
:1015500084F82230FFF774FB002383F311882846B8
:10156000FFF756FF204638BD0448FFF761FC94F8AA
:101570002230ECE70024EDE75C0D002090640008C9
:1015800010B5044620B1002364602460A36010BD40
:101590000148FFF74DFCF6E7B0640008AFF30080A8
:1015A000F8B53B4B05469C69FFF7FAFB002D6BD065
:1015B000A868002836D0A2688368934208D290F8C1
:1015C00020308260042B45D0052B30D0002B1ED05C
:1015D0002B461B689D4203D09968A2689142F8D2BD
:1015E0005A682360626004205C601460A562FFF7A3
:1015F000F7FCAB68A34202D02648FFF719FC236C26
:10160000AB4213D02448BDE8F840FFF711BC90E886
:101610000C001A600268012180F820105360FFF767
:1016200087FCD5E7236CAC60EB602564F8BD4168AE
:101630000368866A0B600768334679601B689E42C0
:1016400002D099689142F9D25A68036042601060F2
:101650005860BDE741680368866A0B6007683346D7
:1016600079601B689E420DD099689142F9D25A6800
:101670000360426010605860B068A268836893425B
:101680009DD3A5E73346F2E70448FFF7D1FB8FE788
:101690005C0D0020D0640008E4640008C064000809
:1016A00010B52023044683F31188FFF7B1FA2046D2
:1016B000FFF776FFFFF7C4FA002383F3118810BD0C
:1016C0001E4A70B52023956983F31188FFF7A0FAAD
:1016D0002C6C002C2DD0A368AB4203D01848FFF728
:1016E000A7FB2C6C2668E368A6422B641ED0696CAD
:1016F0004BB11A689A4203D09268914238BF1146A2
:10170000DB68002BF5D13368326CA960304623606A
:1017100000215C60A660E2603464FFF7B1FCFFF773
:101720008FFA002383F31188204670BD0023A36045
:10173000F5E70448FFF77CFB2C6CCCE75C0D002040
:10174000206500080C650008AFF30080AFF300804F
:10175000002818BF0029F8B50C460546174602D1E7
:101760000B48FFF765FB202383F31188FFF750FA3E
:10177000084B2A689B69226000262C606360A76082
:10178000E660FFF75DFA334683F31188F8BD00BFCA
:10179000606500085C0D0020AFF30080AFF30080AF
:1017A00038B504460D46FFF7E3FAC4B1E26B94F88E
:1017B000203045EA0201082BE1630CD0092B00D050
:1017C00038BDA36A19408B42FAD12046FFF7B0FB1F
:1017D0000023836238BDA36A1942F6D138BD02489E
:1017E000FFF726FBE2E700BF8C650008AFF300803F
:1017F00070B505460E46FFF7BBFA65B12C68A542E9
:1018000008D0201D0BC83343E360FFF7C9FF2468ED
:10181000A542F6D170BD0248FFF70AFBEEE700BF14
:10182000B0650008AFF30080AFF30080AFF3008035
:101830002DE9F04180460D46D0B18DB100263446E9
:10184000012707FA04F32B4206D058F8062025EAB0
:1018500003053AB12046904701340436002DF0D1FB
:10186000BDE8F0810448FFF7E3FA58F80620F1E7F5
:101870000248FFF7DDFAE0E7DC650008C86500080C
:10188000F8B5164B05469E690F46202383F3118851
:10189000FFF7BEF9F36B15EA03040BD1B7B10820CB
:1018A000B5623946FFF7C4FB0028A4BFF36B05EA15
:1018B00003040BDB6242144023EA0403F363FFF7E3
:1018C000BFF9002383F311882046F8BDFFF7B8F96C
:1018D000234683F311882046F8BD00BF5C0D00202D
:1018E00010B4024659B1084B9B69986244680D20B8
:1018F00083E814005360236010BCFFF799BB4FF0DE
:10190000FF3010BC704700BF5C0D0020AFF30080BB
:1019100010B4C361019B40608A1800240060846099
:1019200041618161C1600261036210BC704700BF08
:1019300038B50446FFF71CFAE36820686361A361C9
:101940000023A042A3600AD06FF001050368236062
:101950005C60FFF7EDFA85622068A042F6D138BDE1
:1019600038B504460D46FFF703FAA269636993424E
:10197000A26818D00132A26003F8015B226963619A
:10198000934228BFE368206828BF6361A04208D063
:10199000036823605C60FFF7CBFA0023836218467C
:1019A00038BD002038BD002AE4D06FF0030038BDF8
:1019B000F8B504460E46202383F31188FFF728F973
:1019C000E3690BB120469847A5682046314655B9D2
:1019D000FFF786FF071EF7DAFFF732F92B4683F38E
:1019E00011883846F8BDA3692269013DA56013F846
:1019F000017B9342A36124BFE368A361FFF720F951
:101A0000002383F311883846F8BD00BFAFF3008090
:101A10002DE9F0470446154688461E46C769002A48
:101A20003AD0202383F31188FFF7F2F808F1010A76
:101A30004FF00009A8440FB12046B847A5682046DA
:101A400031465DB9FFF74CFF0028F7D0FFF7F8F8F3
:101A50002B4683F311884846BDE8F087A369013D12
:101A6000A56013F8012B0AF8012C2269A3619342A7
:101A700024BFE368A361FFF7E3F8002383F3118831
:101A8000C24509F10109E6D0202383F31188FFF74D
:101A9000BFF80AF1010ACEE70148FFF7C9F9C0E72C
:101AA000F0650008AFF30080AFF30080AFF3008073
:101AB00010B4C361019B40608C180060826041617A
:101AC0008161C1600461036210BC7047AFF30080A4
:101AD00038B50446FFF74CF9E36822692068636172
:101AE000D21AA042A361A2600AD06FF00105036878
:101AF00023605C60FFF71CFA85622068A042F6D183
:101B000038BD00BFAFF30080AFF30080AFF30080BB
:101B10002DE9F041202304468846164683F31188B8
:101B2000FFF776F8A568204631465DB9FFF7D8FE85
:101B3000071EF7DAFFF784F82B4683F3118838463F
:101B4000BDE8F0816369013DA56003F8018B22695E
:101B50006361934224BFE3686361E3690BB120468C
:101B60009847FFF76DF8002383F311881F46384626
:101B7000BDE8F081AFF30080AFF30080AFF30080E9
:101B800038B50446FFF7F4F86269A3699A42A2687F
:101B900016D00132A26013F8015B2269A36193425F
:101BA00028BFE368206828BFA361A04206D003686D
:101BB00023605C60FFF7BCF900238362284638BDD0
:101BC000002AE6D06FF0020038BD00BFAFF30080FE
:101BD0002DE9F0470446164688469A46D0F81C90F0
:101BE000002A39D0202383F31188FFF711F800274A
:101BF000A56820466B1E0DB3A36018F8013B65690C
:101C000005F8013B236965619D4224BFE368636178
:101C1000B9F1000F00D0C847FFF712F8002383F393
:101C200011880137013E14D0202383F31188FEF779
:101C3000EFFFA56820466B1E002DDDD120465146E2
:101C4000FFF74EFE0028D3D0FEF7FAFF2B4683F3B2
:101C500011883846BDE8F0870148FFF7E9F8C1E789
:101C600004660008AFF30080AFF30080AFF300809C
:101C700040F67C5240F678534CF200010648C2F21E
:101C80000002C2F20003C2F2010120F0070021F0BD
:101C9000070110601960704727180020AFF300801B
:101CA00010B50446FFF764F8074A08491368096845
:101CB000E01D20F00700C91A88429ABF181810606A
:101CC0000023184610BD00BF7C0D0020780D0020B9
:101CD00010B52023044683F31188FEF799FF2046B0
:101CE000FFF7DEFF0446FEF7ABFF002383F3118806
:101CF000204610BDAFF30080AFF30080AFF300804B
:101D000040F6785240F67C53C2F20002C2F2000361
:101D100010681B68C01A7047AFF30080AFF30080F3
:101D200040F68053C2F2000341F6D1410022C0F6D2
:101D3000000103F1100019609A60DA60FFF720BC1F
:101D4000F8B5204E002818BF0646073106F11000EE
:101D500021F0070506F10804FFF7A2FC00E01C468D
:101D60002368FBB15A689542F9D805F10801914200
:101D700015D84FF6F870CFF6FF70401B03EB010E3D
:101D800082181868CEF8042058505D60C4F800E04E
:101D90001C4644F8086BFFF793FC2046F8BD1A6810
:101DA0002260F5E7FFF78CFC33684BB105F10800C2
:101DB000984728B100F10804066045602046F8BD48
:101DC0000024EAE7800D0020AFF30080AFF300802D
:101DD000F8B5074600284BD057F8086C06F11000FC
:101DE000FFF75EFC0836A7F108053446AC4204D87C
:101DF00063680833E3189D421FD3B442236801D0BF
:101E0000AC4202D21BB19D4201D31C46EEE757F80B
:101E1000042C47F8083C256002F1080357F8080C29
:101E2000E91881420DD0636803F10802A2189542B7
:101E300015D0BDE8F840FFF743BC0F48FEF7F8FFA8
:101E4000DBE74968EB585218083247F8042C47F88A
:101E5000083C636803F10802A2189542E9D157F8DB
:101E6000041C57F8082C5B18083384E80C00E0E7E2
:101E70000248FEF7DDFFAFE7406600083066000865
:101E800038B50E4C002818BF044604F110000D466A
:101E9000FFF706FCA3686BB10022144658681B6864
:101EA00012180134002BF9D105B12A60FFF708FCA4
:101EB000204638BD1A461C46F6E700BF800D0020BC
:101EC00038B504460D46FEF753FF002C18BF002D11
:101ED00002D10348FEF7ACFF23682B60256038BDB4
:101EE00084660008AFF30080AFF30080AFF300809A
:101EF00038B505460C46202383F31188FEF788FE8B
:101F000028462146FFF7DCFFFEF79AFE002383F305
:101F1000118838BDAFF30080AFF30080AFF30080CD
:101F200008B501F00DFA00F00BFC46F68070C0F623
:101F3000000001F05DFD00F03BF800F071F800F0EA
:101F400057F900F09DFB00F023FC00F079FABDE8A2
:101F5000084003F02DBA00BFAFF30080AFF300805C
:101F60004FF48053CEF2000310B45A681C46801818
:101F7000824263680AD2984294BF002101219A42AA
:101F800088BF00210029F3D110BC70479A428CBF52
:101F900000210121984288BF41F001010029E7D1C9
:101FA000F2E700BFAFF30080AFF30080AFF3008033
:101FB00001F07EBCAFF30080AFF30080AFF3008090
:101FC0000123037000234360704700BFAFF300801C
:101FD000002818BF002938B50D46044617D0202325
:101FE00083F31188FEF714FE2378013B012B02D9FD
:101FF0000948FEF71DFF2046656001F0D9FC022369
:102000002370FEF71DFE002383F3118838BD0348BB
:10201000FEF70EFFE3E700BFC0660008B0660008E9
:1020200002F016B8AFF30080AFF30080AFF300808A
:1020300001230370002343600C30FFF7A1BA00BFF7
:10204000002818BF002938B50D46044619D023785A
:102050005A1E052B18BF012A02D90C48FEF7E8FECC
:10206000202383F31188FEF7D3FD2046656002F03C
:1020700007F802232370FEF7E3FD002383F31188A2
:1020800038BD0348FEF7D4FEE1E700BF90670008C3
:1020900080670008AFF30080AFF30080AFF30080EB
:1020A0002DE9F04784B0002818BF0029884604466F
:1020B000924699460C9F0D9D0E9E03D0002A18BF94
:1020C000002B28D11848FEF7B3FE2378022B02D04C
:1020D0001648FEF7ADFE202383F31188FEF798FD26
:1020E0000023A36003232370204601954B460097ED
:1020F00002964146524602F01BF9431C054610D099
:1021000002232370FEF79CFD002383F311882846E9
:1021100004B0BDE8F0870DB1002FD3D0002ED4D18C
:10212000D0E705232370EDE7D0670008F0670008CB
:1021300010B5044628B104F10C00BDE81040FFF7CB
:10214000AFBA0248FEF774FEF5E700BF4468000826
:1021500008B518B1BDE80840FFF7B2BA0148FEF76C
:1021600067FEF7E758680008AFF30080AFF3008020
:102170000C30FFF74DBC00BFAFF30080AFF3008021
:102180000C304FF0FF33FFF743BC00BFAFF30080CC
:102190003030FFF71DBD00BFAFF30080AFF300800C
:1021A00030304FF0FF33FFF713BD00BFAFF30080B7
:1021B0000C30FFF7FDBB00BFAFF30080AFF3008032
:1021C0000C304FF0FF31FFF7F3BB00BFAFF30080DF
:1021D0003030FFF79DBC00BFAFF30080AFF300804D
:1021E00030304FF0FF32FFF793BC00BFAFF30080F9
:1021F00003F06EB8AFF30080AFF30080AFF3008060
:1022000070B546F6D0030546C0F60003044645F80F
:10221000043B82B0656001250B46164604F154016B
:102220001022257200F10C000094FFF771FB00945E
:1022300004F1300004F1640110223346FFF738FC4A
:1022400002B070BDAFF30080AFF30080AFF3008049
:1022500038B504460D46B8B1202383F31188FEF744
:10226000D7FC237A013B012B02D90948FEF7E0FD98
:102270002046294603F044F802232372FEF7E0FCCF
:10228000002383F3118838BD0248FEF7D1FDE3E750
:102290007C68000870680008AFF30080AFF300802E
:1022A00038B504460D46FEF763FDD4B163693BB112
:1022B00004F10C002946FFF753FB00280BDB38BD67
:1022C000201D0421FFF794FA04F10C002946FFF7C2
:1022D00047FB0028F3DA201D8021BDE83840FFF7D6
:1022E00087BA0248FEF7A4FDE0E700BFA86800082F
:1022F00070B5046AD4F854321B681A78042A00D0E6
:1023000070BD9D8905F00205ADB2002DF8D1216C9C
:10231000E26BA36B8A1AD61AF2D0FEF791FC2B4619
:1023200083F31188D4F8542233461068012104F154
:10233000300200F0D5FA202383F31188FEF768FC01
:10234000D4F8543218680121BDE8704000F0F8BAA2
:10235000F8B5046AD4F854321A681378042B00D004
:10236000F8BDD589536905F00205ADB25E8A002D2E
:10237000F6D1E769A2696369BF1AFF1ABE42EFD8B6
:10238000FEF75EFC2B4683F31188D4F85422B7FB8A
:10239000F6F306FB03F31068012104F10C0200F0D0
:1023A0008FFA202383F31188FEF732FCD4F85432DD
:1023B00018680121BDE8F84000F0A2BAAFF3008030
:1023C0000C30FFF725BB00BFAFF30080AFF30080F8
:1023D0000C304FF0FF33FFF71BBB00BFAFF30080A3
:1023E0003030FFF7F5BB00BFAFF30080AFF30080E4
:1023F00030304FF0FF33FFF7EBBB00BFAFF300808F
:102400000C30FFF7D5BA00BFAFF30080AFF3008008
:102410000C304FF0FF31FFF7CBBA00BFAFF30080B5
:102420003030FFF775BB00BFAFF30080AFF3008023
:1024300030304FF0FF32FFF76BBB00BFAFF30080CF
:10244000704700BFAFF30080AFF30080AFF30080B0
:1024500030B546F620130546C0F60003044645F89D
:10246000043B83B0656042F25133012504F154010D
:10247000257200F10C004FF48072C0F60003009446
:10248000FFF746FA42F2F123009404F1300004F51C
:10249000AA714FF48072C0F60003FFF709FB03B086
:1024A00030BD00BFAFF30080AFF30080AFF300801A
:1024B00038B504460D46B8B1202383F31188FEF7E2
:1024C000A7FB237A013B012B02D90948FEF7B0FC98
:1024D0002B68C4F854529C6002232372FEF7B0FBB1
:1024E000002383F3118838BD0248FEF7A1FCE3E71F
:1024F00000690008F0680008AFF30080AFF30080C7
:1025000070B5856805F10C0604463046FFF710FAF1
:1025100005F13000FFF7DCFA281D0121FFF768F90B
:1025200063690121204632465B8A00F0C9F92046E2
:102530000121BDE8704000F0E3B900BFAFF30080B7
:1025400090F8303003F06003202B01D0002070475A
:1025500090F83130212B03D0222B09D0202BF5D13C
:10256000064B4362072383620023C3620120704746
:10257000002343628362C362012070470408002085
:10258000F8B5846805460E46202383F31188FEF7CC
:1025900077FB0821201DFFF72BF9216CE26BA36B61
:1025A0008A1AD71A24D1331D55F8233059691A8A4B
:1025B0004B68013A12EA030705D0FEF779FB0023C6
:1025C00083F31188F8BDFEF773FB3B4683F3118854
:1025D0002846314604F1300200F082F9202383F3CB
:1025E0001188FEF74DFB2846314600F0A9F9E4E7D3
:1025F000FEF75EFB002383F311883B46E8E700BF4C
:102600002DE9F041202384680546884683F311882C
:10261000FEF736FB0421201DFFF7EAF86969E76938
:10262000A26963694E8ABF1AFF1ABE4217D8FEF725
:102630003FFB002383F31188B7FBF6F306FB03F39C
:102640002846414604F10C0200F03AF9202383F3B6
:102650001188FEF715FB2846414600F051F9FEF7B8
:1026600027FB002383F31188BDE8F081AFF30080DE
:10267000704700BFAFF30080AFF30080AFF300807E
:1026800002F0CEBCAFF30080AFF30080AFF3008068
:10269000002301220270436083600C30FEF770BF9C
:1026A000002818BF002938B50D46044617D020234E
:1026B00083F31188FEF7ACFA2378013B012B02D992
:1026C0000948FEF7B5FB2046656002F0D1FC022305
:1026D0002370FEF7B5FA002383F3118838BD034851
:1026E000FEF7A6FBE3E700BF506900084069000859
:1026F0004FF48053CEF200035B688360704700BFE5
:102700004FF48053CEF20003094A5B68816810B42D
:102710001468C2685B1A1B1B9342836088BFC36046
:1027200003D80269934238BF036110BC704700BFF1
:10273000A00D0020AFF30080AFF30080AFF3008066
:1027400010B540F6A05486B0C2F200040022226008
:1027500004924FF480534FF0FF320592CEF2000303
:1027600042F2F162C0F600025B68019242F201722D
:10277000C0F6000201A803930292FFF7C1FF039B7A
:10278000236006B010BD00BFAFF30080AFF3008040
:1027900002F086B9AFF30080AFF30080AFF30080A2
:1027A000002301220270436083608381C3817047EC
:1027B000002818BF002970B50E4604461CD02023FF
:1027C00083F31188FEF724FA2378013B012B02D909
:1027D0000B48FEF72DFB00252046666025616561EC
:1027E000A561E56102F084F902232370FEF728FA5F
:1027F0002B4683F3118870BD0248FEF719FBDEE714
:10280000B06B0008A06B0008AFF30080AFF300804E
:10281000F8B5044615460E46FEF7AAFA002C18BF76
:10282000002D20D02378042B02D01148FEF700FBA6
:10283000371D54F8273013B10E48FEF7F9FA6869CE
:1028400018B100211022FDF74BFFA86918B1002133
:102850001022FDF745FF2046314644F82750BDE8D9
:10286000F84002F035BA0448FEF7E2FADAE700BFB2
:10287000F46B0008106C0008DC6B0008AFF30080FC
:1028800030B40C1D002550F82440A4692560E26096
:102890006360A56030BC02F0FBBA00BFAFF30080FC
:1028A00030B40C1D002550F8244064692560E260B6
:1028B0006360A56030BC02F003BB00BFAFF30080D3
:1028C00030B40C1D012550F82440A4696360002336
:1028D0002560E260A36030BC02F0DABAAFF300809A
:1028E00030B40C1D012550F8244064696360002356
:1028F0002560E260A36030BC02F0E2BAAFF3008072
:1029000070B504460D46FEF733FA94B1E38943FAF5
:1029100005F010F0010601D0012070BD012202FA7D
:1029200005F213432046E381294602F0E9FA3046D6
:1029300070BD0248FEF77CFAE8E700BF646C00084F
:1029400070B504460D46FEF713FA94B1A38943FA15
:1029500005F010F0010601D0012070BD012202FA3D
:1029600005F213432046A381294602F0D1FA3046EE
:1029700070BD0248FEF75CFAE8E700BF7C6C000817
:1029800010B40346002202240470028783F83A2020
:1029900080F83B208281C281026142618261C26112
:1029A00083F8202010BC02F013B900BFAFF3008001
:1029B000F8B50023044680F8203000F1300202F020
:1029C00057FA63689B68002B2DD02046984750B378
:1029D000A56A94F8303094F8371094F8362042EA1B
:1029E0000122AA423CBF1546A26213F0800F2B467B
:1029F00040F08780002D6DD1042284F820202046ED
:102A000029462A46FFF74CFF202383F31188FEF75F
:102A100037F929462046FFF793FFFEF749F92B4681
:102A200083F31188F8BD94F8303013F0600711D0AB
:102A30000021204602F08CFA2046002102F080FAA4
:102A400063681B6813B1204605219847052384F865
:102A50002030F8BD94F8316003F07F0242EA062688
:102A6000B6F5407F00F0038117DDB6F5C06F00F0CA
:102A7000958075DDB6F5106F00F0BE8040F602421D
:102A8000964200F08480B6F5006FD1D1012504F1A3
:102A90003B026262A562E7629DE7022E00F0BE8003
:102AA00070DDB6F5807F00F09280B6F5817FBFD1F2
:102AB00094F83220002ABBD194F8342012F00F0190
:102AC0005BD01206204600F1018102F049FA94F829
:102AD000303052E0032284F8202020460021626A30
:102AE000FFF7CEFE202383F31188FEF7C9F80021FB
:102AF0002046FFF705FFFEF7DBF8002383F311887C
:102B0000F8BDB5B1012284F8202020460021626A78
:102B1000FFF7C6FE202383F31188FEF7B1F80021EA
:102B20002046FFF70DFFFEF7C3F8002383F311885B
:102B3000F8BD022284F82020204629462A46FFF7C5
:102B40009FFE202383F31188FEF79AF8294620463A
:102B5000FFF7D6FEFEF7ACF82B4683F31188F8BDDD
:102B600040F20232964270D0B6F5A06F7FF460AFAB
:102B7000228EB2F5A06F00F0978000256562A562F5
:102B8000E56228E7002E30D0012E7FF451AF544A81
:102B9000022562620022A562E2621CE7626894F884
:102BA000356094F83430556894F8331094F8322036
:102BB000204643EA0623A84700283FF439AF43687C
:102BC00005686362A562E76294F8303003E794F821
:102BD0003220012A7FF42CAF228F676222F002029A
:102BE0002287A762E7623D46F5E6022504F1380236
:102BF0006262A562E662EEE694F8322084F83B2039
:102C0000002A42D10322227062681268002AB4D0DE
:102C100020460221904794F83030AEE794F8341003
:102C200011F0800F204601F00F0131D102F000F9C0
:102C3000012831D002287FF4FBAE2A4BA0626362E8
:102C4000E76294F830300546C5E694F83220002A51
:102C50007FF4EEAE94F8342012F00F018DD01306FD
:102C6000204638D402F06CF994F8303085E794F8B7
:102C70003220012A7FF4DCAE228F676242F002022A
:102C80002287A762E7623D46A5E604222270BBE7E1
:102C900002F0DEF80128CDD1134BA6626362E76231
:102CA00094F83030354696E694F83230204684F871
:102CB0003A3001F0FDFF63681B6813B12046012123
:102CC0009847032294F83030227056E702F050F90A
:102CD00094F8303051E702F03BF994F830304CE78B
:102CE000806B0008906B0008D06C0008AFF3008088
:102CF00038B590F82030012B044619D0042B10D0A1
:102D0000002102F025F92046002102F019F963683C
:102D10001B6813B1204605219847052384F820300D
:102D200038BDC36A03B19847002384F8203038BD0A
:102D300090F8372090F83630856A43EA0223AB4298
:102D400006D903691B8AB5FBF3F203FB1255BDB12B
:102D5000002102220B4684F8202020460A46FFF775
:102D60008FFD202383F31188FDF78AFF0021204681
:102D7000FFF7C6FDFDF79CFF002383F3118838BDE4
:102D80002B4629462A46FFF78BFD202383F3118823
:102D9000FDF776FF29462046FFF7D2FDFDF788FFB5
:102DA0002B4683F3118838BDAFF30080AFF300806A
:102DB00090F82030022B10B504462AD0032B11D0F6
:102DC0000021204602F0C4F82046002102F0B8F8A5
:102DD00063681B6813B1204605219847052384F8D2
:102DE000203010BD002104220B4680F820200A4626
:102DF000FFF756FD202383F31188FDF741FF0021E3
:102E00002046FFF79DFDFDF753FF002383F3118854
:102E100010BD03699B699B68002BD1D1C36A03B1C4
:102E20009847002384F8203010BD00BFAFF3008026
:102E300010B5FDF75DFF4FF4C043C4F2020308482C
:102E4000196802683D2401F03D019C600AB14068A8
:102E50009047FDF76DFFBDE81040FDF789BD00BF4D
:102E6000A40D0020AFF30080AFF30080AFF300802B
:102E700010B5FDF73DFF4FF4C043C4F2020309480B
:102E80001968826889094FF4746401F03D019C60FF
:102E90000AB1C0689047FDF74BFFBDE81040FDF751
:102EA00067BD00BFA40D0020AFF30080AFF300802A
:102EB00010B5FDF71DFF4FF4C043C4F202030948EB
:102EC00019680269090C4FF4741401F03D019C600B
:102ED0000AB140699047FDF72BFFBDE81040FDF7B0
:102EE00047BD00BFA40D0020AFF30080AFF300800A
:102EF00010B5FDF7FDFE4FF4C043C4F202030948CC
:102F000019688269890D4FF0746401F03D019C607D
:102F10000AB1C0699047FDF70BFFBDE81040FDF70F
:102F200027BD00BFA40D0020AFF30080AFF30080E9
:102F300010B5FDF7DDFE4FF4C043C4F202030848AC
:102F40005968026A3D2401F03D01DC600AB1406A23
:102F50009047FDF7EDFEBDE81040FDF709BD00BF4D
:102F6000A40D0020AFF30080AFF30080AFF300802A
:102F700010B5FDF7BDFE4FF4C043C4F2020309488B
:102F80005968826A89094FF4746401F03D01DC607C
:102F90000AB1C06A9047FDF7CBFEBDE81040FDF7CF
:102FA000E7BC00BFA40D0020AFF30080AFF30080AA
:102FB00010B5FDF79DFE4FF4C043C4F2020309486B
:102FC0005968026B090C4FF4741401F03D01DC6088
:102FD0000AB1406B9047FDF7ABFEBDE81040FDF72E
:102FE000C7BC00BFA40D0020AFF30080AFF300808A
:102FF00010B5FDF77DFE4FF4C043C4F2020309484B
:103000005968826B890D4FF0746401F03D01DC60FA
:103010000AB1C06B9047FDF78BFEBDE81040FDF78D
:10302000A7BC00BFA40D0020AFF30080AFF3008069
:1030300010B5FDF75DFE4FF4C843C4F20203084823
:103040001968026C3D2401F03D019C600AB1406C9E
:103050009047FDF76DFEBDE81040FDF789BC00BF4D
:10306000A40D0020AFF30080AFF30080AFF3008029
:1030700010B5FDF73DFE4FF4C843C4F20203094802
:103080001968826C89094FF4746401F03D019C60F9
:103090000AB1C06C9047FDF74BFEBDE81040FDF74C
:1030A00067BC00BFA40D0020AFF30080AFF3008029
:1030B00010B5FDF71DFE4FF4C843C4F202030948E2
:1030C0001968026D090C4FF4741401F03D019C6005
:1030D0000AB1406D9047FDF72BFEBDE81040FDF7AB
:1030E00047BC00BFA40D0020AFF30080AFF3008009
:1030F00010B5FDF7FDFD4FF4C843C4F202030948C3
:103100001968826D890D4FF0746401F03D019C6077
:103110000AB1C06D9047FDF70BFEBDE81040FDF70A
:1031200027BC00BFA40D0020AFF30080AFF30080E8
:1031300010B5FDF7DDFD4FF4C843C4F202030848A3
:103140005968026E3D2401F03D01DC600AB1406E19
:103150009047FDF7EDFDBDE81040FDF709BC00BF4D
:10316000A40D0020AFF30080AFF30080AFF3008028
:1031700010B5FDF7BDFD4FF4C843C4F20203094882
:103180005968826E89094FF4746401F03D01DC6076
:103190000AB1C06E9047FDF7CBFDBDE81040FDF7CA
:1031A000E7BB00BFA40D0020AFF30080AFF30080A9
:1031B00010B5FDF79DFD4FF4C843C4F20203094862
:1031C0005968026F090C4FF4741401F03D01DC6082
:1031D0000AB1406F9047FDF7ABFDBDE81040FDF729
:1031E000C7BB00BFA40D0020AFF30080AFF3008089
:1031F00010B5FDF77DFD4FF4C843C4F20203094842
:103200005968826F890D4FF0746401F03D01DC60F4
:103210000AB1C06F9047FDF78BFDBDE81040FDF788
:10322000A7BB00BFA40D0020AFF30080AFF3008068
:103230000F4B30B400220F4D0F4C1A60114613464D
:10324000E8580C330160A1500832C02BF8D14FF47C
:10325000C0414FF4C842C4F20201C4F202024FF06E
:10326000FF338B60CB609360D36030BC704700BF8E
:10327000240E0020206D0008A40D0020AFF3008074
:103280002DE9F041064684B0002848D0294F747AD1
:103290003868012505FA04FC1CEA000F18BF28460F
:1032A0003AD1254D4CEA000005EBC40810F0FF0FA1
:1032B000C8F804301CBF4FF46053C4F202033860F6
:1032C00045F834201EBF1C6B44F400141C6310F43A
:1032D0007F4F1CBF4FF46053C4F2020334681EBF1B
:1032E000186B40F480001863236823F00103236007
:1032F000236813F00105FBD1307A73683D2707FA84
:1033000000F01860212325601046636122B1B07A75
:103310000901FDF79DFB284604B0BDE8F081074890
:10332000039102920193FDF783FD019B029A039999
:10333000ACE700BF240E0020A40D0020E06C0008C4
:103340004FF46053C4F202030022196941F00101F5
:1033500030B419611A61596941F0010159615A612A
:10336000996941F0010199619A61196A19621A62B9
:103370005D6A4EF21001CEF2000149F23F04C0F244
:1033800002044EF6F05045F001055D62CEF20000F9
:103390005A624C6007248A600C60C4684FF4805104
:1033A000CEF2000144F08074C460086840F001006F
:1033B0000860186C4FF4E041C4F2000140F0805006
:1033C0001864086840F480700860196F01F4407157
:1033D000B1F5007F1EBF4FF4803119671A674FF4B3
:1033E0006053C4F202031A6F120407D41A6F42F436
:1033F00000721A671A6F42F400421A6730BCFFF776
:1034000017BF00BFAFF30080AFF30080AFF30080C1
:103410004FF46052C4F202024FF4E043C4F20003DE
:103420004FF0805111644FF480411A46196053687F
:103430005904FCD54FF46053C4F2020319461A68CC
:1034400042F001021A600A684FF460539207C4F216
:103450000203F8D51A6842F480321A6019460A68E5
:103460004FF460539003C4F20203F8D55A6F42F050
:1034700001025A6719464A6F4FF460539207C4F22B
:103480000203F8D545F20C42C0F240725A601A6845
:1034900042F080721A6019460A684FF46053900136
:1034A000C4F20203F8D598684FF414424FF47051F7
:1034B000C3F608020243C4F202019A6040F20572A8
:1034C0000A609A6842F002029A60996801F00C0161
:1034D0004FF460520829C4F20202F6D1536C43F44F
:1034E00080435364536E43F480435366704700BF78
:1034F00010B5FDF7FDFB40F62860C2F200004FF466
:1035000070534268C4F20103012400215C615368D6
:103510009847FDF70DFCBDE81040FDF729BA00BF44
:1035200010B5FDF7E5FB40F62860C2F200004FF44D
:1035300070534268C4F20103022401215C61D36824
:103540009847FDF7F5FBBDE81040FDF711BA00BF45
:1035500010B5FDF7CDFB40F62860C2F200004FF435
:1035600070534268C4F20103042402215C61536970
:103570009847FDF7DDFBBDE81040FDF7F9B900BF46
:1035800010B5FDF7B5FB40F62860C2F200004FF41D
:1035900070534268C4F20103082403215C61D369BB
:1035A0009847FDF7C5FBBDE81040FDF7E1B900BF46
:1035B00010B5FDF79DFB40F62860C2F200004FF405
:1035C00070534268C4F20103102404215C61536A01
:1035D0009847FDF7ADFBBDE81040FDF7C9B900BF46
:1035E00010B5FDF785FB4FF47053C4F201035C691D
:1035F00004F478725A61A30624D460061CD4210610
:1036000014D4E2050CD4A30504D51148436809215C
:10361000DB6C9847FDF78CFBBDE81040FDF7A8B9BF
:103620000B48436808215B6C9847ECE708484368FF
:103630000721DB6B9847E4E70548436806215B6B8D
:103640009847DCE7024843680521DB6A9847D4E7DE
:10365000280E0020AFF30080AFF30080AFF30080AE
:1036600010B5FDF745FB4FF47053C4F201035C69DC
:1036700004F47C4261055A612CD4220524D4E3046D
:103680001CD4A00414D461040CD4220404D514481E
:1036900043680F21DB6F9847FDF74AFBBDE81040F8
:1036A000FDF766B90E4843680E215B6F9847ECE75B
:1036B0000B4843680D21DB6E9847E4E708484368F0
:1036C0000C215B6E9847DCE7054843680B21DB6DF6
:1036D0009847D4E7024843680A215B6D9847CCE7D6
:1036E000280E0020AFF30080AFF30080AFF300801E
:1036F00010B5FDF7FDFA40F62860C2F200004FF465
:1037000070534268C4F201034FF4803410215C61AD
:10371000D2F884309847FDF70BFBBDE81040FDF769
:1037200027B900BFAFF30080AFF30080AFF3008094
:1037300010B5FDF7DDFA40F62860C2F200004FF444
:1037400070534268C4F201034FF4802412215C617B
:10375000D2F894309847FDF7EBFABDE81040FDF73A
:1037600007B900BFAFF30080AFF30080AFF3008074
:1037700010B5FDF7BDFA40F62860C2F200004FF424
:1037800070534268C4F201034FF4002413215C61BA
:10379000D2F89C309847FDF7CBFABDE81040FDF712
:1037A000E7B800BFAFF30080AFF30080AFF3008055
:1037B00010B5FDF79DFA40F62860C2F200004FF404
:1037C00070534268C4F201034FF4801414215C6109
:1037D000D2F8A4309847FDF7ABFABDE81040FDF7EA
:1037E000C7B800BFAFF30080AFF30080AFF3008035
:1037F00010B5FDF77DFA40F62860C2F200004FF4E4
:1038000070534268C4F201034FF4800416215C61D6
:10381000D2F8B4309847FDF78BFABDE81040FDF7B9
:10382000A7B800BFAFF30080AFF30080AFF3008014
:1038300008B506206021FDF70BF907206021FDF790
:1038400007F908206021FDF703F909206021FDF741
:10385000FFF80A206021FDF7FBF817206021FDF733
:10386000F7F828206021FDF7F3F801206021FDF72B
:10387000EFF82920F021FDF7EBF82A206021FDF771
:10388000E7F860213E20FDF7E3F84C206021FDF7CA
:10389000DFF80220F021FDF7DBF80320F021BDE87E
:1038A0000840FDF7D5B800BFAFF30080AFF300804C
:1038B00040F62860C2F20000FEF782BBAFF3008042
:1038C000426852F83130D80770B441D54FF4705483
:1038D000C4F201040120A56800FA01F00543A560C7
:1038E000C44313F0020F4FF47053C4F20103DD68B8
:1038F00014BF05432540DD6002EBC1035B68002B6C
:1039000032D04FF47053C4F201031D68284318608D
:10391000586804405C600F2918D888084FF4605339
:10392000C4F20103023052F8314053F8205001F044
:10393000030189000F2202FA01F2C4F3031425EAFD
:10394000020204FA01F1114343F8201070BC7047E1
:103950004FF47055C4F201050120AE6800FA01F081
:10396000C4432640AE60BCE74FF47053C4F2010379
:103970005D6828435860186804401C60CBE700BFAE
:103980004FF47053C4F201030122186802FA01F1E6
:10399000CA4310401860586810405860986810403A
:1039A0009860D8680240DA6059617047AFF30080D0
:1039B00038B50378012B054614D0002404E0013407
:1039C000FFF77EFF172C0CD06B6853F8343013F0E0
:1039D000040F21462846F2D10134FFF7D1FF172CFE
:1039E000F2D138BDFFF724FFE7E700BFAFF3008057
:1039F0004FF46053C4F202031A6B6FEA52226FEA6B
:103A000042221A631A6D6FEA52226FEA42221A6545
:103A100000234168C4F202034FF480625960816858
:103A20009960C168D9600169596141691962816908
:103A3000596201681960016AC4F202024FF400631E
:103A40005160416A9160816AD160C16A5161016BC4
:103A50001162416B5162C1691160C4F20203C26B11
:103A60005A60026C9A60426CDA60826C5A61C26C75
:103A70001A62026D5A62816B4FF440621960816D67
:103A8000C4F202024FF480535160C16D9160016E27
:103A9000D160416E5161816E1162C16E5162416DA2
:103AA0001160C4F20203426F5A60826F9A60C26F63
:103AB000DA60D0F880205A61D0F884201A62D0F8F9
:103AC00088205A62016F4FF4A0521960D0F890100C
:103AD000C4F202024FF4C0535160D0F894109160C8
:103AE000D0F89810D160D0F89C105161D0F8A01097
:103AF0001162D0F8A4105162D0F88C101160D0F887
:103B0000AC10C4F202034FF4E0525960D0F8B01088
:103B10009960D0F8B410D960D0F8B8105961D0F8D5
:103B2000BC101962D0F8C0105962D0F8A810C4F2C5
:103B300002021960D0F8C8305360D0F8CC309360DE
:103B4000D0F8D030D360D0F8D4305361D0F8D8302A
:103B50001362D0F8DC305362D0F8C4104FF4005335
:103B60001160D0F8E420C4F202035A60D0F8E820D3
:103B70009A60D0F8EC20DA60D0F8F0205A61D0F8E2
:103B8000F4201A62D0F8F8205A62D0F8E0201A60C7
:103B9000704700BFAFF30080AFF30080AFF3008049
:103BA0002DE9F00F002302F00307C2F38006C2F3F1
:103BB000C105C2F341144FF00F09C2F3C3124FF015
:103BC000010A04E07600AD00A400BF00013303F059
:103BD000070C4FEA8C0C11F0010F02FA0CF809FAED
:103BE0000CFC3CD0072B95BFD0F820B0D0F824B007
:103BF0002BEA0C0C2BEA0C0C95BF4CEA08084CEA9B
:103C00000808C0F82080C0F82480D0F804C00AFA60
:103C100003F82CEA080C4CEA060CC0F804C04FF07C
:103C2000030B4FEA430CD0F808800BFA0CFC6FEA48
:103C30000C0C0CEA080848EA0508C0F80880D0F81F
:103C40000C800CEA080848EA0408C0F80C80D0F898
:103C500000800CEA080C4CEA070CC0F800C04908C8
:103C6000B0D1BDE8F00F7047AFF30080AFF3008034
:103C700030B4C46A036B226800214FF400451D80F4
:103C8000198099809982136823F0010313601368E7
:103C9000D907FCD4816A257A63680A683D2000FA56
:103CA00005F01860136823F0010313601368DB0745
:103CB000FCD40A7A4B683D2101FA02F21A6030BC4A
:103CC000704700BFAFF30080AFF30080AFF3008018
:103CD00038B50446202383F31188FCF7D1FFE5694A
:103CE00055B12046FFF7C4FF0023E3614FF0FF33D7
:103CF0002846AB62FDF71CF9FCF7DAFF002383F3DB
:103D0000118838BDAFF30080AFF30080AFF30080BF
:103D100011F00C0F38B50546046B14D1E96A0A6836
:103D2000136823F0010313601368D807FCD40A7AE0
:103D30004B683D2101FA02F21A60A3889BB243F45A
:103D40000073A38038BDFCF7D3FDE7E7AFF3008035
:103D500011F00C0F70B50646056B32D1B16A0A68D6
:103D6000136823F001031360136813F00104FBD1FF
:103D70000A7A4B683D2101FA02F21A60AB8823F4FB
:103D800080531B041B0CAB802B8823F480631B0423
:103D90001B0C2B802B889BB243F400732B802023B9
:103DA00083F31188FCF76CFFF36923B1F4611846C3
:103DB0009C62FDF7BDF8FCF77BFF002383F31188BD
:103DC00070BDFCF795FDC9E7AFF30080AFF300804D
:103DD000F8B53F4DFCF78CFF2C6B228BA68AB6B250
:103DE000022346EA024222F07F42C0F203039A42D3
:103DF00037D010D80123C0F203039A4201D12B8C93
:103E0000238216F00A0F18BF238BFCF791FFBDE841
:103E1000F840FCF7ADBD8223C0F207039A4213D0ED
:103E20008423C0F207039A42EBD1AB6A1B685F6838
:103E3000002F31D023882A8C9BB242F0010243F438
:103E4000A0632A842380E0E7A388EA6A23F400734E
:103E50001B0412681B0CA380136843F0010313605A
:103E6000CFE7A388AA6A23F400731B0412681B0C13
:103E7000A380136843F001031360A3889BB243F44B
:103E80008053A3805368012BBBD8238823F480631D
:103E90001B041B0C2380B4E7A38823F400731B04CA
:103EA0001B0CA38023889BB243F400732380202340
:103EB00083F31188FCF7E4FEE86918B18762EF61CB
:103EC000FDF736F8FCF7F4FE002383F3118898E73A
:103ED000300E0020AFF30080AFF30080AFF300801E
:103EE00070B5594EFCF704FF346B202383F311881F
:103EF000FCF7C6FEF06A0268136823F00103136042
:103F00001368DD07FCD4057AB16A43680A683D206E
:103F100000FA05F01860136823F0010313601368BA
:103F200013F00105FBD10A7A4B683D2101FA02F238
:103F30001A60FCF7BDFE2B4683F31188A38A03F4B5
:103F400080739BB233B1A38A23F480731B041B0CD0
:103F5000A3820123A28A02F4007292B23AB1A28A29
:103F600022F400721204120CA28243F00203A28A0D
:103F700002F4806292B292B1A28A22F480621204A8
:103F8000120CA282A28822F400721204120CA280E7
:103F9000228892B242F40072228043F00403A28A83
:103FA00002F4006292B23AB1A28A22F400621204D0
:103FB000120CA28243F00803A28A02F4805292B249
:103FC0003AB1A28A22F480521204120CA28243F067
:103FD0001003A28A02F4804292B20AB3A28A22F4A7
:103FE00080421204120CA282A28A12B2002A43F06A
:103FF000200321DBB360202383F31188FCF740FE0C
:10400000F06938B16FF0010383620F4B0022DA616F
:10401000FCF78EFFFCF74CFE002383F3118805E0CC
:10402000A28A12B2002A07DB002BE3D1FCF780FE44
:10403000BDE87040FCF79CBCA28A5204520CA282DC
:1040400043F04003D6E700BF300E0020AFF30080FE
:1040500010B540F63064C2F200042046FDF7E8FFD8
:10406000064B4FF4B042C4F2000203F13C010020C1
:10407000E0612263A362E16210BD00BF386D0008F9
:10408000027840F21643012A2DE9F04104464362CA
:10409000056B00F08F802E4640F256429C46E36A44
:1040A000A16A60681B68096847681A6005F1100218
:1040B000C1F800C090F808808A609A604FF400430D
:1040C0002B8000232B80002F4FF41063AB8059DD31
:1040D000C0F23D039F4255DCB38823F03F031B042D
:1040E0001B0CB380B28848F2A06392B2C0F2010305
:1040F00042F02A029F42B28048DCB8F1010F02D0A0
:104100007D48FCF795FE4DF680637F00C0F280236A
:1041100093FBF7F24DF6806307FB02F2C0F28023B7
:104120009B1A002B40F090804DF68063C0F28023F4
:1041300093FBF7F7BBB2032B7ED93F052B223F0D34
:10414000B3F5805F328402D36C48FCF771FE62687D
:10415000216B1278B7830B88022A9BB266D0032AA0
:1041600008BF43F00A0305D0012A03D123F00A0354
:104170001B041B0C0B802B889BB243F001032B808C
:10418000BDE8F0815E48FCF753FEA5E74FF4D45339
:10419000C0F206039F420BDCA8F10203012B57D9A2
:1041A0005848FCF745FE48F6FF770D233384CEE7E9
:1041B0000027CCE7544FB8427FF46DAF4FF4605303
:1041C000C4F202030026196A806A504A41F4800151
:1041D00019621E6205212346FFF752F8002840F0BD
:1041E0008680F86A4A4A484B0521FFF749F80028BB
:1041F00079D14FF46053C4F2020321201A6C42F4C7
:1042000080021A645021FCF723FC50212220FCF785
:104210001FFC796A3E6B41F0606C40224CF4403CDC
:10422000C0F60362C7F824C00A4338E74FF6F772B6
:104230001A4042F002039DE73648FCF7F9FD3F05BE
:104240002B233F0D338482E73348FCF7F1FD6BE706
:10425000B8F1020F1FD14DF6806307EB4707C0F29C
:10426000802393FBF7F24DF6806307FB02F2C0F266
:1042700080239B1A5BB94DF68063C0F2802393FBC9
:10428000F7F76FEA47476FEA5747BFB28DE7234812
:10429000FCF7CEFDEFE7B8F1030F18BF48F6FF7744
:1042A00083D107EB87074DF6806307EB8707C0F2E2
:1042B000802393FBF7F24DF6806307FB02F2C0F216
:1042C00080239B1A5BB94DF68063C0F2802393FB79
:1042D000F7F76FEA87476FEA9747BFB265E710487D
:1042E000FCF7A6FDEFE70F48FCF7A2FD81E70E48BB
:1042F000FCF79EFD75E700BF206E0008B06E000859
:10430000086E0008686E0008300E0020513D00085D
:10431000113D0008506E0008386E0008806E0008DD
:10432000986E0008F46D0008E06D0008AFF300809F
:104330002DE9F04786B09146109D046B6A1C064635
:104340008A46984605D001A82946354A3346FCF7E7
:1043500087FDFCF775FC002383F31188F16AB26ACC
:104360000F681068B3600E9B4FEA4A0AA6F820A0B7
:10437000C7F80C90C7F80480C3600F9B436004E04B
:10438000FCF75EFC002383F31188228B02F002020B
:1043900092B2202322B9228802F4007292B26AB14A
:1043A00083F31188FCF734FC6B1CE9D0049A002AD3
:1043B000E6D14FF0FF3006B0BDE8F08783F31188F7
:1043C000FCF726FC681C1AD0049B002BF1D0A388B4
:1043D000144D9BB243F40073A3802288AB6992B260
:1043E00042F4807222800220F361FCF7F9FD049B05
:1043F00013B101A8FCF764FDAB69986ADBE7A388F9
:10440000084D9BB243F40073A3802288AB6992B23B
:1044100042F4807222800220F361FCF7E1FDEBE7B9
:10442000D13C00085C0D0020AFF30080AFF30080AA
:10443000016CC36B00222DE9F00110468F684FF02C
:10444000804C4FF0FF3618E0585055015C1902F1CE
:1044500058014901C4F81009C4F8086953F80180EB
:10446000B8F1000FA8BF585016DB5D190132BA42EF
:10447000C5F8100BC5F8086B15D802F148014901C1
:104480005C58002CE0DA550143F801C05C19D4F8FF
:1044900008198907FBD5D9E743F801C0D4F8081BF0
:1044A000C906FBD5E1E74FF00112C3F81C28BDE8AF
:1044B000F0017047AFF30080AFF30080AFF30080EE
:1044C000F8B5C46B04EB41134FF0FF32D3F8086B1F
:1044D000C3F8082B330705460F4603D5D4F8143824
:1044E0001A0715D4F30703D5D4F81438D80700D425
:1044F000F8BD3B1DE98955F82330012202FA07F285
:1045000021EA0202EA81DB68284639469847F8BD6D
:104510000B1D50F823305B689847E3E7AFF300804A
:10452000C26B890141F02003136113699906FCD421
:104530000C20FDF715BD00BFAFF30080AFF3008086
:104540002DE9F04F40F65C51C2F2000187B08A6954
:10455000C16B0191AE4980469161202383F311889C
:10456000FCF756FB4FF0000998F80030012B06D0FD
:10457000D8F848309BB9019A5369D8060FD40199ED
:104580008A6940F65C51C2F2000142F010028B6968
:10459000019902208A61C8F85030FCF721FDFCF730
:1045A0004FFB002383F311881C46019A536913F0D3
:1045B000100525D0D8F83C100E6A06F4F013B3F5B8
:1045C000802F34D0B3F5402FEFD106F00F02043224
:1045D000C6F30A1358F8222003339B08106AE4D06C
:1045E000022201F5805EDEF8001012B140F8041BD3
:1045F000013A013BF7D1019A536913F01005D9D163
:104600000121D8F84830A1401942039140F085803B
:1046100001340494D8F84030049A9B68D4B29C4288
:10462000C3D9202383F31188FCF7F2FA9CE706F044
:104630000F070437C6F30A1658F82730986903683D
:10464000DBB9021D2CCA0332D21AF31C92089B0854
:104650000AD001F5805EDEF8001012B145F8041BA7
:10466000013A013BF7D1C568AD19C56058F827304C
:104670009B699A6892199A6097E701F5805EC56810
:104680005EB33046032807D96B692A69934241D348
:10469000EB6803286B61F7D8DEF800C0E8B16B69FE
:1046A000002200E06B69D1002CFA01F103F8011B34
:1046B00029696B618B4224BFEB686B61013802F1A1
:1046C00001020CBF00230123032A8CBF002303F047
:1046D0000103002BE6D10028D4D1202383F31188D5
:1046E000FCF796FAAB6828689B19A842AB6009D022
:1046F00003682B605D60FCF71BFCC0F828902868FD
:10470000A842F5D1FCF744FDFCF79AFA002383F3A5
:104710001188ABE7DEF800C0C2E7202383F31188DD
:10472000FCF776FA0199D8F848308A68039923EAA9
:104730000103019922F001028A60C8F84830FCF7B1
:104740007FFA2B4683F31188261D58F82650686996
:1047500083684168994240F2CD80D8F83C202D8A88
:10476000670102EB070EC91ADEF81839A94238BFF3
:104770000D469BB20134B5EB830F04942FD821036F
:1047800002910368002B45D1EB1C02999B0802EBB8
:10479000010CC26808D0043252F8041C0432013BF8
:1047A000CCF80010F8D1C2685219C26058F82640FF
:1047B000606983684168EB189942836040F29C808D
:1047C000D8F83C20248A02EB070ECD1ADEF81839FF
:1047D000A54228BF25469BB2B5EB830FD1D9002453
:1047E000202383F31188FCF713FA019A936843F0AE
:1047F000010393602CB9D2F8343803990B43C2F803
:104800003438FCF71DFA002383F3118802E700BF58
:10481000E06E00080299C46802EB010C3DB3294622
:10482000AE46059688083FD02569A669AA1BD31C09
:1048300032EA220228BF1A469310984238BF034634
:104840004FEA830BCBEB010143B1321D52F8040C4C
:104850000432013BCCF80000F8D15E44B542A661B9
:1048600045D8E368A3610029DCD1059E7546202365
:1048700083F31188FCF7CCF9A36820685B19A04288
:10488000A36009D0036823605C60FCF751FBC0F8AB
:1048900028902068A042F5D1FCF77AFCFCF7D0F90B
:1048A000002383F3118881E70846D9B125690020E8
:1048B0000246A36913F801ABD600AB42A36124BF43
:1048C000E368A361013902F101020CBF0023012357
:1048D0000AFA06F6032A8CBF002303F001033043D3
:1048E000002BE6D1CCF8000000299BD1BDE70029C0
:1048F000DDD1BAE701340494012471E7AFF30080FD
:10490000F8B5C46B04EB41134FF0FF32D3F80869DC
:10491000C3F80829F30705460F4603D5D4F8103825
:10492000DA0723D4330606D50122D4F8343802FA44
:1049300007F71F4200D1F8BD202383F31188FCF74D
:104940009FF9AB6CD4F83428286D3B4322EA070763
:10495000AB64C4F8347818B1FCF7EAFA00232B658D
:10496000FCF7A6F9002383F31188F8BD0B1DB0F8FE
:104970000CE050F82330012202FA01F22EEA020282
:1049800082819B689847CDE7AFF30080AFF300804A
:1049900070B5424EFCF7ACF9F56B6B69AC691C4025
:1049A000E1046C612DD4A20448BFD5F80838230770
:1049B00004D57368DB680BB138489847E0062BD400
:1049C0006103D5F8185807D5EA074FD4AB0753D47D
:1049D000680757D429075BD4220307D5EB0338D4E3
:1049E000A8033CD469032DD42A0305D4FCF7A0F90D
:1049F000BDE87040FBF7BCBF28480321FFF760FD0E
:104A0000F4E73046FDF7BCFF73681B68002BCAD083
:104A1000304600219847C6E7202383F31188FCF72E
:104A20002FF9AB69306D23F01003AB6120B1FCF7B7
:104A30007FFA1A4B00221A65FCF73AF9002383F338
:104A40001188BDE702211548FFF73AFD2A03CDD5AD
:104A5000D2E712480021FFF733FDA803C2D5012198
:104A60000E48FFF72DFD6903BED5EBE700210B488B
:104A7000FFF746FFAB07ABD508480121FFF740FF22
:104A80006807A7D502210548FFF73AFF2907A3D5F4
:104A900002480321FFF734FF9EE700BF680E0020A5
:104AA00038B540F66864C2F200042046FDF778FE8F
:104AB0000023E36423654FF0A04304F1A405E363FE
:104AC00046F6D0632946FF2204F15800C0F60003E1
:104AD0002364FCF7B5FB284604F59E715522BDE81A
:104AE0003840FCF7ADBB00BFAFF30080AFF30080F0
:104AF00070B50378C56B012B82B0064601D002B0B9
:104B000070BD304B984249D0F36C0022B264002B48
:104B100038D04FF4A2520323C0F22023C4F2000283
:104B2000F46BEA60C5F800380023C5F8003E4FF486
:104B30005023AB63012323612369D807FCD40C20E5
:104B4000FDF70EFA2369002BFCDA0024AC60304636
:104B5000FFF76EFC7368C5F81048DB68C5F81448A9
:104B6000C5F81C4853B143F20803AB614FF0FF3363
:104B70006B61AB6843F00103AB60C0E74FF4405397
:104B8000AB61F3E7009606F158004FF498710222EA
:104B90000D4BFCF75DFB3065F064BAE74FF46053F2
:104BA000C4F2020343205A6B42F080025A635A69EE
:104BB00042F080025A6100225A61E021FBF748FF6F
:104BC000A2E700BF680E002041450008AFF3008057
:104BD0002DE9F04180460021C46BFFF7A1FCD8F815
:104BE00040E0DEF8080000234FF00065FF2103F1EC
:104BF000480703F1580604EB43127F0176010133A5
:104C00008342E551A551C2F80819C2F8081BEED934
:104C1000DEF80030D8F83C204FF0FF31C4F8181807
:104C20004FF00111C4F81C18C8F844306362102317
:104C30001361136913F01005FBD10C20FDF790F9F7
:104C4000D4F80028D8F84030D8F84460586822F4E6
:104C5000FE63C4F80038A76947F44027092147F0EC
:104C60001007A76106F11002C4F8101848F24003BB
:104C7000C4F814180C49C1F200038242C8F810109D
:104C8000C4F8105BC4F8003BC4F81059C4F80039EC
:104C9000C8F8442002D90548FCF7CAF846F4801643
:104CA000A662BDE8F08100BF106F0008F06E00083A
:104CB000C36B90F83A10D3F8002822F4FE6242EA5F
:104CC0000112C3F800287047AFF30080AFF30080F3
:104CD0002DE9F84F0F1D4FF4004850F82730C46BF2
:104CE0001A6802F00302022A0D46064608BFC1F206
:104CF00008080CD0032A08BFC1F20C0807D04146AF
:104D0000C1F20001C1F20408012A18BF88466A01F5
:104D1000A0180021C0F8101BD968002950D0588A6B
:104D200005F15801490148EA000060504FF0010EBA
:104D3000D4F81C0805F110010EFA01F10143C4F882
:104D40001C18A21899680020C2F8100900294AD03E
:104D50009A8B198AD6F844908B08012A88BF53434E
:104D6000326C516803EB09028A42726405F1FF3B21
:104D70004FEA034A20D80BF1400B04EB8B0B4AEAB5
:104D80000903CBF8043029463046FFF7C9FB56F833
:104D900027301A8A05F1480342EA85525B0142EA4C
:104DA0000802E2500122D4F81C3802FA05F51D432E
:104DB000C4F81C58BDE8F88F1A48FCF739F8DAE750
:104DC00005F15801490105F1100E605820F400402A
:104DD00060500121D4F81C0801FA0EF120EA01010B
:104DE000C4F81C18ADE705F13F0204EB82024FF452
:104DF0008063C0F20023536029463046FFF790FBE2
:104E000005F148035B01E25822F40042E25001221E
:104E1000D4F81C3802FA05F523EA0505C4F81C5835
:104E2000BDE8F88FF06E0008AFF30080AFF30080AC
:104E30005831C36B49015B5813F4004004D013F49C
:104E4000001F0CBF02200120704700BFAFF300809D
:104E50004831C36B49015B5813F4004004D013F48C
:104E6000001F0CBF02200120704700BFAFF300807D
:104E7000043150F821301B6A19685B681160536077
:104E8000704700BFAFF30080AFF30080AFF3008046
:104E90000B1D10B450F82330C46B9A695B8A5068BC
:104EA0000138C01843F0C04204EB4111B0FBF3F3EA
:104EB00042EAC343C1F8103B10BC7047AFF3008017
:104EC0000B1D10B450F8232053695B686BB1128A34
:104ED000C06B5C1EA418B4FBF2F200EB411143EA74
:104EE000C243C1F8103910BC7047C36B03EB4111CA
:104EF0004FF40023C1F81039F5E700BFAFF300808D
:104F00005831C36B49015A5842F080625A50704779
:104F100001F14802C36B5201985840F00440985088
:104F20000120D3F8342800FA01F11143C3F83418F2
:104F3000704700BFAFF30080AFF30080AFF3008095
:104F40005831C36B49015A5842F400125A50704705
:104F50004831C36B49015A5842F400125A50704705
:104F60005831C36B49015A5822F400125A50704705
:104F70004831C36B49015A5822F400125A50704705
:104F800011F00C0F00D17047FBF7B2BCAFF30080FB
:104F900011F00C0F70B504463CD1606A02681368CA
:104FA00023F0010313601368D907FCD4057A216A42
:104FB00043680A683D2000FA05F01860136823F082
:104FC000010313601368DB07FCD46368087A4A683E
:104FD0001B683D2101FA00F11160C3B10422227067
:104FE000204698472378042B11D0A56875B1002678
:104FF000A660202383F31188FBF742FE2846FBF7C7
:1050000097FFFBF755FE334683F3118870BD0223EB
:105010002370EAE7FBF76CFCBFE700BFAFF300804B
:1050200038B541F2080341F20C04C2F20004C2F2A6
:1050300000034FF6FF7220461A80FDF729FB09494D
:105040004FF4405016224623C4F2010001F124051A
:10505000C0F20162C0F20163E06121626562A26296
:10506000E36238BD806D0008AFF30080AFF30080CD
:1050700038B50378012B044627D0C3696268A06A5B
:10508000528902F4006189B2B9B1E16A20F4F040BA
:1050900021F4F04140F4205041F42051A062E1623B
:1050A00042F44172002119801A8007229A801A88DE
:1050B00092B242F040021A8038BDE16A20F4F0401A
:1050C00021F4F041A062E162EAE7164DA84209D05E
:1050D000216A626AE3690868116803F10C02826060
:1050E0008A60CBE7006A104A0A212346FEF7C8F817
:1050F00078B9686A0D4A0B4B0A21FEF7C1F860B90E
:105100004FF46053C4F202035A6C42F480525A6462
:10511000DEE70748FBF78CFEEBE70648FBF788FE67
:10512000EEE700BF0C100020914F0008814F0008EF
:10513000406F0008546F0008AFF30080AFF30080A9
:105140004FF4A053C4F201039A8992B242F0800254
:105150009A817047AFF30080AFF30080AFF3008017
:105160002DE9F041FBF7C4FD554B5D6FAE892C88EE
:10517000A988A4B22207B6B28FB259D104F48073C1
:105180009BB2002B3ED104F020039BB2002B2AD10E
:1051900006F080039BB223B104F080039BB2002B86
:1051A00070D104F04004A4B2BCB1202383F3118871
:1051B000FBF766FD43481021FCF71AFBFBF778FD6F
:1051C000002383F311884FF6BF733340AB812B88E4
:1051D00023F040031B041B0C2B80FBF7A9FDBDE84B
:1051E000F041FBF7C5BB202383F31188FBF748FD93
:1051F0003348F9B2FDF754F8FBF75AFD002383F367
:105200001188C5E7202383F31188FBF739FD2D486A
:105210004FF40071FCF7ECFAFBF74AFD002383F32F
:1052200011882B8823F480731B041B0C2B80AAE7A6
:1052300004F008081FFA88F8B8F1000F14BF4FF007
:1052400080084FF00008E30704F002039BB248BF58
:1052500048F020080BB148F0400804F004039BB26A
:105260000BB148F48078202383F31188FBF708FD05
:1052700014484146FCF7BCFAFBF71AFD002383F300
:1052800011887BE7202383F31188FBF7F9FC0E4894
:10529000FCF776FC0028A4BF80B2A88005DBFBF7F2
:1052A00007FD002383F311887BE706480821FCF7FC
:1052B0009FFA26F0C00343F04003AB81EFE700BF45
:1052C0003C100020401000206C100020AFF3008044
:1052D00010B541F23C04C2F2000445F241122046EE
:1052E0000021C0F60002FCF78BFF4FF4A053C4F27C
:1052F0000103636710BD00BFAFF30080AFF3008010
:1053000038B5037A234C002918BF0C46012B0546FB
:1053100030D06B6F4FF4A0514FF48052C4F20102B1
:10532000C4F20101934218BF8B4208BF4FF43D42C3
:10533000216816BF4DF68062C0F20152C0F2802291
:10534000B2FBF1F292B21A81A288E088218942F47C
:10535000045240F0400041F0010142F02C0292B2B0
:1053600080B289B2188299829A8100221A801A88A2
:105370009B8838BD084B9842CBD14FF46053C4F2A0
:10538000020347205A6C42F020025A64C021FBF706
:105390005FFBBEE7706F00083C100020AFF3008099
:1053A000FEF736B8AFF30080AFF30080AFF30080B4
:1053B000704700BFAFF30080AFF30080AFF3008011
:1053C000F0B400F10B0C00F10A050C46B1FBF2F64B
:1053D00002FB161101F13003392BC8BF01F137036D
:1053E000DBB2B4FBF2F42F46314605F80139002C4C
:1053F000ECD1C7EB0C013A46411801E012F8013F2D
:1054000000F8013B8842F9D1F0BC7047AFF300804F
:105410000EB42DE9F04F86B00FAB0DF10C0853F828
:10542000044B02930DF10D03C8EB030C00930646E9
:10543000CDF804C0254615F8011B59B125290ED019
:1054400033682C46254630469B68984715F8011B63
:105450000029F3D106B0BDE8F04F03B07047637880
:105460002D2B18BF4FF0000B00F0128120272E2BA0
:1054700000F00A812C460299002506E00A780431E2
:1054800005EB8505237802EB4505A3F13002D2B286
:105490000134092AF4D92A2BF0D000202E2B0291B6
:1054A0004BD003F0DF024C2A55D12278012112B1F2
:1054B000013413460121A3F14402342A00F2DC80B6
:1054C000DFE812F0CA00DA00DA00DA00DA00DA0007
:1054D000DA00DA00DA00DA00DA00E000DA00DA00F6
:1054E000DA00DA00DA00C200DA00DA00B500DA0029
:1054F000DA00DA00DA00DA00DA00DA00DA00DA00DC
:10550000DA009500CA00DA00DA00DA00DA00DA0020
:10551000DA00DA00DA00DA00DA00E000DA00DA00B5
:10552000DA005000DA00C200DA00DA00B5000A78CA
:10553000043100EB800002EB400014F8013BA3F1C2
:105540003002D2B2092AF4D92A2BF0D003F0DF02BC
:105550004C2A0291A9D0A3F1410119298CBF002145
:105560000121A8E7029A47F28003D2F80090C0F622
:105570000003B9F1000F08BF9946111D99F80020EA
:10558000029147F6FF71002808BF0846002A00F084
:10559000A0804946484402E0904200F096804F784F
:1055A0004A1C1146002FF7D1C9EB020ACAEB0505C8
:1055B000202725EAE575BBF1000F29D0BAF1000FCD
:1055C000C8BF09EB0A0B07DD326819F8011B9268A6
:1055D00030469047D945F7D1002D3FF42BAF3368C3
:1055E00030469B6839469847013DF8D122E7029B37
:1055F000DDF804A01A68043302938DF80C202027EC
:10560000C146CAEB050525EAE575BBF1000FD5D10A
:105610006D42002DD2D099F800102D294AD0316862
:1056200030468B68394698470135F8D1C6E71022D5
:10563000029B69B1191D029119684046FFF7C0FE2F
:10564000C146C8EB000ADCE70A22029B0029F1D11F
:10565000181D19680290F0E7029B1A1DE9B9196834
:1056600002920029A8BF40461DDB0A22FFF7A8FED0
:10567000C146C8EB000AC4E78DF80C30DDF804A081
:10568000C146BEE70822D3E76B7830270135F1E643
:10569000A51CA3784FF0010BE8E6196802920029D7
:1056A000A8BF4046E1DA2D238DF80C3049420DF1B8
:1056B0000D00DAE7302FB2D1326830469368984750
:1056C00009F101090AF1FF3AA9E7C9EB000A20270D
:1056D00097E79246202794E7AFF30080AFF300806E
:1056E00038B504460D4698B128600C492046FBF7B2
:1056F0003FF8241820460949FBF71AF8286018B12A
:10570000002300F8013B2860237823B1204638BDF0
:105710000C68002CE9D10024204638BD90700008A8
:10572000002903DD0449054AFFF772BE044B054911
:10573000DA68FFF76DBE00BF94700008A070000823
:105740004C0D0020A8700008AFF30080AFF300807C
:1057500010B5002982B0044606DD1949194A02B085
:10576000BDE81040FFF754BE1749184AFFF750FE36
:1057700020461749174AFFF74BFE20461649174A9D
:10578000FFF746FE20461649164AFFF741FE20461F
:105790001549164AFFF73CFE20461549154AFFF702
:1057A00037FE20461449154AFFF732FE144B1549BF
:1057B00000932046144A154BFFF72AFE02B010BD95
:1057C00094700008B0700008B8700008CC70000831
:1057D000DC700008F0700008FC7000081071000810
:1057E0001C710008307100083C71000850710008FD
:1057F000687100087C71000898710008AC7100089D
:10580000E8710008C0710008D8710008E471000850
:1058100041F2B403C2F200031B607047AFF3008093
:1058200000B583B045F6E1030090C0F60003002008
:10583000FBF72EFE03B000BDAFF30080AFF3008096
:10584000F0B5013A83B00E4604460D468F18236822
:1058500001220DF107015B682046984738B39DF897
:105860000710042926D008290ED00D2928D01F2979
:10587000EDD9BD42EBD2236820469B6898479DF83E
:10588000073005F8013BE2E7B5422046DFD0236848
:105890009B689847236820219B6820469847236887
:1058A0009DF807109B6820469847013DCFE70120EF
:1058B00003B0F0BD20460649FFF7AAFD0120F7E737
:1058C00020460449FFF7A4FD00202870F0E700BF40
:1058D000F4710008A8730008AFF30080AFF30080F4
:1058E0002DE9F0435E4B06689B695E4AD0F8048060
:1058F0005D499A6197B03046FFF78AFDDFF88891DD
:1059000030465A49FFF784FD304606A94022FFF78A
:1059100097FF044600282FD1694606A8FFF7E0FE4E
:105920006946074600206D46FFF7DAFE50B1042CA9
:105930001BD045F8040F694600200134FFF7D0FE64
:105940000028F4D116AA02EB840343F8540C002F6C
:10595000D6D038464649FAF7CBFE08BB84B130466C
:105960004449434AFFF754FDCAE730464249FFF72E
:105970004FFD00230593C3E730464049FFF748FD3C
:10598000202383F31188FBF743F900213C48FBF700
:105990002FFF0020FBF704FD002017B0BDE8F083C7
:1059A00038463849FAF7A4FE30B93046CCB131490F
:1059B000344AFFF72DFDA3E7D9F80000002833D0C3
:1059C000314D03E055F8080F00282DD03946FAF77D
:1059D0008FFE0028F6D16B683046214601AA984711
:1059E0008EE72A49284CFFF713FDD9F800203AB179
:1059F00030462749FFF70CFD54F8082F002AF7D14D
:105A0000B8F1000F0BD0D8F8002042B14446304620
:105A10001F49FFF7FDFC54F8082F002AF7D1304644
:105A20001C49FFF7F5FC6BE7B8F1000F0DD0D8F873
:105A3000000050B1454602E055F8080F28B139463C
:105A4000FAF756FE0028F7D1C5E7304612493A4624
:105A5000FFF7DEFC30461149FFF7DAFC50E700BFE4
:105A60005C0D0020F8710008007200081872000830
:105A700044720008947000082C720008207200081C
:105A8000B41000204C7200080C080020547200086A
:105A90006C720008A8730008707200087472000825
:105AA00008B5202383F31188FBF7B2F84FF4405375
:105AB000C4F200034CF6CC421A60FBF7C1F8002395
:105AC00083F3118808BD00BFAFF30080AFF30080FF
:105AD00008B5202383F31188FBF79AF84FF440535D
